:020000040800F2
:10000000000008244D0B0008690900087109000868
:10001000790900088109000889090008000000002A
:10002000000000000000000000000000910900082E
:100030009F09000800000000AD090008BB09000886
:10004000A10B0008A10B0008A10B0008A10B0008E0
:10005000A10B0008A10B0008A10B0008A10B0008D0
:10006000A10B0008A10B0008A10B0008A10B0008C0
:10007000A10B0008A10B0008A10B0008A10B0008B0
:10008000A10B0008A10B0008A10B0008A10B0008A0
:10009000A10B0008A10B0008A10B0008A10B000890
:1000A000A10B0008A10B0008A10B0008A10B000880
:1000B000A10B0008A10B0008A10B0008A10B000870
:1000C000A10B0008A10B0008A10B0008A10B000860
:1000D000A10B0008A10B0008A10B0008C90900082A
:1000E000A10B0008A10B000800000000A10B0008F4
:1000F000A10B0008A10B0008A10B0008A10B000830
:10010000A10B0008A10B0008A10B0008A10B00081F
:10011000A10B0008A10B0008A10B0008A10B00080F
:10012000A10B0008A10B0008A10B0008A10B0008FF
:10013000A10B0008A10B0008A10B0008A10B0008EF
:1001400000000000000000000000000000000000AF
:10015000A10B0008A10B0008A10B0008A10B0008CF
:10016000A10B0008A10B0008A10B0008A10B0008BF
:10017000A10B0008A10B0008A10B00080000000063
:10018000A10B0008A10B0008A10B0008A10B00089F
:10019000A10B0008A10B0008A10B0008A10B00088F
:1001A000A10B0008A10B0008A10B0008A10B00087F
:1001B000A10B0008A10B0008A10B0008A10B00086F
:1001C000A10B0008A10B0008A10B0008A10B00085F
:1001D000A10B0008A10B0008A10B0008A10B00084F
:1001E000A10B0008A10B0008A10B0008A10B00083F
:1001F000A10B0008A10B0008A10B0008A10B00082F
:10020000A10B0008A10B0008A10B0008A10B00081E
:10021000A10B0008A10B0008A10B0008A10B00080E
:10022000A10B0008A10B0008A10B000800000000B2
:10023000A10B0008A10B000800000000A10B0008A2
:10024000A10B0008A10B0008A10B0008A10B0008DE
:10025000A10B0008A10B0008A10B0008A10B0008CE
:10026000A10B0008A10B0008A10B0008A10B0008BE
:10027000A10B0008A10B0008A10B00080000000062
:10028000A10B0008A10B0008A10B00080000000052
:0802900000000000A10B0008B2
:1002980010B5054C237833B9044B13B10448AFF3B8
:1002A80000800123237010BD10000024000000000E
:1002B800C466000808B5034B1BB103490348AFF3F4
:1002C800008008BD0000000014000024C466000877
:1002D800034613F8012B002AFBD1181A013870477E
:1002E80053B94AB9002908BF00281CBF4FF0FF3195
:1002F8004FF0FF3000F06AB9ADF1080C6DE904CE9B
:1003080000F006F8DDF804E0DDE9022304B07047E8
:100318002DE9F047089D0C46002B4ED194468C459C
:100328008646B2FA82F262D94AB1C2F120039140FC
:1003380020FA03F30CFA02FC194300FA02FE4FEA12
:100348001C471FFA8CF6B1FBF7F44FEA1E4307FB74
:10035800141143EA014304FB06F199420AD91CEB44
:10036800030304F1FF3080F01281994240F20F81BB
:10037800023C6344591A1FFA8EF3B1FBF7F007FBEE
:10038800101143EA014300FB06F69E420AD91CEB12
:10039800030300F1FF3180F0FC809E4240F2F980B7
:1003A800634402389B1B40EA044000211DB1D3403E
:1003B8000022C5E90032BDE8F0878B4205D90DB1AE
:1003C800C5E9000100210846F5E7B3FA83F10029E1
:1003D80046D1A34202D39042C0F0F080861A64EB63
:1003E80003030120002DE6D0C5E90063E3E7002AF6
:1003F80040F09080A1EB0C044FEA1C481FFA8CF7E0
:100408000121B4FBF8F64FEA1E4308FB164443EA01
:10041800044307FB06F0984208D91CEB030306F1D6
:10042800FF3402D2984200F2CD8026461C1A1FFAE9
:100438008EF3B4FBF8F008FB104443EA044300FBD6
:1004480007F79F4208D91CEB030300F1FF3402D2DF
:100458009F4200F2B0802046DB1B40EA0640A5E739
:10046800C1F120068B4022FA06F71F4320FA06FC4A
:1004780004FA01F343EA0C03F44000FA01F8380CDB
:100488004FEA1349B4FBF0FE1FFA87FC00FB1E4439
:1004980049EA04440EFB0CF9A14502FA01F20AD913
:1004A8003C190EF1FF3A80F08480A14540F281802A
:1004B800AEF1020E3C44A4EB09041FFA83F9B4FB25
:1004C800F0F300FB134449EA044403FB0CFCA44585
:1004D80007D93C1903F1FF3067D2A44565D9023B1F
:1004E8003C4443EA0E40A0FB0293A4EB0C049C425C
:1004F800CE469C4651D34ED055B1B8EB0E0364EBB3
:100508000C0404FA06F6CB401E43CC40C5E900644F
:10051800002150E7C2F1200320FA03F10CFA02FC93
:1005280024FA03F394400C434FEA1C4800FA02FEF5
:100538001FFA8CF7B3FBF8F008FB1031230C43EAE1
:10054800014300FB07F1994208D91CEB030300F1B2
:10055800FF362CD299422AD9023863445B1AA4B2D6
:10056800B3FBF8F108FB113344EA034401FB07F33A
:10057800A34208D91CEB040401F1FF3613D2A342AD
:1005880011D902396444E41A41EA004139E70446C2
:10059800F0E6084606E7C845AED2B9EB020E63EBB3
:1005A800070C0138A8E73146EDE7034699E73046DE
:1005B800D4E7D6467FE7634402384DE7064623462C
:1005C80008460FE7023E634430E700BF704700BFAC
:1005D800B0B586B000AF00F005F900F0DFFA00F022
:1005E80021F800F0D5F800F087F80C4B3C1D1D46AB
:1005F8000FCD0FC42B6823803B1D1846FFF768FEFC
:1006080003469AB2391D4FF0FF33054804F0C0FA8B
:100618004FF47A7000F054FB00BFE6E7DC66000890
:100628002C00002480B59CB000AF07F124034C22B5
:100638000021184606F016F83B1D20220021184616
:1006480006F010F8022001F007FC00233B60284B5D
:10065800DB6A274A23F00103D362254BDB6A03F0E8
:1006680001033B60234B9B6923F44043214A43F435
:10067800804393611F4B9B6903F440433B603B6895
:1006880000BF1C4B9B6903F40053B3F5005FF8D11E
:1006980001237B624FF48033BB620023BB6407F104
:1006A8002403184601F012FC0346002B01D000F089
:1006B800C5F83F237B600223BB600023FB60002357
:1006C8003B6100237B614023BB610023FB61002366
:1006D8003B623B1D0021184602F052F80346002BEE
:1006E80001D000F0ABF800BF7037BD4680BD00BF39
:1006F800000400580048025880B500AF224B234A36
:100708001A60214B4FF4E1325A601F4B00229A6065
:100718001D4B0022DA601C4B00221A611A4B0C2276
:100728005A61194B00229A61174B0022DA61164B65
:1007380000221A62144B00225A62134B00229A625A
:10074800114804F0D5F90346002B01D000F076F8E3
:1007580000210D4805F0BCFE0346002B01D000F037
:100768006DF80021084805F0F1FE0346002B01D082
:1007780000F064F8044805F072FE0346002B01D02F
:1007880000F05CF800BF80BD2C0000240048004049
:1007980080B483B000AF124BD3F8E030104A43F076
:1007A8008003C2F8E0300E4BD3F8E03003F080034A
:1007B8007B607B680A4BD3F8E030094A43F00203B8
:1007C800C2F8E030064BD3F8E03003F002033B6098
:1007D8003B6800BF0C37BD465DF8047B704700BF1F
:1007E8000044025880B584B000AF3B4600221A602E
:1007F8005A609A60DA6000F0A3FB01233B70002383
:100808007B7000237B601F233B7287237B7200234E
:10081800BB720023FB7201233B7301237B7300230C
:10082800BB730023FB733B46184600F0C1FB042052
:1008380000F09EFB00BF1037BD4680BD80B400AFFE
:1008480072B600BF00BFFDE780B483B000AF0A4BAB
:10085800D3F8F430084A43F00203C2F8F430064BE8
:10086800D3F8F43003F002037B607B6800BF0C37D9
:10087800BD465DF8047B70470044025880B5BAB0A5
:1008880000AF786007F1D40300221A605A609A60BA
:10089800DA601A6107F11003C0220021184605F03A
:1008A800E1FE7B681B682B4A93424ED14FF002024F
:1008B8004FF00003C7E904230023C7F8883007F185
:1008C8001003184602F0E8FA0346002B01D0FFF7A0
:1008D800B5FF214BD3F8E8301F4A43F48023C2F810
:1008E800E8301D4BD3F8E83003F48023FB60FB6845
:1008F800194BD3F8E030184A43F00203C2F8E0304D
:10090800154BD3F8E03003F00203BB60BB684FF42B
:100918004063C7F8D4300223C7F8D8300023C7F89B
:10092800DC300023C7F8E0300723C7F8E43007F1CC
:10093800D4031946094801F0DFF8002200212720D6
:1009480000F0C9FA272000F0E0FA00BFE837BD46FA
:1009580080BD00BF0048004000440258000402580F
:1009680080B400AF00BFFDE780B400AF00BFFDE773
:1009780080B400AF00BFFDE780B400AF00BFFDE763
:1009880080B400AF00BFFDE780B400AF00BFBD4634
:100998005DF8047B704780B400AF00BFBD465DF8CA
:1009A800047B704780B400AF00BFBD465DF8047B90
:1009B800704780B500AF00F063F900BF80BD00004C
:1009C80080B500AF024804F071F900BF80BD00BFD8
:1009D8002C00002480B400AF434BD3F88830424A3F
:1009E80043F47003C2F88830404B1B6803F00F03D0
:1009F800062B07D83D4B1B6823F00F033B4A43F0F7
:100A0800070313603A4B1B68394A43F0010313602C
:100A1800374B00221A61364B1A683549354B13405B
:100A28000B60324B1B6803F00803002B07D02F4BD9
:100A38001B6823F00F032D4A43F0070313602C4B68
:100A480000229A612A4B0022DA61294B00221A629D
:100A5800274B294A9A62264B284ADA62244B284AAD
:100A68001A63234B00225A63214B254A9A63204B71
:100A78000022DA631E4B224A1A641D4B00225A6474
:100A88001B4B1B681A4A23F480231360184B00225F
:100A98001A661C4B1A681C4B1340B3F1005F02D254
:100AA8001A4B01221A60124BD3F8D43003F4805346
:100AB800002B13D10E4BD3F8D4300D4A43F4805396
:100AC800C2F8D430124B43F2D2021A60084BD3F862
:100AD800D430074A23F48053C2F8D43000BFBD464F
:100AE8005DF8047B704700BF00ED00E00020005275
:100AF800004402587FEDF6EA000202020000FF01FE
:100B0800800201010010005C0000FFFF0881005115
:100B18000040005280B400AF094BDB68084A43F03C
:100B28000203D36000BF064B5B6803F40053002B3D
:100B3800F9D000BF00BFBD465DF8047B704700BF19
:100B480000480258DFF838D0FFF7E4FFFFF742FF0C
:100B58000C480D490D4A002302E0D458C450043310
:100B6800C4188C42F9D30A4A0A4C002301E01360E6
:100B78000432A242FBD305F07DFDFFF729FD704743
:100B88000000082400000024100000243867000832
:100B980010000024C4000024FEE7000080B582B0E5
:100BA80000AF032000F08CF901F0A0FF0246154BBE
:100BB8009B691B0A03F00F031349CB5C03F01F0367
:100BC80022FA03F37B600F4B9B6903F00F030E4A75
:100BD800D35C03F01F037A6822FA03F30B4A13600D
:100BE8000B4A7B6813600F2000F014F80346002BB3
:100BF80001D0012302E0FFF727FE0023184608373B
:100C0800BD4680BD00440258F06600080400002478
:100C18000000002480B582B000AF7860154B1B78C7
:100C2800002B01D1012321E0134B1A68114B1B78CB
:100C380019464FF47A73B3FBF1F3B2FBF3F318469A
:100C480000F071F90346002B01D001230EE07B6808
:100C58000F2B0AD8002279684FF0FF3000F03BF9DB
:100C6800064A7B681360002300E001231846083712
:100C7800BD4680BD0C0000240000002408000024AC
:100C880080B400AF064B1B781A46064B1B6813440A
:100C9800044A136000BFBD465DF8047B704700BF7F
:100CA8000C000024C000002480B400AF034B1B6874
:100CB8001846BD465DF8047B704700BFC00000249D
:100CC80080B584B000AF7860FFF7EEFFB8607B684E
:100CD800FB60FB68B3F1FF3F05D00A4B1B781A464F
:100CE800FB681344FB6000BFFFF7DEFF0246BB68EA
:100CF800D31AFA689A42F7D800BF00BF1037BD462A
:100D080080BD00BF0C00002480B400AF034B1B68FB
:100D18001B0C1846BD465DF8047B70470010005C4C
:100D280080B485B000AF78607B6803F00703FB6090
:100D38000B4BDB68BB60BA684FF6FF031340BB6020
:100D4800FB681A02BB681A43064B1343BB60044A8C
:100D5800BB68D36000BF1437BD465DF8047B70479D
:100D680000ED00E00000FA0580B400AF044BDB683A
:100D78001B0A03F007031846BD465DF8047B70475D
:100D880000ED00E080B483B000AF0346FB80B7F904
:100D98000630002B0BDBFB8803F01F020749B7F96D
:100DA80006305B09012000FA02F241F8232000BF57
:100DB8000C37BD465DF8047B704700BF00E100E0DA
:100DC80080B483B000AF03463960FB80B7F90630C2
:100DD800002B0ADB3B68DAB20C49B7F9063012017E
:100DE800D2B20B4483F800230AE03B68DAB2084920
:100DF800FB8803F00F03043B1201D2B20B441A76AE
:100E080000BF0C37BD465DF8047B704700E100E089
:100E180000ED00E080B489B000AFF860B9607A6096
:100E2800FB6803F00703FB61FB69C3F10703042BAD
:100E380028BF0423BB61FB690433062B02D9FB6975
:100E4800033B00E000237B614FF0FF32BB6902FAED
:100E580003F3DA43BB681A407B699A404FF0FF31CD
:100E68007B6901FA03F3D9437B680B4013431846A7
:100E78002437BD465DF8047B7047000080B582B01A
:100E880000AF78607B68013BB3F1807F01D3012319
:100E98000FE00A4A7B68013B53600F214FF0FF3097
:100EA800FFF78EFF054B00229A60044B07221A6059
:100EB800002318460837BD4680BD00BF10E000E09B
:100EC80080B582B000AF78607868FFF729FF00BF6F
:100ED8000837BD4680BD80B586B000AF0346B9600F
:100EE8007A60FB81FFF740FF78617A68B9687869B2
:100EF800FFF790FF0246B7F90E3011461846FFF784
:100F08005FFF00BF1837BD4680BD80B582B000AF17
:100F18000346FB80B7F906301846FFF733FF00BFDA
:100F28000837BD4680BD80B582B000AF786078686C
:100F3800FFF7A4FF034618460837BD4680BD0000EA
:100F480080B400AFBFF35F8F00BF074B5B6A064AF0
:100F580023F480335362054B00225A6000BFBD461C
:100F68005DF8047B704700BF00ED00E090ED00E005
:100F780080B483B000AF78600B4A7B6843F001030C
:100F880053600A4B5B6A094A43F480335362BFF3E8
:100F98004F8F00BFBFF36F8F00BF00BF0C37BD4638
:100FA8005DF8047B704700BF90ED00E000ED00E0C5
:100FB80080B483B000AF78607B685A781B4B9A6026
:100FC8001A4B1B69194A23F001031361174A7B68FE
:100FD8005B68D3607B681B7B1A077B68DB7A1B0620
:100FE8001A437B689B7ADB041A437B685B7B9B0410
:100FF8001A437B689B7B5B041A437B68DB7B1B047F
:101008001A437B685B7A1B021A437B681B7A5B0076
:1010180013437A6812781146044A0B43136100BFE0
:101028000C37BD465DF8047B704700BF90ED00E0CB
:1010380080B586B000AF7860FFF736FE38617B6810
:10104800002B01D10123DCE27B6893F83530DBB259
:10105800022B08D07B6880225A657B68002283F8BF
:1010680034200123CDE27B681B68764A93424AD03C
:101078007B681B68744A934245D07B681B68734A37
:10108800934240D07B681B68714A93423BD07B688F
:101098001B68704A934236D07B681B686E4A93423D
:1010A80031D07B681B686D4A93422CD07B681B68E3
:1010B8006B4A934227D07B681B686A4A934222D0C6
:1010C8007B681B68684A93421DD07B681B68674A27
:1010D800934218D07B681B68654A934213D07B689B
:1010E8001B68644A93420ED07B681B68624A93422D
:1010F80009D07B681B68614A934204D07B681B68EF
:101108005F4A934201D1012300E00023002B13D052
:101118007B681B681A687B681B6822F01E021A60CD
:101128007B681B685A697B681B6822F080025A61D9
:101138007B681B687B610AE07B681B681A687B68B0
:101148001B6822F00E021A607B681B687B617B6853
:101158001B683C4A934272D07B681B683A4A9342A8
:101168006DD07B681B68394A934268D07B681B68DE
:10117800374A934263D07B681B68364A93425ED0F5
:101188007B681B68344A934259D07B681B68334A92
:10119800934254D07B681B68314A93424FD07B6896
:1011A8001B68304A93424AD07B681B682E4A934298
:1011B80045D07B681B682D4A934240D07B681B68EA
:1011C8002B4A93423BD07B681B682A4A934236D00D
:1011D8007B681B68284A934231D07B681B68274A82
:1011E80093422CD07B681B68254A934227D07B68A2
:1011F8001B68244A934222D07B681B68224A934288
:101208001DD07B681B68214A934218D07B681B68F5
:101218001F4A934213D07B681B681E4A93420ED024
:101228007B681B681C4A934209D07B681B681B4A71
:10123800934204D07B681B68194A934232D1012338
:1012480031E000BF10000240280002404000024088
:10125800580002407000024088000240A00002408E
:10126800B800024010040240280402404004024032
:10127800580402407004024088040240A00402405E
:10128800B8040240085402581C54025830540258FA
:1012980044540258585402586C5402588054025806
:1012A800945402580023002B07D07B681B6E1A68E1
:1012B8007B681B6E22F480721A607B681B686D4A1B
:1012C80093424AD07B681B686B4A934245D07B683F
:1012D8001B686A4A934240D07B681B68684A9342FD
:1012E8003BD07B681B68674A934236D07B681B6893
:1012F800654A934231D07B681B68644A93422CD07C
:101308007B681B68624A934227D07B681B68614AE6
:10131800934222D07B681B685F4A93421DD07B684A
:101328001B685E4A934218D07B681B685C4A9342EC
:1013380013D07B681B685B4A93420ED07B681B689E
:10134800594A934209D07B681B68584A934204D093
:101358007B681B68564A934208D17B681B681A68E9
:101368007B681B6822F001021A6007E07B681B6833
:101378001A687B681B6822F001021A6013E0FFF705
:1013880093FC02463B69D31A052B0CD97B682022B3
:101398005A657B68032283F835207B68002283F82E
:1013A800342001232DE17B691B6803F00103002B26
:1013B800E5D17B681B682F4A93424AD07B681B683B
:1013C8002D4A934245D07B681B682C4A934240D0F3
:1013D8007B681B682A4A93423BD07B681B68294A72
:1013E800934236D07B681B68274A934231D07B688A
:1013F8001B68264A93422CD07B681B68244A934278
:1014080027D07B681B68234A934222D07B681B68DD
:10141800214A93421DD07B681B68204A934218D00A
:101428007B681B681E4A934213D07B681B681D4A61
:1014380093420ED07B681B681B4A934209D07B6895
:101448001B681A4A934204D07B681B68184A934267
:1014580001D1012300E00023002B2BD07B689B6D7A
:10146800BB607B68DB6D03F01F033F229A40BB68BB
:101478009A602AE010000240280002404000024022
:10148800580002407000024088000240A00002405C
:10149800B800024010040240280402404004024000
:1014A800580402407004024088040240A00402402C
:1014B800B80402407B689B6DFB607B68DB6D03F0C2
:1014C8001F0301229A40FB685A607B681B684F4AD9
:1014D800934272D07B681B684D4A93426DD07B68FB
:1014E8001B684C4A934268D07B681B684A4A9342FF
:1014F80063D07B681B68494A93425ED07B681B684F
:10150800474A934259D07B681B68464A934254D055
:101518007B681B68444A93424FD07B681B68434AE8
:1015280093424AD07B681B68414A934245D07B6806
:101538001B68404A934240D07B681B683E4A9342EE
:101548003BD07B681B683D4A934236D07B681B685A
:101558003B4A934231D07B681B683A4A93422CD06D
:101568007B681B68384A934227D07B681B68374AD8
:10157800934222D07B681B68354A93421DD07B6812
:101588001B68344A934218D07B681B68324A9342DE
:1015980013D07B681B68314A93420ED07B681B6866
:1015A8002F4A934209D07B681B682E4A934204D085
:1015B8007B681B682C4A934201D1012300E0002379
:1015C800002B15D07B685B6E7A68926E5A607B68D8
:1015D800DB6E002B0CD07B68DB6E1A687B68DB6ED9
:1015E80022F480721A607B681B6F7A68526F5A60A7
:1015F8007B68012283F835207B68002283F8342039
:10160800002318461837BD4680BD00BF10000240B1
:10161800280002404000024058000240700002408A
:1016280088000240A0000240B800024010040240B6
:10163800280402404004024058040240700402405A
:1016480088040240A0040240B8040240085402582A
:101658001C540258305402584454025858540258E2
:101668006C540258805402589454025880B584B07F
:1016780000AF78607B68002B01D1012337E27B68DB
:1016880093F83530DBB2022B04D07B6880225A6590
:1016980001232CE27B681B685C4A93424AD07B6832
:1016A8001B685B4A934245D07B681B68594A934242
:1016B80040D07B681B68584A93423BD07B681B68C4
:1016C800564A934236D07B681B68554A934231D0BC
:1016D8007B681B68534A93422CD07B681B68524A2C
:1016E800934227D07B681B68504A934222D07B687C
:1016F8001B684F4A93421DD07B681B684D4A934232
:1017080018D07B681B684C4A934213D07B681B68CF
:101718004A4A93420ED07B681B68494A934209D0D3
:101728007B681B68474A934204D07B681B68464A1B
:10173800934201D1012300E00023002B00F08680B2
:101748007B68042283F835207B681B682F4A934204
:101758004AD07B681B682E4A934245D07B681B6839
:101768002C4A934240D07B681B682B4A93423BD05B
:101778007B681B68294A934236D07B681B68284AD5
:10178800934231D07B681B68264A93422CD07B68F1
:101798001B68254A934227D07B681B68234A9342DB
:1017A80022D07B681B68224A93421DD07B681B6845
:1017B800204A934218D07B681B681F4A934213D073
:1017C8007B681B681D4A93420ED07B681B681C4AC5
:1017D800934209D07B681B681A4A934204D07B68FD
:1017E8001B68194A934208D17B681B681A687B6892
:1017F8001B6822F001021A6078E17B681B681A688E
:101808007B681B6822F001021A606FE11000024039
:101818002800024040000240580002407000024088
:1018280088000240A0000240B800024010040240B4
:101838002804024040040240580402407004024058
:1018480088040240A0040240B80402407B681B6878
:101858001A687B681B6822F00E021A607B681B6896
:101868006C4A93424AD07B681B686B4A934245D0C6
:101878007B681B68694A934240D07B681B68684A4A
:1018880093423BD07B681B68664A934236D07B689C
:101898001B68654A934231D07B681B68634A934250
:1018A8002CD07B681B68624A934227D07B681B68F0
:1018B800604A934222D07B681B685F4A93421DD0DE
:1018C8007B681B685D4A934218D07B681B685C4A3A
:1018D800934213D07B681B685A4A93420ED07B68A8
:1018E8001B68594A934209D07B681B68574A934240
:1018F80004D07B681B68564A934208D17B681B68F2
:101908001A687B681B6822F001021A6007E07B688E
:101918001B681A687B681B6822F001021A607B68E2
:101928001B683C4A934272D07B681B683A4A9342D0
:101938006DD07B681B68394A934268D07B681B6806
:10194800374A934263D07B681B68364A93425ED01D
:101958007B681B68344A934259D07B681B68334ABA
:10196800934254D07B681B68314A93424FD07B68BE
:101978001B68304A93424AD07B681B682E4A9342C0
:1019880045D07B681B682D4A934240D07B681B6812
:101998002B4A93423BD07B681B682A4A934236D035
:1019A8007B681B68284A934231D07B681B68274AAA
:1019B80093422CD07B681B68254A934227D07B68CA
:1019C8001B68244A934222D07B681B68224A9342B0
:1019D8001DD07B681B68214A934218D07B681B681E
:1019E8001F4A934213D07B681B681E4A93420ED04D
:1019F8007B681B681C4A934209D07B681B681B4A9A
:101A0800934204D07B681B68194A934232D1012360
:101A180031E000BF100002402800024040000240B0
:101A2800580002407000024088000240A0000240B6
:101A3800B80002401004024028040240400402405A
:101A4800580402407004024088040240A004024086
:101A5800B8040240085402581C5402583054025822
:101A680044540258585402586C540258805402582E
:101A7800945402580023002B28D07B681B6E1A68E8
:101A88007B681B6E22F480721A607B689B6DFB601A
:101A98007B68DB6D03F01F0301229A40FB685A60E4
:101AA8007B685B6E7A68926E5A607B68DB6E002B8F
:101AB8000CD07B68DB6E1A687B68DB6E22F4807260
:101AC8001A607B681B6F7A68526F5A607B680122C4
:101AD80083F835207B68002283F834207B681B6DEF
:101AE800002B03D07B681B6D786898470023184645
:101AF8001037BD4680BD00BF80B489B000AF7860A4
:101B080039600023FB61894B7B6194E13B681A686B
:101B18000121FB6901FA03F313403B613B69002B88
:101B280000F086813B685B6803F00303012B05D056
:101B38003B685B6803F00303022B30D17B689B682A
:101B4800BB61FB695B00032202FA03F3DB43BA695A
:101B58001340BB613B68DA68FB695B0002FA03F378
:101B6800BA691343BB617B68BA699A607B685B6832
:101B7800BB610122FB6902FA03F3DB43BA69134034
:101B8800BB613B685B681B0903F00102FB6902FA51
:101B980003F3BA691343BB617B68BA695A603B684F
:101BA8005B6803F00303032B17D07B68DB68BB611A
:101BB800FB695B00032202FA03F3DB43BA691340B3
:101BC800BB613B689A68FB695B0002FA03F3BA6978
:101BD8001343BB617B68BA69DA603B685B6803F0F2
:101BE8000303022B23D1FB69DA087B68083253F818
:101BF8002230BB61FB6903F007039B000F2202FA46
:101C080003F3DB43BA691340BB613B681A69FB699C
:101C180003F007039B0002FA03F3BA691343BB619D
:101C2800FB69DA087B680832B96943F822107B68D7
:101C38001B68BB61FB695B00032202FA03F3DB4309
:101C4800BA691340BB613B685B6803F00302FB6938
:101C58005B0002FA03F3BA691343BB617B68BA6994
:101C68001A603B685B6803F44033002B00F0E080A7
:101C78002F4BD3F8F4302E4A43F00203C2F8F43065
:101C88002B4BD3F8F43003F00203FB60FB68294ABE
:101C9800FB699B08023352F82330BB61FB6903F0F0
:101CA80003039B000F2202FA03F3DB43BA691340D4
:101CB800BB617B68204A934252D07B681F4A93429B
:101CC80031D07B681E4A93422BD07B681D4A9342D1
:101CD80025D07B681C4A93421FD07B681B4A9342DD
:101CE80019D07B681A4A934213D07B68194A9342E9
:101CF8000DD07B68184A934207D07B68174A9342F5
:101D080001D109232DE00A232BE0082329E007232A
:101D180027E0062325E0052323E0042321E003230D
:101D28001FE002231DE001231BE000BF80000058D4
:101D380000440258000400580000025800040258E9
:101D480000080258000C02580010025800140258EB
:101D580000180258001C025800200258002402589B
:101D68000023FA6902F0030292009340BA69134310
:101D7800BB613849FB699B080233BA6941F82320E3
:101D88004FF0B0431B68BB613B69DB43BA69134042
:101D9800BB613B685B6803F48013002B03D0BA690E
:101DA8003B691343BB614FF0B042BB6913604FF00E
:101DB800B0435B68BB613B69DB43BA691340BB61F5
:101DC8003B685B6803F40013002B03D0BA693B69D6
:101DD8001343BB614FF0B042BB6953607B695B68DA
:101DE800BB613B69DB43BA691340BB613B685B6815
:101DF80003F40033002B03D0BA693B691343BB617A
:101E08007B69BA695A607B691B68BB613B69DB43C4
:101E1800BA691340BB613B685B6803F48033002BED
:101E280003D0BA693B691343BB617B69BA691A601D
:101E3800FB690133FB613B681A68FB6922FA03F30B
:101E4800002B7FF463AE00BF00BF2437BD465DF8AA
:101E5800047B70470004005880B584B000AF7860F8
:101E6800194BDB6803F00403042B0AD0164BDB681C
:101E780003F007037A689A4201D001231FE0002388
:101E88001DE0114BDB6823F007020F497B68134301
:101E9800CB60FEF709FFF86009E0FEF705FF024690
:101EA800FB68D31AB3F57A7F01D9012307E0064B03
:101EB8005B6803F40053B3F5005FEED100231846C6
:101EC8001037BD4680BD00BF0048025880B58CB0B1
:101ED80000AF78607B68002B02D1012300F048BC7A
:101EE8007B681B6803F00103002B00F08880994B86
:101EF8001B6903F03803FB62964B9B6ABB62FB6A63
:101F0800102B07D0FB6A182B11D1BB6A03F003030F
:101F1800022B0CD18F4B1B6803F40033002B6DD0C0
:101F28007B685B68002B69D1012300F021BC7B68CA
:101F38005B68B3F5803F06D1864B1B68854A43F43E
:101F4800803313602EE07B685B68002B0CD1814BDB
:101F58001B68804A23F4803313607E4B1B687D4ADC
:101F680023F4802313601DE07B685B68B3F5A02F22
:101F78000CD1784B1B68774A43F480231360754B68
:101F88001B68744A43F4803313600BE0714B1B6881
:101F9800704A23F4803313606E4B1B686D4A23F438
:101FA800802313607B685B68002B13D0FEF77CFEF0
:101FB800786208E0FEF778FE02467B6AD31A642B43
:101FC80001D90323D4E3634B1B6803F40033002BCC
:101FD800F0D014E0FEF768FE786208E0FEF764FED1
:101FE80002467B6AD31A642B01D90323C0E3594BF9
:101FF8001B6803F40033002BF0D100E000BF7B68BE
:102008001B6803F00203002B00F0CA80514B1B69C8
:1020180003F038033B624F4B9B6AFB613B6A002B22
:1020280007D03B6A182B56D1FB6903F00303002B3A
:1020380051D1484B1B6803F00403002B05D07B6883
:10204800DB68002B01D1012392E3424B1B6823F08C
:1020580019027B68DB683F4913430B60FEF724FED7
:10206800786208E0FEF720FE02467B6AD31A022B4C
:1020780001D903237CE3374B1B6803F00403002BCF
:10208800F0D0FEF741FE034641F20302934217D80F
:102098007B681B69402B08D12E4B5B6823F47C338B
:1020A8002C4A43F4003353607AE02A4B5B6823F4EC
:1020B8007C327B681B691B03264913434B606FE026
:1020C800244B5B6823F0FE427B681B691B06214991
:1020D80013434B6064E07B68DB68002B47D01D4BE3
:1020E8001B6823F019027B68DB681A4913430B60ED
:1020F800FEF7DAFD786208E0FEF7D6FD02467B6A55
:10210800D31A022B01D9032332E3124B1B6803F0C5
:102118000403002BF0D0FEF7F7FD034641F203025B
:10212800934219D87B681B69402B08D1094B5B681F
:1021380023F47C33074A43F40033536030E0054B03
:102148005B6823F47C327B681B691B0301491343DA
:102158004B6025E0004402589A4B5B6823F0FE422E
:102168007B681B691B06974913434B6018E0954B26
:102178001B68944A23F001031360FEF795FD78620B
:1021880008E0FEF791FD02467B6AD31A022B01D9BB
:102198000323EDE28B4B1B6803F00403002BF0D103
:1021A8007B681B6803F01003002B00F0A980854BA7
:1021B8001B6903F03803BB61824B9B6A7B61BB6977
:1021C800082B07D0BB69182B3AD17B6903F00303AE
:1021D800012B35D17B4B1B6803F48073002B05D092
:1021E8007B68DB69802B01D00123C1E2FEF78CFDFF
:1021F800034641F20302934217D87B681B6A202BDF
:1022080008D1704B5B6823F0F8436E4A43F0804373
:10221800536075E06B4B5B6823F0F8427B681B6A80
:102228009B06684913434B606AE0664BDB6823F002
:102238007C527B681B6A1B0662491343CB605FE0D4
:102248007B68DB69002B42D05E4B1B685D4A43F01C
:1022580080031360FEF728FD786208E0FEF724FD8E
:1022680002467B6AD31A022B01D9032380E2554B1D
:102278001B6803F48073002BF0D0FEF745FD03467E
:1022880041F20302934217D87B681B6A202B08D1BE
:102298004C4B5B6823F0F8434A4A43F08043536051
:1022A8002EE0484B5B6823F0F8427B681B6A9B066C
:1022B800444913434B6023E0424BDB6823F07C52D4
:1022C8007B681B6A1B063F491343CB6018E03D4BF4
:1022D8001B683C4A23F080031360FEF7E5FC786234
:1022E80008E0FEF7E1FC02467B6AD31A022B01D90B
:1022F80003233DE2334B1B6803F48073002BF0D1BA
:102308007B681B6803F00803002B36D07B685B6989
:10231800002B19D02B4B5B6F2A4A43F001035367FC
:10232800FEF7C2FC786208E0FEF7BEFC02467B6A54
:10233800D31A022B01D903231AE2224B5B6F03F055
:102348000203002BF0D018E01E4B5B6F1D4A23F0F0
:1023580001035367FEF7A8FC786208E0FEF7A4FCC7
:1023680002467B6AD31A022B01D9032300E2154BDC
:102378005B6F03F00203002BF0D17B681B6803F04E
:102388002003002B39D07B689B69002B1CD00D4B98
:102398001B680C4A43F480531360FEF785FC78628F
:1023A80008E0FEF781FC02467B6AD31A022B01D9AA
:1023B8000323DDE1034B1B6803F40053002BF0D02B
:1023C8001BE000BF004402589B4B1B689A4A23F449
:1023D80080531360FEF768FC786208E0FEF764FC3F
:1023E80002467B6AD31A022B01D90323C0E1924B20
:1023F8001B6803F40053002BF0D17B681B6803F0C3
:102408000403002B00F081808C4B1B688B4A43F43B
:1024180080731360FEF748FC786208E0FEF744FC1E
:1024280002467B6AD31A642B01D90323A0E1834BAC
:102438001B6803F48073002BF0D07B689B68012B2A
:1024480006D17D4B1B6F7C4A43F0010313672DE0D7
:102458007B689B68002B0CD1774B1B6F764A23F067
:1024680001031367744B1B6F734A23F0040313674C
:102478001CE07B689B68052B0CD16F4B1B6F6E4A69
:1024880043F0040313676C4B1B6F6B4A43F0010363
:1024980013670BE0684B1B6F674A23F00103136750
:1024A800654B1B6F644A23F0040313677B689B68C2
:1024B800002B15D0FEF7F8FB78620AE0FEF7F4FB74
:1024C80002467B6AD31A41F28832934201D9032328
:1024D8004EE1594B1B6F03F00203002BEED014E0C2
:1024E800FEF7E2FB78620AE0FEF7DEFB02467B6A53
:1024F800D31A41F28832934201D9032338E14E4B73
:102508001B6F03F00203002BEED17B685B6A002B84
:1025180000F02D81484B1B6903F03803182B00F09D
:10252800BD807B685B6A022B40F09E80424B1B6833
:10253800414A23F080731360FEF7B6FB786208E027
:10254800FEF7B2FB02467B6AD31A022B01D903239A
:102558000EE1394B1B6803F00073002BF0D1364BAA
:102568009A6A374B13407A68916A7A68D26A12017C
:102578000A43314913438B627B681B6B013BC3F3EE
:1025880008027B685B6B013B5B029BB21A437B686A
:102598009B6B013B1B0403F4FE031A437B68DB6B54
:1025A800013B1B0603F0FE43234913430B63224BF5
:1025B800DB6A214A23F00103D3621F4B5A6B214B7C
:1025C80013407A68926CD2001B4913434B631A4B31
:1025D800DB6A23F00C027B681B6C17491343CB6240
:1025E800154BDB6A23F002027B685B6C12491343CC
:1025F800CB62114BDB6A104A43F48033D3620E4B33
:10260800DB6A0D4A43F40033D3620B4BDB6A0A4A98
:1026180043F48023D362084BDB6A074A43F0010383
:10262800D362054B1B68044A43F080731360FEF7BE
:102638003BFB786211E000BF004402580048025892
:102648000CFCFFFF0700FFFFFEF72EFB02467B6A2C
:10265800D31A022B01D903238AE0474B1B6803F0E6
:102668000073002BF0D082E0434B1B68424A23F0F2
:1026780080731360FEF718FB786208E0FEF714FB1E
:1026880002467B6AD31A022B01D9032370E03A4B26
:102698001B6803F00073002BF0D168E0364B9B6A8F
:1026A8003B61354B1B6BFB607B685B6A012B31D050
:1026B8003B6903F003027B689B6A9A422AD13B6913
:1026C8001B0903F03F027B68DB6A9A4222D1FB6850
:1026D800C3F308027B681B6B013B9A421AD1FB6863
:1026E8005B0A03F07F027B685B6B013B9A4211D166
:1026F800FB681B0C03F07F027B689B6B013B9A42D3
:1027080008D1FB681B0E03F07F027B68DB6B013B83
:102718009A4201D001232BE0174B5B6BDB08C3F314
:102728000C033B617B689B6C3A699A421FD0124B41
:10273800DB6A114A23F00103D362FEF7B5FA786227
:1027480000BFFEF7B1FA02467B6A9342F9D00A4B02
:102758005A6B0A4B13407A68926CD20006491343AD
:102768004B63054BDB6A044A43F00103D362002341
:1027780018463037BD4680BD004402580700FFFFA9
:1027880080B586B000AF786039607B68002B01D1D6
:1027980001239CE18A4B1B6803F00F033A689A42B5
:1027A80010D9874B1B6823F00F0285493B681343F8
:1027B8000B60834B1B6803F00F033A689A4201D001
:1027C800012384E17B681B6803F00403002B10D00D
:1027D8007B681A697B4B9B6903F070039A4208D99E
:1027E800784B9B6923F070027B681B69754913431A
:1027F8008B617B681B6803F00803002B10D07B6893
:102808005A69704BDB6903F070039A4208D96D4B23
:10281800DB6923F070027B685B696A491343CB610B
:102828007B681B6803F01003002B10D07B689A6943
:10283800644BDB6903F4E0639A4208D9614BDB69B6
:1028480023F4E0627B689B695E491343CB617B6834
:102858001B6803F02003002B10D07B68DA69594B02
:102868001B6A03F070039A4208D9564B1B6A23F07F
:1028780070027B68DB69534913430B627B681B68F2
:1028880003F00203002B10D07B68DA684D4B9B697C
:1028980003F00F039A4208D94A4B9B6923F00F02B1
:1028A8007B68DB68474913438B617B681B6803F0CF
:1028B8000103002B55D0434B9B6923F470627B685E
:1028C8009B68404913438B617B685B68022B07D187
:1028D8003C4B1B6803F40033002B21D10123F6E0A5
:1028E8007B685B68032B07D1364B1B6803F00073CA
:1028F800002B15D10123EAE07B685B68012B07D127
:10290800304B1B6803F48073002B09D10123DEE0F0
:102918002C4B1B6803F00403002B01D10123D6E0E4
:10292800284B1B6923F007027B685B682549134322
:102938000B61FEF7B9F978610AE0FEF7B5F90246CE
:102948007B69D31A41F28832934201D90323BEE04E
:102958001C4B1B6903F038027B685B68DB009A42FA
:10296800EBD17B681B6803F00203002B10D07B6857
:10297800DA68144B9B6903F00F039A4208D2114B93
:102988009B6923F00F027B68DB680E4913438B6158
:102998000B4B1B6803F00F033A689A4214D2084B9A
:1029A8001B6823F00F0206493B6813430B60044B76
:1029B8001B6803F00F033A689A4205D0012386E0AA
:1029C80000200052004402587B681B6803F004038F
:1029D800002B10D07B681A693F4B9B6903F070038A
:1029E8009A4208D23C4B9B6923F070027B681B69B2
:1029F800394913438B617B681B6803F00803002B7C
:102A080010D07B685A69344BDB6903F070039A4233
:102A180008D2314BDB6923F070027B685B692E4971
:102A28001343CB617B681B6803F01003002B10D0A5
:102A38007B689A69284BDB6903F4E0639A4208D201
:102A4800254BDB6923F4E0627B689B6922491343C9
:102A5800CB617B681B6803F02003002B10D07B68D8
:102A6800DA691D4B1B6A03F070039A4208D21A4BAD
:102A78001B6A23F070027B68DB69174913430B62FA
:102A880000F034F80246144B9B691B0A03F00F034D
:102A98001249CB5C03F01F0322FA03F33B610E4B90
:102AA8009B6903F00F030D4AD35C03F01F033A69D7
:102AB80022FA03F30A4A13600A4A3B6913600A4B75
:102AC8001B681846FEF7A6F80346FB73FB7B1846FF
:102AD8001837BD4680BD00BF00440258F0660008A4
:102AE80004000024000000240800002480B489B0F9
:102AF80000AFB34B1B6903F03803182B00F2558164
:102B080001A252F823F000BF752B0008B32D00086E
:102B1800B32D0008B32D0008B32D0008B32D00080D
:102B2800B32D0008B32D00089B2B0008B32D000817
:102B3800B32D0008B32D0008B32D0008B32D0008ED
:102B4800B32D0008B32D0008A12B0008B32D0008F1
:102B5800B32D0008B32D0008B32D0008B32D0008CD
:102B6800B32D0008B32D0008A72B0008944B1B6851
:102B780003F02003002B09D0914B1B68DB0803F0FE
:102B88000303904A22FA03F3BB6111E18D4BBB6149
:102B98000EE18D4BBB610BE18C4BBB6108E1884BAF
:102BA8009B6A03F003037B61854B9B6A1B0903F057
:102BB8003F033B61824BDB6A03F00103FB60804B00
:102BC8005B6BDB08C3F30C03FA6802FB03F307EE45
:102BD800903AF8EE677AC7ED027A3B69002B00F06D
:102BE800E1807B69022B00F083807B69022B00F275
:102BF800A1807B69002B03D07B69012B56D099E01B
:102C08006F4B1B6803F02003002B2DD06C4B1B6807
:102C1800DB0803F003036B4A22FA03F37B607B684B
:102C280007EE903AF8EE676A3B6907EE903AF8EEDD
:102C3800677A86EEA77A624B1B6BC3F3080307EE2D
:102C4800903AF8EE676A97ED026ADFED615AC6EED0
:102C5800257A76EEA77AF7EE006A77EEA67A67EE1F
:102C6800277AC7ED077A87E03B6907EE903AF8EED6
:102C7800677ADFED586A86EEA77A514B1B6BC3F370
:102C8800080307EE903AF8EE676A97ED026ADFEDFF
:102C9800505AC6EE257A76EEA77AF7EE006A77EEF6
:102CA800A67A67EE277AC7ED077A65E03B6907EEF3
:102CB800903AF8EE677ADFED486A86EEA77A404BDD
:102CC8001B6BC3F3080307EE903AF8EE676A97EDBB
:102CD800026ADFED3F5AC6EE257A76EEA77AF7EE5E
:102CE800006A77EEA67A67EE277AC7ED077A43E09F
:102CF8003B6907EE903AF8EE677ADFED386A86EEC0
:102D0800A77A2F4B1B6BC3F3080307EE903AF8EE34
:102D1800676A97ED026ADFED2E5AC6EE257A76EEDF
:102D2800A77AF7EE006A77EEA67A67EE277AC7EDFC
:102D3800077A21E03B6907EE903AF8EE677ADFED13
:102D4800266A86EEA77A1E4B1B6BC3F3080307EEB1
:102D5800903AF8EE676A97ED026ADFED1D5AC6EE03
:102D6800257A76EEA77AF7EE006A77EEA67A67EE0E
:102D7800277AC7ED077A00BF114B1B6B5B0A03F07C
:102D88007F0301333B603B6807EE903AB8EE677A01
:102D9800D7ED076AC6EE877AFCEEE77A17EE903A27
:102DA800BB6105E00023BB6102E0074BBB6100BFCC
:102DB800BB6918462437BD465DF8047B704700BFE1
:102DC800004402580090D00300093D0040787D017E
:102DD800000000460024744C0024744A20BCBE4BFA
:102DE80080B582B000AFFFF781FE0246104B9B69A9
:102DF8001B0A03F00F030F49CB5C03F01F0322FAF1
:102E080003F37B600A4B9B6903F00F03094AD35C09
:102E180003F01F037A6822FA03F3074A1360074A8C
:102E28007B681360044B1B6818460837BD4680BD95
:102E380000440258F0660008040000240000002442
:102E480080B500AFFFF7CCFF0246064BDB691B09D4
:102E580003F007030449CB5C03F01F0322FA03F3D2
:102E6800184680BD00440258F066000880B500AFDF
:102E7800FFF7B6FF0246064BDB691B0A03F00703A0
:102E88000449CB5C03F01F0322FA03F3184680BD04
:102E980000440258F06600082DE9B04FCAB000AFF0
:102EA800C7F81401002387F82731002387F8263153
:102EB800D7F81431D3E9002302F00064002554EA5E
:102EC800050349D0D7F814319B6EB3F5401F2FD0B6
:102ED800B3F5401F28D8B3F5001F1AD0B3F5001F6B
:102EE80022D8002B03D0B3F5801F07D01CE0B84BC5
:102EF800DB6AB74A43F40033D3621AE0D7F81431D7
:102F080008330221184601F08FFC034687F8273161
:102F18000FE0D7F8143128330221184601F036FDA6
:102F2800034687F8273104E0012387F8273100E0BA
:102F380000BF97F82731002B0AD1A54B1B6D23F44E
:102F48004011D7F814319B6EA14A0B43136503E077
:102F580097F8273187F82631D7F81431D3E90023B9
:102F680002F480784FF0000958EA090347D0D7F8EF
:102F780014319B6D042B2AD801A252F823F000BF0C
:102F88009D2F0008AB2F0008C12F0008DF2F000875
:102F9800DF2F00088E4BDB6A8D4A43F40033D3627F
:102FA8001AE0D7F8143108330021184601F03CFC28
:102FB800034687F827310FE0D7F81431283300216A
:102FC800184601F0E3FC034687F8273104E00123A3
:102FD80087F8273100E000BF97F82731002B0AD186
:102FE8007B4B1B6D23F00701D7F814319B6D784A92
:102FF8000B43136503E097F8273187F82631D7F894
:103008001431D3E9002302F4007A4FF0000B5AEA96
:103018000B034CD0D7F81431DB6DB3F5807F30D07B
:10302800B3F5807F29D8C02B2DD0C02B25D8802B75
:1030380018D0802B21D8002B02D0402B07D01CE0C1
:10304800634BDB6A624A43F40033D3621CE0D7F86F
:10305800143108330021184601F0E6FB034687F8CF
:10306800273111E0D7F8143128330021184601F030
:103078008DFC034687F8273106E0012387F82731BE
:1030880002E000BF00E000BF97F82731002B0AD10B
:103098004F4B1B6D23F4E071D7F81431DB6D4C4AAC
:1030A8000B43136503E097F8273187F82631D7F8E3
:1030B8001431D3E9002302F48063C7F808310023F0
:1030C800C7F80C31D7E942120B46134353D0D7F84F
:1030D8001431D3F8A830B3F5000F35D0B3F5000F8D
:1030E8002ED8B3F5C00F31D0B3F5C00F28D8B3F53B
:1030F800800F1AD0B3F5800F22D8002B03D0B3F578
:10310800001F07D01CE0324BDB6A314A43F400331E
:10311800D3621CE0D7F8143108330021184601F0B7
:1031280083FB034687F8273111E0D7F81431283399
:103138000021184601F02AFC034687F8273106E0EB
:10314800012387F8273102E000BF00E000BF97F8AD
:103158002731002B0BD11E4B9B6D23F46001D7F850
:103168001431D3F8A8301A4A0B43936503E097F853
:10317800273187F82631D7F81431D3E9002302F430
:103188000063C7F800310023C7F80431D7E94012BB
:103198000B46134356D0D7F81431D3F8AC30B3F1FB
:1031A800806F38D0B3F1806F31D8B3F1407F34D01D
:1031B800B3F1407F2BD8B3F1007F1DD0B3F1007F6E
:1031C80025D8002B06D0B3F1807F0AD01FE000BFBE
:1031D80000440258A24BDB6AA14A43F40033D3628D
:1031E8001CE0D7F8143108330021184601F01CFB05
:1031F800034687F8273111E0D7F814312833002126
:10320800184601F0C3FB034687F8273106E001237F
:1032180087F8273102E000BF00E000BF97F82731A8
:10322800002B0BD18E4B9B6D23F0E061D7F8143146
:10323800D3F8AC308A4A0B43936503E097F82731FB
:1032480087F82631D7F81431D3E9002302F0007348
:10325800C7F8F8300023C7F8FC30D7E93E120B4610
:1032680013433AD0D7F81431DB6C302B1FD0302BF6
:1032780019D8202B0CD0202B15D8002B19D0102BA7
:1032880011D1774BDB6A764A43F40033D36211E0FD
:10329800D7F8143108330221184601F0C5FA03465D
:1032A80087F8273106E0012387F8273102E000BFBD
:1032B80000E000BF97F82731002B0AD1684BDB6C80
:1032C80023F03001D7F81431DB6C654A0B43D36423
:1032D80003E097F8273187F82631D7F81431D3E976
:1032E800002302F48053C7F8F0300023C7F8F43005
:1032F800D7E93C120B46134351D0D7F814311B6E53
:10330800B3F5804F35D0B3F5804F2ED8B3F5405F75
:1033180031D0B3F5405F28D8B3F5005F1AD0B3F5C4
:10332800005F22D8002B03D0B3F5805F07D01CE0E4
:103338004B4BDB6A4A4A43F40033D3621CE0D7F8AC
:10334800143108330021184601F06EFA034687F855
:10335800273111E0D7F8143128330021184601F03D
:1033680015FB034687F8273106E0012387F8273144
:1033780002E000BF00E000BF97F82731002B0AD118
:10338800374B1B6D23F4E041D7F814311B6E344AD8
:103398000B43136503E097F8273187F82631D7F8F0
:1033A8001431D3E9002302F40053C7F8E8300023AE
:1033B800C7F8EC30D7E93A120B46134356D0D7F882
:1033C80014315B6EB3F5A02F33D0B3F5A02F2CD8F2
:1033D800B3F5802F2FD0B3F5802F26D8B3F5403F13
:1033E8002BD0B3F5403F20D8B3F5003F12D0B3F54A
:1033F800003F1AD8002B22D0B3F5803F15D1D7F85B
:10340800143108330121184601F00EFA034687F8F3
:10341800273115E0D7F8143128330121184601F077
:10342800B5FA034687F827310AE0012387F82731E0
:1034380006E000BF04E000BF02E000BF00E000BFFC
:1034480097F82731002B0DD1054B1B6D23F4E02194
:10345800D7F814315B6E024A0B43136506E000BFD0
:103468000044025897F8273187F82631D7F81431E5
:10347800D3E9002302F48043C7F8E0300023C7F8FB
:10348800E430D7E938120B46134355D0D7F8143136
:10349800D3F8B030B3F1A04F33D0B3F1A04F2CD84C
:1034A800B3F1804F2FD0B3F1804F26D8B3F1405FEE
:1034B8002BD0B3F1405F20D8B3F1005F12D0B3F145
:1034C800005F1AD8002B22D0B3F1805F15D1D7F84E
:1034D800143108330121184601F0A6F9034687F88C
:1034E800273115E0D7F8143128330121184601F0A7
:1034F8004DFA034687F827310AE0012387F8273178
:1035080006E000BF04E000BF02E000BF00E000BF2B
:1035180097F82731002B0BD1A34B9B6D23F0E0418B
:10352800D7F81431D3F8B0309F4A0B43936503E0C2
:1035380097F8273187F82631D7F81431D3E90023D3
:1035480002F40043C7F8D8300023C7F8DC30D7E9C5
:1035580036120B46134337D0D7F814311B6FB3F12B
:10356800005F0ED0B3F1005F16D8002B18D0B3F16E
:10357800805F11D18C4BDB6A8B4A43F40033D362F2
:103588000FE0D7F8143108330121184601F04CF93F
:10359800034687F8273104E0012387F8273100E044
:1035A80000BF97F82731002B0AD17F4B1B6D23F002
:1035B8004051D7F814311B6F7B4A0B43136503E066
:1035C80097F8273187F82631D7F81431D3E9002343
:1035D80002F08073C7F8D0300023C7F8D430D7E999
:1035E80034120B46134339D0D7F814319B6C032B94
:1035F8001CD801A252F823F03D3600081136000805
:103608001F3600083D360008674BDB6A664A43F4FC
:103618000033D3620FE0D7F814310833022118467B
:1036280001F002F9034687F8273104E0012387F8FF
:10363800273100E000BF97F82731002B0AD15A4BF9
:10364800DB6C23F00301D7F814319B6C564A0B430B
:10365800D36403E097F8273187F82631D7F8143177
:10366800D3E9002302F48003C7F8C8300023C7F861
:10367800CC30D7E932120B46134300F09F804B4BF6
:103688001B684A4A43F480731360FDF70DFBC7F8C3
:1036980020010BE0FDF708FB0246D7F82031D31ACA
:1036A800642B03D9032387F8273105E03F4B1B68B8
:1036B80003F48073002BEDD097F82731002B79D1D4
:1036C800394B1A6FD7F81431D3F8B430534003F498
:1036D8004073002B15D0344B1B6F23F44073C7F88D
:1036E8001C31314B1B6F304A43F4803313672E4B28
:1036F8001B6F2D4A23F4803313672B4AD7F81C31EC
:103708001367D7F81431D3F8B430B3F5807F18D1E4
:10371800FDF7CAFAC7F820010DE0FDF7C5FA024621
:10372800D7F82031D21A41F288339A4203D90323B9
:1037380087F8273105E01C4B1B6F03F00203002BB1
:10374800EBD097F82731002B29D1D7F81431D3F8CB
:10375800B43003F44073B3F5407F0ED1124B1B69AC
:1037680023F47C51D7F81431D3F8B4301A09104B2C
:1037780013400D4A0B43136105E00B4B1B690A4AC2
:1037880023F47C531361084B196FD7F81431D3F81D
:10379800B430C3F30B03044A0B4313670EE097F8E6
:1037A800273187F8263109E00044025800480258BA
:1037B800CFFFFF0097F8273187F82631D7F8143163
:1037C800D3E9002302F00103C7F8C0300023C7F88B
:1037D800C430D7E930120B46134300F08980D7F87C
:1037E8001431DB6F282B6BD801A252F823F000BFED
:1037F800D1380008C9380008C9380008C938000895
:10380800C9380008C9380008C9380008C93800088C
:103818009D380008C9380008C9380008C9380008A8
:10382800C9380008C9380008C9380008C93800086C
:10383800B3380008C9380008C9380008C938000872
:10384800C9380008C9380008C9380008C93800084C
:10385800D1380008C9380008C9380008C938000834
:10386800C9380008C9380008C9380008C93800082C
:10387800D1380008C9380008C9380008C938000814
:10388800C9380008C9380008C9380008C93800080C
:10389800D1380008D7F8143108330121184600F050
:1038A800C3FF034687F827310FE0D7F814312833D0
:1038B8000121184601F06AF8034687F8273104E029
:1038C800012387F8273100E000BF97F82731002B44
:1038D8000AD1BF4B5B6D23F03801D7F81431DB6F89
:1038E800BB4A0B43536503E097F8273187F8263125
:1038F800D7F81431D3E9002302F00203C7F8B8302F
:103908000023C7F8BC30D7E92E120B46134341D029
:10391800D7F814319B6F052B24D801A252F823F055
:103928007539000841390008573900087539000809
:103938007539000875390008D7F8143108330121A2
:10394800184600F071FF034687F827310FE0D7F8D3
:10395800143128330121184601F018F8034687F876
:10396800273104E0012387F8273100E000BF97F8EA
:103978002731002B0AD1964B5B6D23F00701D7F84E
:1039880014319B6F924A0B43536503E097F8273134
:1039980087F82631D7F81431D3E9002302F004035D
:1039A800C7F8B0300023C7F8B430D7E92C120B465B
:1039B800134344D0D7F81431D3F89430052B25D8C5
:1039C80001A252F823F000BF1D3A0008E9390008A7
:1039D800FF3900081D3A00081D3A00081D3A000882
:1039E800D7F8143108330121184600F01DFF0346AB
:1039F80087F827310FE0D7F814312833012118460A
:103A080000F0C4FF034687F8273104E0012387F854
:103A1800273100E000BF97F82731002B0BD16C4B02
:103A28009B6D23F00701D7F81431D3F89430684A16
:103A38000B43936503E097F8273187F82631D7F8C9
:103A48001431D3E9002302F02003C7F8A83000237B
:103A5800C7F8AC30D7E92A120B46134355D0D7F82C
:103A68001431D3F89030B3F1A04F33D0B3F1A04F55
:103A78002CD8B3F1804F2FD0B3F1804F26D8B3F1B3
:103A8800405F2BD0B3F1405F20D8B3F1005F12D074
:103A9800B3F1005F1AD8002B22D0B3F1805F15D1A3
:103AA800D7F8143108330021184600F0BDFE03464C
:103AB80087F8273115E0D7F8143128330221184642
:103AC80000F064FF034687F827310AE0012387F8EE
:103AD800273106E000BF04E000BF02E000BF00E0BD
:103AE80000BF97F82731002B0BD1394B5B6D23F0C2
:103AF800E041D7F81431D3F89030354A0B43536579
:103B080003E097F8273187F82631D7F81431D3E93D
:103B1800002302F04003C7F8A0300023C7F8A43000
:103B2800D7E928120B46134358D0D7F81431D3F8E5
:103B38009C30B3F5A05F33D0B3F5A05F2CD8B3F5B4
:103B4800805F2FD0B3F5805F26D8B3F5406F2BD0B8
:103B5800B3F5406F20D8B3F5006F12D0B3F5006FFE
:103B68001AD8002B22D0B3F5806F15D1D7F81431AD
:103B780008330021184600F057FE034687F827311E
:103B880015E0D7F8143128330221184600F0FEFE5C
:103B9800034687F827310AE0012387F8273106E032
:103BA80000BF04E000BF02E000BF00E000BF97F8DC
:103BB8002731002B0ED1064B9B6D23F4E051D7F82B
:103BC8001431D3F89C30024A0B43936506E000BFDA
:103BD8000044025897F8273187F82631D7F814316E
:103BE800D3E9002302F08003C7F898300023C7F810
:103BF8009C30D7E926120B46134355D0D7F8143119
:103C0800D3F8A030B3F5204F33D0B3F5204F2CD8DC
:103C1800B3F5004F2FD0B3F5004F26D8B3F5C04FFA
:103C28002BD0B3F5C04F20D8B3F5804F12D0B3F5E1
:103C3800804F1AD8002B22D0B3F5005F15D1D7F8E2
:103C4800143108330021184600F0EEFD034687F8CA
:103C5800273115E0D7F8143128330221184600F02F
:103C680095FE034687F827310AE0012387F82731B4
:103C780006E000BF04E000BF02E000BF00E000BFB4
:103C880097F82731002B0BD1A14B9B6D23F4604192
:103C9800D7F81431D3F8A0309D4A0B43936503E05D
:103CA80097F8273187F82631D7F81431D3E900235C
:103CB80002F00803C7F890300023C7F89430D7E91A
:103CC80024120B4613431ED0D7F81431D3F884308E
:103CD800B3F5805F0CD1D7F8143128330221184688
:103CE80000F054FE0346002B02D0012387F826314A
:103CF800874B5B6D23F44051D7F81431D3F88430E7
:103D0800834A0B435365D7F81431D3E9002302F0F3
:103D18001003C7F888300023C7F88C30D7E922127F
:103D28000B4613431ED0D7F81431D3F89830B3F5A7
:103D3800807F0CD1D7F8143128330221184600F0BF
:103D480025FE0346002B02D0012387F82631704B4D
:103D58009B6D23F44071D7F81431D3F898306C4A2E
:103D68000B439365D7F81431D3E9002302F40023F9
:103D7800C7F880300023C7F88430D7E920120B46F3
:103D880013433ED0D7F81431D3F8A430B3F5003F2D
:103D980022D0B3F5003F1BD8002B03D0B3F5803FEA
:103DA8000BD015E0D7F8143108330021184600F07D
:103DB8003BFD034687F827310FE0D7F81431283345
:103DC8000221184600F0E2FD034687F8273104E097
:103DD800012387F8273100E000BF97F82731002B2F
:103DE8000BD14B4B9B6D23F44031D7F81431D3F8EA
:103DF800A430474A0B43936503E097F8273187F8C7
:103E08002631D7F81431D3E9002302F48023BB67A5
:103E18000023FB67D7E91E120B4613433BD0D7F8A4
:103E28001431D3F88830B3F5401F1FD0B3F5401FC5
:103E380018D8B3F5801F03D0B3F5001F07D011E0E1
:103E4800334BDB6A324A43F40033D3620FE0D7F8CE
:103E5800143128330121184600F098FD034687F8ED
:103E6800273104E0012387F8273100E000BF97F8E5
:103E78002731002B0BD1264B5B6D23F44011D7F86B
:103E88001431D3F88830224A0B43536503E097F87E
:103E9800273187F82631D7F81431D3E9002302F403
:103EA80080333B6700237B67D7E91C120B4613431B
:103EB80034D0D7F814311B6D002B03D0B3F5803FF5
:103EC80007D011E0124BDB6A114A43F40033D36286
:103ED8000EE0D7F8143108330221184600F0A4FC8C
:103EE800034687F8273103E0012387F8273100BF0D
:103EF80097F82731002B0DD1054BDB6C23F480316B
:103F0800D7F814311B6D024A0B43D36406E000BF97
:103F18000044025897F8273187F82631D7F814312A
:103F2800D3E9002302F00053BB660023FB66D7E900
:103F38001A120B4613430CD0D7F814312833022138
:103F4800184600F023FD0346002B02D0012387F812
:103F58002631D7F81431D3E9002302F400333B6645
:103F680000237B66D7E918120B46134338D0D7F8DD
:103F78001431D3F88030B3F5407F18D0B3F5407FC3
:103F880011D8B3F5007F14D0B3F5007F0BD8002B00
:103F980011D0B3F5807F06D1C34BDB6AC24A43F424
:103FA8000033D36208E0012387F8273104E000BF1B
:103FB80002E000BF00E000BF97F82731002B0BD1CB
:103FC800B94B5B6D23F44071D7F81431D3F88030C6
:103FD800B54A0B43536503E097F8273187F8263134
:103FE800D7F81431D3E9002302F48013BB6500230A
:103FF800FB65D7E916120B46134309D0AA4B1B6D74
:1040080023F00041D7F814315B6FA74A0B431365BF
:10401800D7F81431D3E9002302F080533B6500231D
:104028007B65D7E914120B4613430AD09E4B1B69D4
:1040380023F48041D7F81431D3F8B8309A4A0B43A7
:104048001361D7F81431D3E9002302F40013BB64D9
:104058000023FB64D7E912120B46134309D0924B95
:104068001B6D23F08071D7F81431DB6E8E4A0B4339
:104078001365D7F81431D3E9002302F080433B6479
:1040880000237B64D7E910120B4613430ED0864BEE
:104098001B69854A23F400431361834B1969D7F8D8
:1040A8001431D3F8BC30804A0B431361D7F814316C
:1040B800D3E9002302F00043BB630023FB63D7E985
:1040C8000E120B46134309D0774BDB6C23F040519B
:1040D800D7F814315B6D744A0B43D364D7F81431A5
:1040E800D3E9002302F400033B6300237B63D7E991
:1040F8000C120B4613430AD06B4B5B6D23F4400143
:10410800D7F81431D3F88C30674A0B435365D7F886
:104118001431D3E900230021B96203F00103FB62E3
:10412800D7E90A120B46134311D0D7F814310833D4
:104138000021184600F078FB034687F8273197F8E6
:104148002731002B03D097F8273187F82631D7F885
:104158001431D3E900230021396203F002037B62A2
:10416800D7E908120B46134311D0D7F81431083396
:104178000121184600F058FB034687F8273197F8C5
:104188002731002B03D097F8273187F82631D7F845
:104198001431D3E900230021B96103F00403FB6162
:1041A800D7E906120B46134311D0D7F81431083358
:1041B8000221184600F038FB034687F8273197F8A4
:1041C8002731002B03D097F8273187F82631D7F805
:1041D8001431D3E900230021396103F008037B611E
:1041E800D7E904120B46134311D0D7F814312833FA
:1041F8000021184600F0CAFB034687F8273197F8D4
:104208002731002B03D097F8273187F82631D7F8C4
:104218001431D3E900230021B96003F01003FB60D7
:10422800D7E902120B46134311D0D7F814312833BB
:104238000121184600F0AAFB034687F8273197F8B2
:104248002731002B03D097F8273187F82631D7F884
:104258001431D3E900230021396003F020037B6087
:10426800D7E900120B46134311D0D7F8143128337D
:104278000221184600F08AFB034687F8273197F891
:104288002731002B03D097F8273187F8263197F884
:104298002631002B01D1002300E00123184607F541
:1042A8009477BD46BDE8B08F0044025880B500AF92
:1042B800FEF796FD0246064B1B6A1B0903F007032F
:1042C8000449CB5C03F01F0322FA03F3184680BDB0
:1042D80000440258F066000880B489B000AF7860E6
:1042E800A14B9B6A03F00303BB619F4B9B6A1B0BAB
:1042F80003F03F037B619C4BDB6A1B0903F001035E
:104308003B61994BDB6BDB08C3F30C033A6902FB97
:1043180003F307EE903AF8EE677AC7ED037A7B6904
:10432800002B00F01181BB69022B00F08380BB6970
:10433800022B00F2A180BB69002B03D0BB69012BC3
:1043480056D099E0884B1B6803F02003002B2DD032
:10435800854B1B68DB0803F00303844A22FA03F346
:10436800BB60BB6807EE903AF8EE676A7B6907EEB8
:10437800903AF8EE677A86EEA77A7B4B9B6BC3F38D
:10438800080307EE903AF8EE676A97ED036ADFEDE7
:10439800785AC6EE257A76EEA77AF7EE006A77EEB7
:1043A800A67A67EE277AC7ED077A87E07B6907EE7A
:1043B800903AF8EE677ADFED6F6A86EEA77A6A4B75
:1043C8009B6BC3F3080307EE903AF8EE676A97ED24
:1043D800036ADFED675AC6EE257A76EEA77AF7EE1E
:1043E800006A77EEA67A67EE277AC7ED077A65E066
:1043F8007B6907EE903AF8EE677ADFED5F6A86EE42
:10440800A77A594B9B6BC3F3080307EE903AF8EE73
:10441800676A97ED036ADFED565AC6EE257A76EE9F
:10442800A77AF7EE006A77EEA67A67EE277AC7EDE5
:10443800077A43E07B6907EE903AF8EE677ADFED9A
:104448004F6A86EEA77A484B9B6BC3F3080307EEC7
:10445800903AF8EE676A97ED036ADFED455AC6EEC3
:10446800257A76EEA77AF7EE006A77EEA67A67EEF7
:10447800277AC7ED077A21E07B6907EE903AF8EED4
:10448800677ADFED3D6A86EEA77A374B9B6BC3F3FD
:10449800080307EE903AF8EE676A97ED036ADFEDD6
:1044A800345AC6EE257A76EEA77AF7EE006A77EEEA
:1044B800A67A67EE277AC7ED077A00BF2A4B9B6B6F
:1044C8005B0A03F07F0307EE903AF8EE677AB7EEDF
:1044D800007A37EE877AD7ED076AC6EE877AFCEE60
:1044E800E77A17EE902A7B681A601F4B9B6B1B0CB0
:1044F80003F07F0307EE903AF8EE677AB7EE007A9A
:1045080037EE877AD7ED076AC6EE877AFCEEE77A48
:1045180017EE902A7B685A60134B9B6B1B0E03F0B7
:104528007F0307EE903AF8EE677AB7EE007A37EE37
:10453800877AD7ED076AC6EE877AFCEEE77A17EE38
:10454800902A7B689A6008E07B6800221A607B6882
:1045580000225A607B6800229A6000BF2437BD465B
:104568005DF8047B704700BF004402580090D003F8
:10457800000000460024744C0024744A20BCBE4B42
:1045880080B489B000AF7860A14B9B6A03F0030345
:10459800BB619F4B9B6A1B0D03F03F037B619C4BE8
:1045A800DB6A1B0A03F001033B61994B5B6CDB0878
:1045B800C3F30C033A6902FB03F307EE903AF8EEF3
:1045C800677AC7ED037A7B69002B00F01181BB691C
:1045D800022B00F08380BB69022B00F2A180BB692B
:1045E800002B03D0BB69012B56D099E0884B1B6880
:1045F80003F02003002B2DD0854B1B68DB0803F04C
:104608000303844A22FA03F3BB60BB6807EE903ABF
:10461800F8EE676A7B6907EE903AF8EE677A86EEFD
:10462800A77A7B4B1B6CC3F3080307EE903AF8EEAE
:10463800676A97ED036ADFED785AC6EE257A76EE5B
:10464800A77AF7EE006A77EEA67A67EE277AC7EDC3
:10465800077A87E07B6907EE903AF8EE677ADFED34
:104668006F6A86EEA77A6A4B1B6CC3F3080307EEE2
:10467800903AF8EE676A97ED036ADFED675AC6EE7F
:10468800257A76EEA77AF7EE006A77EEA67A67EED5
:10469800277AC7ED077A65E07B6907EE903AF8EE6E
:1046A800677ADFED5F6A86EEA77A594B1B6CC3F316
:1046B800080307EE903AF8EE676A97ED036ADFEDB4
:1046C800565AC6EE257A76EEA77AF7EE006A77EEA6
:1046D800A67A67EE277AC7ED077A43E07B6907EE8B
:1046E800903AF8EE677ADFED4F6A86EEA77A484B84
:1046F8001B6CC3F3080307EE903AF8EE676A97ED70
:10470800036ADFED455AC6EE257A76EEA77AF7EE0C
:10471800006A77EEA67A67EE277AC7ED077A21E076
:104728007B6907EE903AF8EE677ADFED3D6A86EE30
:10473800A77A374B1B6CC3F3080307EE903AF8EEE1
:10474800676A97ED036ADFED345AC6EE257A76EE8E
:10475800A77AF7EE006A77EEA67A67EE277AC7EDB2
:10476800077A00BF2A4B1B6C5B0A03F07F0307EE36
:10477800903AF8EE677AB7EE007A37EE877AD7ED97
:10478800076AC6EE877AFCEEE77A17EE902A7B680E
:104798001A601F4B1B6C1B0C03F07F0307EE903A4B
:1047A800F8EE677AB7EE007A37EE877AD7ED076AC0
:1047B800C6EE877AFCEEE77A17EE902A7B685A6095
:1047C800134B1B6C1B0E03F07F0307EE903AF8EEB9
:1047D800677AB7EE007A37EE877AD7ED076AC6EEC2
:1047E800877AFCEEE77A17EE902A7B689A6008E0F1
:1047F8007B6800221A607B6800225A607B6800226E
:104808009A6000BF2437BD465DF8047B704700BF3F
:10481800004402580090D003000000460024744C65
:104828000024744A20BCBE4B80B584B000AF7860C9
:1048380039600023FB73534B9B6A03F00303032B7C
:1048480001D1012399E04F4B1B684E4A23F0806346
:104858001360FCF729FAB86008E0FCF725FA02466D
:10486800BB68D31A022B01D9032386E0454B1B688A
:1048780003F00063002BF0D1424B9B6A23F47C3297
:104888007B681B681B033F4913438B627B685B682B
:10489800013BC3F308027B689B68013B5B029BB248
:1048A8001A437B68DB68013B1B0403F4FE031A43CD
:1048B8007B681B69013B1B0603F0FE433149134328
:1048C8008B63304BDB6A23F0C0027B685B692D4940
:1048D8001343CB622B4BDB6A23F020027B689B6976
:1048E80028491343CB62274BDB6A264A23F010037F
:1048F800D362244BDA6B244B13407A68D269D20016
:1049080020491343CB631F4BDB6A1E4A43F0100355
:10491800D3623B68002B06D11A4BDB6A194A43F471
:104928000023D3620FE03B68012B06D1154BDB6AED
:10493800144A43F48013D36205E0124BDB6A114A30
:1049480043F40013D3620F4B1B680E4A43F0806395
:104958001360FCF7A9F9B86008E0FCF7A5F902466E
:10496800BB68D31A022B01D9032306E0054B1B6849
:1049780003F00063002BF0D0FB7B18461037BD46D0
:1049880080BD00BF004402580700FFFF80B584B017
:1049980000AF786039600023FB73534B9B6A03F0C8
:1049A8000303032B01D1012399E04F4B1B684E4AA7
:1049B80023F080531360FCF777F9B86008E0FCF740
:1049C80073F90246BB68D31A022B01D9032386E088
:1049D800454B1B6803F00053002BF0D1424B9B6AF8
:1049E80023F07C727B681B681B053F4913438B626D
:1049F8007B685B68013BC3F308027B689B68013BEB
:104A08005B029BB21A437B68DB68013B1B0403F41F
:104A1800FE031A437B681B69013B1B0603F0FE4338
:104A2800314913430B64304BDB6A23F440627B68E3
:104A38005B692D491343CB622B4BDB6A23F400726D
:104A48007B689B6928491343CB62274BDB6A264A5C
:104A580023F48073D362244B5A6C244B13407A6836
:104A6800D269D200204913434B641F4BDB6A1E4AAC
:104A780043F48073D3623B68002B06D11A4BDB6A80
:104A8800194A43F48003D3620FE03B68012B06D137
:104A9800154BDB6A144A43F40003D36205E0124B5A
:104AA800DB6A114A43F08073D3620F4B1B680E4ACE
:104AB80043F080531360FCF7F7F8B86008E0FCF7A0
:104AC800F3F80246BB68D31A022B01D9032306E088
:104AD800054B1B6803F00053002BF0D0FB7B1846F6
:104AE8001037BD4680BD00BF004402580700FFFFD5
:104AF80080B582B000AF78607B68002B01D10123BC
:104B080042E07B68D3F88830002B06D17B6800220E
:104B180083F884207868FBF7B1FE7B682422C3F809
:104B280088207B681B681A687B681B6822F0010272
:104B38001A607B689B6A002B02D0786801F014FA2F
:104B4800786800F0A9FC0346012B01D101231BE082
:104B58007B681B685A687B681B6822F490425A601D
:104B68007B681B689A687B681B6822F02A029A6037
:104B78007B681B681A687B681B6842F001021A6030
:104B8800786801F093FA034618460837BD4680BD99
:104B980080B58AB002AFF860B9603B601346FB800D
:104BA800FB68D3F88830202B7BD1BB68002B02D060
:104BB800FB88002B01D1012374E0FB680022C3F8B5
:104BC8009020FB682122C3F88820FCF76DF87861F3
:104BD800FB68FA88A3F85420FB68FA88A3F85620E3
:104BE800FB689B68B3F5805F08D1FB681B69002BE5
:104BF80004D10023FB61BB68BB6103E0BB68FB61B8
:104C08000023BB6130E03B6800937B690022802170
:104C1800F86801F0F5FA0346002B05D0FB6820225E
:104C2800C3F8882003233DE0FB69002B0BD1BB6947
:104C38001B881A46FB681B68C2F308029A62BB69A4
:104C48000233BB6107E0FB691A78FB681B689A624C
:104C5800FB690133FB61FB68B3F856309BB2013B3B
:104C68009AB2FB68A3F85620FB68B3F856309BB29B
:104C7800002BC8D13B6800937B6900224021F8686B
:104C880001F0BEFA0346002B05D0FB682022C3F8CA
:104C98008820032306E0FB682022C3F8882000232D
:104CA80000E0022318462037BD4680BD80B5BAB063
:104CB80000AF78607B681B68DB69C7F8E4307B6805
:104CC8001B681B68C7F8E0307B681B689B68C7F8DF
:104CD800DC30D7F8E42040F60F031340C7F8D8308B
:104CE800D7F8D830002B1BD1D7F8E43003F02003D5
:104CF800002B15D0D7F8E03003F02003002B05D1A6
:104D0800D7F8DC3003F08053002B09D07B685B6F49
:104D1800002B00F093837B685B6F786898478DE37E
:104D2800D7F8D830002B00F02381D7F8DC208D4B42
:104D38001340002B06D1D7F8E0208B4B1340002BF3
:104D480000F01681D7F8E43003F00103002B11D0EE
:104D5800D7F8E03003F48073002B0BD07B681B6816
:104D680001221A627B68D3F8903043F001027B6815
:104D7800C3F89020D7F8E43003F00203002B11D0D9
:104D8800D7F8DC3003F00103002B0BD07B681B68DD
:104D980002221A627B68D3F8903043F004027B68E1
:104DA800C3F89020D7F8E43003F00403002B11D0A7
:104DB800D7F8DC3003F00103002B0BD07B681B68AD
:104DC80004221A627B68D3F8903043F002027B68B1
:104DD800C3F89020D7F8E43003F00803002B17D06D
:104DE800D7F8E03003F02003002B05D1D7F8DC20FA
:104DF8005C4B1340002B0BD07B681B6808221A629F
:104E08007B68D3F8903043F008027B68C3F89020A1
:104E1800D7F8E43003F40063002B12D0D7F8E03061
:104E280003F08063002B0CD07B681B684FF4006292
:104E38001A627B68D3F8903043F020027B68C3F88D
:104E480090207B68D3F89030002B00F0F982D7F8D7
:104E5800E43003F02003002B13D0D7F8E03003F040
:104E68002003002B05D1D7F8DC3003F08053002B4A
:104E780007D07B685B6F002B03D07B685B6F78681B
:104E880098477B68D3F89030C7F8D4307B681B68A4
:104E98009B6803F04003402B05D0D7F8D43003F0CB
:104EA8002803002B54D0786801F018FA7B681B6837
:104EB8009B6803F04003402B46D17B681B6808338E
:104EC800C7F89C30D7F89C3053E8003FC7F89830B3
:104ED800D7F8983023F04003C7F8D0307B681B68B8
:104EE8000833D7F8D020C7F8A820C7F8A430D7F8D7
:104EF800A410D7F8A82041E80023C7F8A030D7F8B5
:104F0800A030002BD9D17B68D3F88030002B17D084
:104F18007B68D3F88030154A1A657B68D3F88030EF
:104F28001846FCF7A3FB0346002B19D07B68D3F87F
:104F380080301B6D7A68D2F88020104698470FE0C1
:104F4800786800F093FA0BE0786800F08FFA07E0D1
:104F5800786800F08BFA7B680022C3F890206FE233
:104F680000BF6DE20100001020010004B1630008D9
:104F78007B68DB6E012B40F00382D7F8E43003F046
:104F88001003002B00F0FC81D7F8E03003F0100389
:104F9800002B00F0F5817B681B6810221A627B6881
:104FA8001B689B6803F04003402B40F06D817B68D1
:104FB800D3F880301B68A44A934268D07B68D3F842
:104FC80080301B68A14A934261D07B68D3F8803057
:104FD8001B689F4A93425AD07B68D3F880301B687D
:104FE8009C4A934253D07B68D3F880301B689A4A16
:104FF80093424CD07B68D3F880301B68974A934221
:1050080045D07B68D3F880301B68954A93423ED0E0
:105018007B68D3F880301B68924A934237D07B680C
:10502800D3F880301B68904A934230D07B68D3F81D
:1050380080301B688D4A934229D07B68D3F8803032
:105048001B688B4A934222D07B68D3F880301B6858
:10505800884A93421BD07B68D3F880301B68864A05
:10506800934214D07B68D3F880301B68834A9342FC
:105078000DD07B68D3F880301B68814A934206D0F4
:105088007B68D3F880301B687E4A934206D17B68E0
:10509800D3F880301B685B689BB205E07B68D3F867
:1050A80080301B685B689BB2A7F8BE30B7F8BE308B
:1050B800002B00F0AD807B68B3F85C30B7F8BE20F9
:1050C8009A4280F0A5807B68B7F8BE20A3F85E20DE
:1050D8007B68D3F88030DB69B3F5807F00F0878088
:1050E8007B681B68C7F88830D7F8883053E8003FDA
:1050F800C7F88430D7F8843023F48073C7F8B83001
:105108007B681B681A46D7F8B830C7F89430C7F8D8
:105118009020D7F89010D7F8942041E80023C7F8DA
:105128008C30D7F88C30002BDAD17B681B680833B9
:105138007B677B6F53E8003F3B673B6F23F00103BE
:10514800C7F8B4307B681B680833D7F8B420C7F8B1
:105158008020FB67F96FD7F8802041E80023BB6700
:10516800BB6F002BE1D17B681B6808333B663B6E45
:1051780053E8003FFB65FB6D23F04003C7F8B030F0
:105188007B681B680833D7F8B020FA66BB66B96E2F
:10519800FA6E41E800237B667B6E002BE3D17B68C7
:1051A8002022C3F88C207B680022DA667B681B68A3
:1051B800FB64FB6C53E8003FBB64BB6C23F010033B
:1051C800C7F8AC307B681B681A46D7F8AC30BB65AB
:1051D8007A65796DBA6D41E800233B653B6D002B1C
:1051E800E4D17B68D3F880301846FBF721FF7B6851
:1051F80002221A677B68B3F85C207B68B3F85E30DC
:105208009BB2D31A9BB21946786800F039F919E1B4
:105218007B68B3F85C30B7F8BE209A4240F0128140
:105228007B68D3F88030DB69B3F5807F40F00A8172
:105238007B6802221A677B68B3F85C301946786885
:1052480000F01EF9FEE000BF1000024028000240F6
:1052580040000240580002407000024088000240AE
:10526800A0000240B8000240100402402804024096
:10527800400402405804024070040240880402407E
:10528800A0040240B80402407B68B3F85C207B6845
:10529800B3F85E309BB2D31AA7F8CE307B68B3F868
:1052A8005E309BB2002B00F0CF80B7F8CE30002BD9
:1052B80000F0CA807B681B68BB63BB6B53E8003F88
:1052C8007B637B6B23F49073C7F8C8307B681B68DB
:1052D8001A46D7F8C8307B643A64396C7A6C41E86E
:1052E8000023FB63FB6B002BE4D17B681B6808334E
:1052F8007B627B6A53E8003F3B623A6A554B134036
:10530800C7F8C4307B681B680833D7F8C4203A63F1
:10531800FB62F96A3A6B41E80023BB62BB6A002B67
:10532800E3D17B682022C3F88C207B680022DA66F0
:105338007B6800225A677B681B683B613B6953E8BE
:10534800003FFB60FB6823F01003C7F8C0307B68A0
:105358001B681A46D7F8C030FB61BA61B969FA69A7
:1053680041E800237B617B69002BE4D17B68022242
:105378001A67B7F8CE301946786800F081F863E00C
:10538800D7F8E43003F48013002B0ED0D7F8DC30C4
:1053980003F48003002B08D07B681B684FF480124D
:1053A8001A62786801F03DF851E0D7F8E43003F06C
:1053B8008003002B14D0D7F8E03003F08003002BD3
:1053C80005D1D7F8DC3003F40003002B08D07B6844
:1053D8009B6F002B3AD07B689B6F7868984735E0C5
:1053E800D7F8E43003F04003002B09D0D7F8E030B9
:1053F80003F04003002B03D0786800F0E7FF26E0B5
:10540800D7F8E43003F40003002B09D0D7F8E030D4
:1054180003F08043002B03D0786801F016F816E0FB
:10542800D7F8E43003F08073002B10D0D7F8E030C1
:10543800002B0CDA786800F0FEFF08E000BF06E0F9
:1054480000BF04E000BF02E000BF00E000BFE83793
:10545800BD4680BDFEFFFFEF80B483B000AF78602B
:1054680000BF0C37BD465DF8047B704780B483B03D
:1054780000AF786000BF0C37BD465DF8047B70470D
:1054880080B483B000AF78600B467B8000BF0C37D8
:10549800BD465DF8047B70472DE9B04F92B000AF70
:1054A8007861002387F842307B699A687B691B69B9
:1054B8001A437B695B691A437B69DB6913437B6425
:1054C8007B691B681A68BE4B13407A691268796C4D
:1054D8000B4313607B691B685B6823F440517B694D
:1054E800DA687B691B680A435A607B699B697B643D
:1054F8007B691B68B34A934204D07B691B6A7A6C48
:1055080013437B647B691B689A68AF4B13407A69C5
:105518001268796C0B4393607B691B68DB6A23F024
:105528000F017B695A6A7B691B680A43DA627B69E7
:105538001B68A64A934277D1A54B5B6D03F03803ED
:10554800282B6DD801A252F823F000BFF9550008A6
:105558002956000829560008295600082956000827
:10556800295600082956000829560008015600083F
:105578002956000829560008295600082956000807
:105588002956000829560008295600080956000817
:1055980029560008295600082956000829560008E7
:1055A80029560008295600082956000811560008EF
:1055B80029560008295600082956000829560008C7
:1055C80029560008295600082956000819560008C7
:1055D80029560008295600082956000829560008A7
:1055E800295600082956000829560008215600089F
:1055F800012387F8433022E2042387F843301EE270
:10560800082387F843301AE2102387F8433016E25C
:10561800202387F8433012E2402387F843300EE214
:10562800802387F843300AE27B691B68694A934202
:1056380030D1674B5B6D03F00703052B26D801A219
:1056480052F823F0655600086D5600087556000894
:105658007D560008855600088D560008002387F8F7
:105668004330ECE1042387F84330E8E1082387F866
:105678004330E4E1102387F84330E0E1202387F842
:105688004330DCE1402387F84330D8E1802387F8B2
:105698004330D4E17B691B684F4A934230D14C4B6D
:1056A8005B6D03F00703052B26D801A252F823F0FF
:1056B800D1560008D9560008E1560008E9560008F6
:1056C800F1560008F9560008002387F84330B6E180
:1056D800042387F84330B2E1082387F84330AEE16A
:1056E800102387F84330AAE1202387F84330A6E146
:1056F800402387F84330A2E1802387F843309EE1B6
:105708007B691B68354A934230D1314B5B6D03F09E
:105718000703052B26D801A252F823F03D570008AD
:10572800455700084D570008555700085D570008B1
:1057380065570008002387F8433080E1042387F881
:1057480043307CE1082387F8433078E1102387F859
:10575800433074E1202387F8433070E1402387F811
:1057680043306CE1802387F8433068E17B691B682C
:105778001B4A934242D1164B5B6D03F00703052B7E
:1057880038D801A252F823F0A9570008B1570008E9
:10579800B9570008C1570008ED570008F557000829
:1057A800002387F843304AE1042387F8433046E171
:1057B800082387F8433042E1102387F843303EE15D
:1057C800F369FFCF000C0058FFF4FF1100100140EF
:1057D800004402580044004000480040004C00408B
:1057E80000500040202387F8433028E1402387F801
:1057F800433024E1802387F8433020E17B691B682C
:10580800CB4A934276D1CB4B5B6D03F03803282B00
:105818006CD801A252F823F0C5580008F5580008C2
:10582800F5580008F5580008F5580008F55800081C
:10583800F5580008F5580008CD580008F558000834
:10584800F5580008F5580008F5580008F5580008FC
:10585800F5580008F5580008D5580008F55800080C
:10586800F5580008F5580008F5580008F5580008DC
:10587800F5580008F5580008DD580008F5580008E4
:10588800F5580008F5580008F5580008F5580008BC
:10589800F5580008F5580008E5580008F5580008BC
:1058A800F5580008F5580008F5580008F55800089C
:1058B800F5580008F5580008ED580008012387F846
:1058C8004330BCE0042387F84330B8E0082387F866
:1058D8004330B4E0102387F84330B0E0202387F842
:1058E8004330ACE0402387F84330A8E0802387F8B2
:1058F8004330A4E07B691B688F4A934230D18D4BBB
:105908005B6D03F00703052B26D801A252F823F09C
:105918003159000839590008415900084959000807
:105928005159000859590008002387F8433086E088
:10593800042387F8433082E0082387F843307EE069
:10594800102387F843307AE0202387F8433076E045
:10595800402387F8433072E0802387F843306EE0B5
:105968007B691B68754A934230D1724B5B6D03F0BB
:105978000703052B26D801A252F823F09D590008E9
:10598800A5590008AD590008B5590008BD590008C7
:10599800C5590008002387F8433050E0042387F8EE
:1059A80043304CE0082387F8433048E0102387F859
:1059B800433044E0202387F8433040E0402387F811
:1059C80043303CE0802387F8433038E07B691B682C
:1059D8005B4A934230D1574B9B6D03F00703052B6D
:1059E80026D801A252F823F0095A0008115A0008D3
:1059F800195A0008215A0008295A0008315A000883
:105A0800022387F843301AE0042387F8433016E06E
:105A1800082387F8433012E0102387F843300EE05C
:105A2800202387F843300AE0402387F8433006E014
:105A3800802387F8433002E0802387F843307B696E
:105A48001B683F4A934240F0F88097F84330202B78
:105A580046DC022BC0F28280023B1E2B7ED801A2BC
:105A680052F823F0EF5A0008655B0008F75A00085F
:105A7800655B0008655B0008655B0008075B00085C
:105A8800655B0008655B0008655B0008655B0008EE
:105A9800655B0008655B0008655B0008175B00082C
:105AA800655B0008655B0008655B0008655B0008CE
:105AB800655B0008655B0008655B0008655B0008BE
:105AC800655B0008655B0008655B0008655B0008AE
