:020000040800F2
:10000000000008248D0B0008A9090008B1090008A8
:10001000B9090008C1090008C9090008000000006A
:10002000000000000000000000000000D1090008EE
:10003000DF09000800000000ED090008FB090008C6
:10004000E10B0008E10B0008E10B0008E10B0008E0
:10005000E10B0008E10B0008E10B0008E10B0008D0
:10006000E10B0008E10B0008E10B0008090A000899
:10007000E10B0008E10B0008E10B0008E10B0008B0
:10008000E10B0008E10B0008E10B0008E10B0008A0
:10009000E10B0008E10B0008E10B0008E10B000890
:1000A000E10B0008E10B0008E10B0008E10B000880
:1000B000E10B0008E10B0008E10B0008E10B000870
:1000C000E10B0008E10B0008E10B0008E10B000860
:1000D000E10B0008E10B0008E10B0008E10B000850
:1000E000E10B0008E10B000800000000E10B000834
:1000F000E10B0008E10B0008E10B0008E10B000830
:10010000E10B0008E10B0008E10B0008E10B00081F
:10011000E10B0008E10B0008E10B0008E10B00080F
:10012000E10B0008E10B0008E10B0008E10B0008FF
:10013000E10B0008E10B0008E10B0008E10B0008EF
:1001400000000000000000000000000000000000AF
:10015000E10B0008E10B0008E10B0008E10B0008CF
:10016000E10B0008E10B0008E10B0008E10B0008BF
:10017000E10B0008E10B0008E10B000800000000A3
:10018000E10B0008E10B0008E10B0008E10B00089F
:10019000E10B0008E10B0008E10B0008E10B00088F
:1001A000E10B0008E10B0008E10B0008E10B00087F
:1001B000E10B0008E10B0008E10B0008E10B00086F
:1001C000E10B0008E10B0008E10B0008E10B00085F
:1001D000E10B0008E10B0008E10B0008E10B00084F
:1001E000E10B0008E10B0008E10B0008E10B00083F
:1001F000E10B0008E10B0008E10B0008E10B00082F
:10020000E10B0008E10B0008E10B0008E10B00081E
:10021000E10B0008E10B0008E10B0008E10B00080E
:10022000E10B0008E10B0008E10B000800000000F2
:10023000E10B0008E10B000800000000E10B0008E2
:10024000E10B0008E10B0008E10B0008E10B0008DE
:10025000E10B0008E10B0008E10B0008E10B0008CE
:10026000E10B0008E10B0008E10B0008E10B0008BE
:10027000E10B0008E10B0008E10B000800000000A2
:10028000E10B0008E10B0008E10B00080000000092
:0802900000000000E10B000872
:1002980010B5054C237833B9044B13B10448AFF3B8
:1002A80000800123237010BD10000024000000000E
:1002B800A881000808B5034B1BB103490348AFF3F5
:1002C800008008BD0000000014000024A881000878
:1002D8002DE9B04384B000AF00F022FA00F07EFCB4
:1002E80000F098F800F0D4F900F0B2F900F00EF937
:1002F80000F03EF90021434807F0DAF808214148A8
:1003080007F0D6F80C213F4807F0D2F84FF40072F6
:100318003D493E4803F056FA0346002B01D000F051
:100328002BFA4FF000024FF00003C7E90223002325
:100338007B6016E0344A7B6832F91330002BB8BF73
:100348005B429BB29BB200221C461546D7E90223AA
:1003580012EB040843EB0509C7E902897B680133FE
:100368007B607B68B3F5007FE4DBD7E902014FF0DF
:1003780000024FF00003420A42EAC1524B0A244BE2
:100388001A60234B1B68B3F57A7F03D9204B4FF4CF
:100398007A721A601E4B1B68092B0DD8194B1B6803
:1003A80000225A63174B1B680022DA63154B1B683F
:1003B800174A12681A6421E0154B1B68632B10D882
:1003C800134B1A680F4B1B6852085A630D4B1B6876
:1003D8000022DA630E4B1A680A4B1B6852081A642B
:1003E8000CE0084B1B680A4A12685A63054B1B68E5
:1003F8000022DA63034B1B6800221A64322000F0E3
:100408007FFC8EE7F8000024440100242C0000241F
:100418004405002480B59CB000AF07F124034C22AA
:100428000021184607F090FE3B1D202200211846A7
:1004380007F08AFE022003F0DBFA00233B60314B11
:10044800DB6A304A23F00103D3622E4BDB6A03F0E8
:1004580001033B602C4B9B6923F440432A4A43F435
:1004680080439361284B9B6903F440433B603B689E
:1004780000BF254B9B6903F40053B3F5005FF8D127
:1004880001237B624FF48033BB620223BB640223E7
:10049800FB6402233B650C237B650223BB650223B7
:1004A800FB6502233B660C237B660223BB660023A5
:1004B800FB6607F12403184603F0D4FA0346002B21
:1004C80001D000F059F93F237B600223BB60002371
:1004D800FB6000233B6100237B610023BB61002399
:1004E800FB6100233B623B1D0021184603F014FF0B
:1004F8000346002B01D000F03FF900BF7037BD461E
:1005080080BD00BF000400580048025880B500AF05
:10051800154B164A1A60144B06225A60124B0022D9
:100528009A60114B0022DA600F4B00221A610E4BC1
:100538004BF680325A610C4B00229A610A4B00221A
:10054800DA61094B00221A62074B00225A62064BF5
:1005580000229A62044803F013F80346002B01D0E6
:1005680000F00AF900BF80BD2C00002400300140D3
:1005780080B58AB000AF07F11C0300221A605A60E8
:100588009A603B4600221A605A609A60DA601A61E3
:100598005A619A612D4B4FF080421A602B4B40F202
:1005A800DF125A60294B00229A60284B4FF47A7266
:1005B800DA60264B00221A61244B00229A612348F4
:1005C80006F01EFF0346002B01D000F0D5F80023EB
:1005D800FB6100237B6207F11C0319461B4807F0E7
:1005E80025FD0346002B01D000F0C6F860233B60D0
:1005F80000237B600023BB6000233B613B46002255
:100608001946124807F062F80346002B01D000F0A3
:10061800B3F83B46082219460C4807F057F803463A
:10062800002B01D000F0A8F83B460C2219460748D9
:1006380007F04CF80346002B01D000F09DF8034862
:1006480000F076F900BF2837BD4680BDF8000024C9
:1006580080B582B000AF0D4BD3F8D8300B4A43F0C9
:100668000103C2F8D830094BD3F8D83003F001039E
:100678007B607B68002200210B2000F04CFC0B20E3
:1006880000F063FC00BF0837BD4680BD0044025837
:1006980080B485B000AF214BD3F8E0301F4A43F057
:1006A8008003C2F8E0301D4BD3F8E03003F080033C
:1006B800FB60FB68194BD3F8E030184A43F001039C
:1006C800C2F8E030154BD3F8E03003F00103BB600B
:1006D800BB68124BD3F8E030104A43F00403C2F869
:1006E800E0300E4BD3F8E03003F004037B607B6806
:1006F8000A4BD3F8E030094A43F00803C2F8E03067
:10070800064BD3F8E03003F008033B603B6800BFBA
:100718001437BD465DF8047B704700BF004402589B
:1007280080B584B000AF3B4600221A605A609A60D8
:10073800DA6000F025FC01233B7000237B70002366
:100748007B601F233B7287237B720023BB720023CD
:10075800FB7201233B7301237B730023BB730023CC
:10076800FB733B46184600F043FC042000F020FCD5
:1007780000BF1037BD4680BD80B400AF72B600BF61
:1007880000BFFDE780B483B000AF0A4BD3F8F43064
:10079800084A43F00203C2F8F430064BD3F8F430A9
:1007A80003F002037B607B6800BF0C37BD465DF831
:1007B800047B70470044025880B5BAB000AF786037
:1007C80007F1D40300221A605A609A60DA601A614D
:1007D80007F11003C0220021184607F0B5FC7B681A
:1007E8001B683E4A934274D14FF480524FF0000385
:1007F800C7E9042300233B6707F11003184604F0F8
:1008080001F90346002B01D0FFF7B6FF344BD3F8AC
:10081800F030334A43F48053C2F8F030304BD3F809
:10082800F03003F48053FB60FB682D4BD3F8E030C5
:100838002B4A43F00103C2F8E030294BD3F8E030EB
:1008480003F00103BB60BB68F023C7F8D430022370
:10085800C7F8D8300023C7F8DC300023C7F8E030E9
:100868000523C7F8E43007F1D40319461D4802F000
:10087800D7FC1D4B1D4A1A601B4B25225A601A4B88
:1008880000229A60184B0022DA60174B4FF48062FE
:100898001A61154B4FF400625A61134B4FF4005222
:1008A8009A61114B4FF48072DA610F4B00221A6281
:1008B8000D4B00225A620C4800F0DAFB0346002B6D
:1008C80001D0FFF759FF7B68074A9A64064A7B689C
:1008D800936300BFE837BD4680BD00BF00300140CC
:1008E8000044025800000258800000241000024012
:1008F80080B485B000AF78607B681B68B3F1804F27
:100908000ED10A4BD3F8E830084A43F00103C2F885
:10091800E830064BD3F8E83003F00103FB60FB68CE
:1009280000BF1437BD465DF8047B70470044025889
:1009380080B588B000AF786007F10C0300221A6018
:100948005A609A60DA601A617B681B68B3F1804F5D
:100958001ED1114BD3F8E0300F4A43F00103C2F81F
:10096800E0300D4BD3F8E03003F00103BB60BB6807
:100978000D23FB6002233B6100237B610023BB61E5
:100988000123FB6107F10C031946044802F048FCF7
:1009980000BF2037BD4680BD004402580000025801
:1009A80080B400AF00BFFDE780B400AF00BFFDE733
:1009B80080B400AF00BFFDE780B400AF00BFFDE723
:1009C80080B400AF00BFFDE780B400AF00BFBD46F4
:1009D8005DF8047B704780B400AF00BFBD465DF88A
:1009E800047B704780B400AF00BFBD465DF8047B50
:1009F800704780B500AF00F063F900BF80BD00000C
:100A080080B500AF024801F0F9F800BF80BD00BF13
:100A18008000002480B400AF434BD3F88830424AAA
:100A280043F47003C2F88830404B1B6803F00F038F
:100A3800062B07D83D4B1B6823F00F033B4A43F0B6
:100A4800070313603A4B1B68394A43F001031360EC
:100A5800374B00221A61364B1A683549354B13401B
:100A68000B60324B1B6803F00803002B07D02F4B99
:100A78001B6823F00F032D4A43F0070313602C4B28
:100A880000229A612A4B0022DA61294B00221A625D
:100A9800274B294A9A62264B284ADA62244B284A6D
:100AA8001A63234B00225A63214B254A9A63204B31
:100AB8000022DA631E4B224A1A641D4B00225A6434
:100AC8001B4B1B681A4A23F480231360184B00221F
:100AD8001A661C4B1A681C4B1340B3F1005F02D214
:100AE8001A4B01221A60124BD3F8D43003F4805306
:100AF800002B13D10E4BD3F8D4300D4A43F4805356
:100B0800C2F8D430124B43F2D2021A60084BD3F821
:100B1800D430074A23F48053C2F8D43000BFBD460E
:100B28005DF8047B704700BF00ED00E00020005234
:100B3800004402587FEDF6EA000202020000FF01BD
:100B4800800201010010005C0000FFFF08810051D5
:100B58000040005280B400AF094BDB68084A43F0FC
:100B68000203D36000BF064B5B6803F40053002BFD
:100B7800F9D000BF00BFBD465DF8047B704700BFD9
:100B880000480258DFF838D0FFF7E4FFFFF742FFCC
:100B98000C480D490D4A002302E0D458C4500433D0
:100BA800C4188C42F9D30A4A0A4C002301E01360A6
:100BB8000432A242FBD307F0CFFAFFF789FB704754
:100BC800000008240000002410000024E081000830
:100BD800100000244C050024FEE7000080B582B018
:100BE80000AF032000F08CF903F04CFD0246154BD2
:100BF8009B691B0A03F00F031349CB5C03F01F0327
:100C080022FA03F37B600F4B9B6903F00F030E4A34
:100C1800D35C03F01F037A6822FA03F30B4A1360CC
:100C28000B4A7B6813600F2000F014F80346002B72
:100C380001D0012302E0FFF7A5FD0023184608377D
:100C4800BD4680BD00440258C0810008040000244D
:100C58000000002480B582B000AF7860154B1B7887
:100C6800002B01D1012321E0134B1A68114B1B788B
:100C780019464FF47A73B3FBF1F3B2FBF3F318465A
:100C880000F071F90346002B01D001230EE07B68C8
:100C98000F2B0AD8002279684FF0FF3000F03BF99B
:100CA800064A7B681360002300E0012318460837D2
:100CB800BD4680BD0C00002400000024080000246C
:100CC80080B400AF064B1B781A46064B1B681344CA
:100CD800044A136000BFBD465DF8047B704700BF3F
:100CE8000C0000244805002480B400AF034B1B68A7
:100CF8001846BD465DF8047B704700BF48050024D0
:100D080080B584B000AF7860FFF7EEFFB8607B680D
:100D1800FB60FB68B3F1FF3F05D00A4B1B781A460E
:100D2800FB681344FB6000BFFFF7DEFF0246BB68A9
:100D3800D31AFA689A42F7D800BF00BF1037BD46E9
:100D480080BD00BF0C00002480B400AF034B1B68BB
:100D58001B0C1846BD465DF8047B70470010005C0C
:100D680080B485B000AF78607B6803F00703FB6050
:100D78000B4BDB68BB60BA684FF6FF031340BB60E0
:100D8800FB681A02BB681A43064B1343BB60044A4C
:100D9800BB68D36000BF1437BD465DF8047B70475D
:100DA80000ED00E00000FA0580B400AF044BDB68FA
:100DB8001B0A03F007031846BD465DF8047B70471D
:100DC80000ED00E080B483B000AF0346FB80B7F9C4
:100DD8000630002B0BDBFB8803F01F020749B7F92D
:100DE80006305B09012000FA02F241F8232000BF17
:100DF8000C37BD465DF8047B704700BF00E100E09A
:100E080080B483B000AF03463960FB80B7F9063081
:100E1800002B0ADB3B68DAB20C49B7F9063012013D
:100E2800D2B20B4483F800230AE03B68DAB20849DF
:100E3800FB8803F00F03043B1201D2B20B441A766D
:100E480000BF0C37BD465DF8047B704700E100E049
:100E580000ED00E080B489B000AFF860B9607A6056
:100E6800FB6803F00703FB61FB69C3F10703042B6D
:100E780028BF0423BB61FB690433062B02D9FB6935
:100E8800033B00E000237B614FF0FF32BB6902FAAD
:100E980003F3DA43BB681A407B699A404FF0FF318D
:100EA8007B6901FA03F3D9437B680B401343184667
:100EB8002437BD465DF8047B7047000080B582B0DA
:100EC80000AF78607B68013BB3F1807F01D30123D9
:100ED8000FE00A4A7B68013B53600F214FF0FF3057
:100EE800FFF78EFF054B00229A60044B07221A6019
:100EF800002318460837BD4680BD00BF10E000E05B
:100F080080B582B000AF78607868FFF729FF00BF2E
:100F18000837BD4680BD80B586B000AF0346B960CE
:100F28007A60FB81FFF740FF78617A68B968786971
:100F3800FFF790FF0246B7F90E3011461846FFF743
:100F48005FFF00BF1837BD4680BD80B582B000AFD7
:100F58000346FB80B7F906301846FFF733FF00BF9A
:100F68000837BD4680BD80B582B000AF786078682C
:100F7800FFF7A4FF034618460837BD4680BD0000AA
:100F880080B400AFBFF35F8F00BF074B5B6A064AB0
:100F980023F480335362054B00225A6000BFBD46DC
:100FA8005DF8047B704700BF00ED00E090ED00E0C5
:100FB80080B483B000AF78600B4A7B6843F00103CC
:100FC80053600A4B5B6A094A43F480335362BFF3A8
:100FD8004F8F00BFBFF36F8F00BF00BF0C37BD46F8
:100FE8005DF8047B704700BF90ED00E000ED00E085
:100FF80080B483B000AF78607B685A781B4B9A60E6
:101008001A4B1B69194A23F001031361174A7B68BD
:101018005B68D3607B681B7B1A077B68DB7A1B06DF
:101028001A437B689B7ADB041A437B685B7B9B04CF
:101038001A437B689B7B5B041A437B68DB7B1B043E
:101048001A437B685B7A1B021A437B681B7A5B0036
:1010580013437A6812781146044A0B43136100BFA0
:101068000C37BD465DF8047B704700BF90ED00E08B
:1010780080B586B000AF7860FFF736FE38617B68D0
:10108800002B01D1012316E37B681B68664A934253
:101098004AD07B681B68654A934245D07B681B68C9
:1010A800634A934240D07B681B68624A93423BD0B4
:1010B8007B681B68604A934236D07B681B685F4A2E
:1010C800934231D07B681B685D4A93422CD07B6881
:1010D8001B685C4A934227D07B681B685A4A934234
:1010E80022D07B681B68594A93421DD07B681B68D5
:1010F800574A934218D07B681B68564A934213D0CC
:101108007B681B68544A93420ED07B681B68534A1D
:10111800934209D07B681B68514A934204D07B688C
:101128001B68504A934201D1012300E00023002BA1
:1011380000F03B817B68022283F835207B6800221F
:1011480083F834207B681B68374A93424AD07B680F
:101158001B68364A934245D07B681B68344A9342E1
:1011680040D07B681B68334A93423BD07B681B683E
:10117800314A934236D07B681B68304A934231D05B
:101188007B681B682E4A93422CD07B681B682D4ACB
:10119800934227D07B681B682B4A934222D07B68F6
:1011A8001B682A4A93421DD07B681B68284A9342D1
:1011B80018D07B681B68274A934213D07B681B684A
:1011C800254A93420ED07B681B68244A934209D073
:1011D8007B681B68224A934204D07B681B68214ABB
:1011E800934208D17B681B681A687B681B6822F0E9
:1011F80001021A6007E07B681B681A687B681B6835
:1012080022F001021A602FE0FFF76EFD02463B69EB
:10121800D31A052B28D97B6820225A657B680322BC
:1012280083F83520012346E21000024028000240DE
:10123800400002405800024070000240880002400E
:10124800A0000240B80002401004024028040240F6
:1012580040040240580402407004024088040240DE
:10126800A0040240B80402407B681B681B6803F0B6
:101278000103002BC8D17B681B681B687B617A69F6
:10128800834B13407B617B689A687B68DB681A43F1
:101298007B681B691A437B685B691A437B689B6997
:1012A8001A437B68DB691A437B681B6A13437A69B4
:1012B80013437B617B685B6A042B07D17B68DA6A1E
:1012C8007B681B6B13437A6913437B61714B1A6804
:1012D800714B1340B3F1005F28D37B685B68282B00
:1012E80003D97B685B682E2B17D97B685B683E2B1C
:1012F80003D97B685B68422B0FD97B685B68462BF8
:1013080003D97B685B68482B07D97B685B684E2BE1
:1013180005D97B685B68522B01D8012300E00023C4
:10132800002B03D07B6943F480137B617B681B68C7
:101338007A691A607B681B685B697B617B6923F04B
:1013480007037B617B685B6A7A6913437B617B680F
:101358005B6A042B17D17B689B6A7A6913437B61AC
:101368007B68DB6A002B0ED0786801F0CFFD03465E
:10137800002B08D07B6840225A657B68012283F8DD
:101388003520012397E17B681B687A695A61786880
:1013980001F00AFD0346BB607B68DB6D03F01F03A9
:1013A8003F229A40BB689A60CDE07B681B683B4A45
:1013B800934222D07B681B68394A93421DD07B68D0
:1013C8001B68384A934218D07B681B68364A934298
:1013D80013D07B681B68354A93420ED07B681B6824
:1013E800334A934209D07B681B68324A934204D03F
:1013F8007B681B68304A934201D1012300E0002337
:10140800002B00F097807B681B68244A934221D008
:101418007B681B68224A93421CD07B681B68214A60
:10142800934217D07B681B681F4A934212D07B688F
:101438001B681E4A93420DD07B681B681C4A934266
:1014480008D07B681B681B4A934203D07B681B68E3
:10145800194A93427B68022283F835207B68002270
:1014680083F834207B681B681B687B617A69134B9F
:1014780013407B617B689B68402B21D07B689B680D
:10148800802B02D14FF480431BE0002319E000BFFA
:101498003F8010FE0010005C0000FFFF0854025857
:1014A8001C54025830540258445402585854025894
:1014B8006C54025880540258945402580F00FEFF8E
:1014C80010237A68D268D2081A437B681B69DB0844
:1014D8001A437B685B69DB081A437B689B69DB08F6
:1014E8001A437B68DB69DB081A437B681B6A1B09A4
:1014F80013437A6913437B617B681B687A691A60B6
:101508007B681B681A466E4B13446E4AA2FB032382
:101518001B099A007B68DA65786801F045FC034688
:10152800FB607B68DB6D03F01F0301229A40FB68B8
:101538005A6008E07B6840225A657B68032283F87A
:1015480035200123B7E07B681B685F4A934272D05D
:101558007B681B685D4A93426DD07B681B685C4A58
:10156800934268D07B681B685A4A934263D07B6871
:101578001B68594A93425ED07B681B68574A93425E
:1015880059D07B681B68564A934254D07B681B68C5
:10159800544A93424FD07B681B68534A93424AD0BF
:1015A8007B681B68514A934245D07B681B68504A48
:1015B800934240D07B681B684E4A93423BD07B687D
:1015C8001B684D4A934236D07B681B684B4A93424E
:1015D80031D07B681B684A4A93422CD07B681B68D1
:1015E800484A934227D07B681B68474A934222D0D7
:1015F8007B681B68454A93421DD07B681B68444A38
:10160800934218D07B681B68424A934213D07B6888
:101618001B68414A93420ED07B681B683F4A93423D
:1016280009D07B681B683E4A934204D07B681B68DC
:101638003C4A934201D1012300E00023002B32D021
:10164800786801F0DFFC7B689B68802B02D17B689F
:1016580000225A607B685A687B681B6ED2B21A6097
:101668007B685B6E7A68926E5A607B685B68002B59
:1016780010D07B685B68082B0CD8786801F05CFD9B
:101688007B68DB6E00221A607B681B6F7A68526F7A
:101698005A6008E07B680022DA667B6800221A67D5
:1016A8007B6800225A677B6800225A657B680122A2
:1016B80083F83520002318461837BD4680BD00BF83
:1016C800F8ABFDA7CDCCCCCC1000024028000240DE
:1016D800400002405800024070000240880002406A
:1016E800A0000240B8000240100402402804024052
:1016F800400402405804024070040240880402403A
:10170800A0040240B8040240085402581C5402586D
:101718003054025844540258585402586C540258D1
:10172800805402589454025880B586B000AFF860CF
:10173800B9607A603B600023FB75FB68002B01D120
:10174800012326E2FB6893F83430012B01D10223F0
:101758001FE2FB68012283F83420FB6893F83530D8
:10176800DBB2012B40F00A82FB68022283F83520A5
:10177800FB6800225A65FB681B68684A93424AD096
:10178800FB681B68664A934245D0FB681B68654A3C
:10179800934240D0FB681B68634A93423BD0FB6886
:1017A8001B68624A934236D0FB681B68604A9342C2
:1017B80031D0FB681B685F4A93422CD0FB681B68DA
:1017C8005D4A934227D0FB681B685C4A934222D04B
:1017D800FB681B685A4A93421DD0FB681B68594A2C
:1017E800934218D0FB681B68574A934213D0FB6892
:1017F8001B68564A93420ED0FB681B68544A9342B2
:1018080009D0FB681B68534A934204D0FB681B68E5
:10181800514A934208D1FB681B681A68FB681B6829
:1018280022F001021A6007E0FB681B681A68FB686F
:101838001B6822F001021A603B687A68B968F86888
:1018480001F006F9FB681B68344A93424AD0FB68EA
:101858001B68334A934245D0FB681B68314A934260
:1018680040D0FB681B68304A93423BD0FB681B683A
:101878002E4A934236D0FB681B682D4A934231D0DA
:10188800FB681B682B4A93422CD0FB681B682A4ACA
:10189800934227D0FB681B68284A934222D0FB68F2
:1018A8001B68274A93421DD0FB681B68254A934250
:1018B80018D0FB681B68244A934213D0FB681B6846
:1018C800224A93420ED0FB681B68214A934209D0F2
:1018D800FB681B681F4A934204D0FB681B681E4ABA
:1018E800934201D1012300E00023002B36D0FB688E
:1018F8001B681B6823F01E02FB681B6842F0160277
:101908001A60FB681B6C002B3ED0FB681B681A68CA
:10191800FB681B6842F008021A6035E010000240BC
:101928002800024040000240580002407000024077
:1019380088000240A0000240B800024010040240A3
:101948002804024040040240580402407004024047
:1019580088040240A0040240B8040240FB681B68E7
:101968001B6823F00E02FB681B6842F00A021A602B
:10197800FB681B6C002B07D0FB681B681A68FB68A8
:101988001B6842F004021A60FB681B68834A934292
:1019980072D0FB681B68824A93426DD0FB681B6853
:1019A800804A934268D0FB681B687F4A934263D0A1
:1019B800FB681B687D4A93425ED0FB681B687C4AC3
:1019C800934259D0FB681B687A4A934254D0FB680B
:1019D8001B68794A93424FD0FB681B68774A934249
:1019E8004AD0FB681B68764A934245D0FB681B685F
:1019F800744A934240D0FB681B68734A93423BD0B9
:101A0800FB681B68714A934236D0FB681B68704AB2
:101A1800934231D0FB681B686E4A93422CD0FB6816
:101A28001B686D4A934227D0FB681B686B4A934238
:101A380022D0FB681B686A4A93421DD0FB681B686A
:101A4800684A934218D0FB681B68674A934213D0D0
:101A5800FB681B68654A93420ED0FB681B68644AA2
:101A6800934209D0FB681B68624A934204D0FB6822
:101A78001B68614A934201D1012300E00023002B37
:101A88001AD0FB681B6E1B6803F48033002B07D049
:101A9800FB681B6E1A68FB681B6E42F480721A6042
:101AA800FB68DB6E002B07D0FB68DB6E1A68FB68EF
:101AB800DB6E42F480721A60FB681B68374A9342F7
:101AC8004AD0FB681B68364A934245D0FB681B68BE
:101AD800344A934240D0FB681B68334A93423BD058
:101AE800FB681B68314A934236D0FB681B68304A52
:101AF800934231D0FB681B682E4A93422CD0FB6876
:101B08001B682D4A934227D0FB681B682B4A9342D7
:101B180022D0FB681B682A4A93421DD0FB681B68C9
:101B2800284A934218D0FB681B68274A934213D06F
:101B3800FB681B68254A93420ED0FB681B68244A41
:101B4800934209D0FB681B68224A934204D0FB6881
:101B58001B68214A934208D1FB681B681A68FB6816
:101B68001B6842F001021A6012E0FB681B681A68E1
:101B7800FB681B6842F001021A6009E0FB684FF439
:101B880000625A65FB68002283F834200123FB7544
:101B9800FB7D18461837BD4680BD00BF10000240C7
:101BA80028000240400002405800024070000240F5
:101BB80088000240A0000240B80002401004024021
:101BC80028040240400402405804024070040240C5
:101BD80088040240A0040240B80402400854025895
:101BE8001C5402583054025844540258585402584D
:101BF8006C540258805402589454025880B58AB0E4
:101C080000AF78600023FB60674B1B68674AA2FB44
:101C180003239B0A7B627B689B6D3B627B689B6DA1
:101C2800FB613B6A1B68BB61FB691B687B617B6866
:101C38001B685F4A93424AD07B681B685D4A93429F
:101C480045D07B681B685C4A934240D07B681B6820
:101C58005A4A93423BD07B681B68594A934236D014
:101C68007B681B68574A934231D07B681B68564A89
:101C780093422CD07B681B68544A934227D07B68D8
:101C88001B68534A934222D07B681B68514A93428F
:101C98001DD07B681B68504A934218D07B681B682C
:101CA8004E4A934213D07B681B684D4A93420ED02C
:101CB8007B681B684B4A934209D07B681B684A4A79
:101CC800934204D07B681B68484A934201D10123A0
:101CD80000E00023002B00F02B847B68DB6D03F011
:101CE8001F0308229A40BB691340002B00F0A28012
:101CF8007B681B682E4A93424AD07B681B682D4A32
:101D0800934245D07B681B682B4A934240D07B683E
:101D18001B682A4A93423BD07B681B68284A934237
:101D280036D07B681B68274A934231D07B681B6892
:101D3800254A93422CD07B681B68244A934227D0BB
:101D48007B681B68224A934222D07B681B68214A21
:101D580093421DD07B681B681F4A934218D07B684A
:101D68001B681E4A934213D07B681B681C4A934227
:101D78000ED07B681B681B4A934209D07B681B689E
:101D8800194A934204D07B681B68184A93422FD1A2
:101D98007B681B681B6803F00403002B14BF012336
:101DA8000023DBB22EE000BF00000024B5814E1BEB
:101DB8001000024028000240400002405800024043
:101DC8007000024088000240A0000240B8000240B3
:101DD8001004024028040240400402405804024013
:101DE8007004024088040240A0040240B804024083
:101DF8007B681B681B6803F00803002B14BF0123D2
:101E08000023DBB2002B15D07B681B681A687B683F
:101E18001B6822F004021A607B68DB6D03F01F0365
:101E280008229A403B6A9A607B685B6D43F0010226
:101E38007B685A657B68DB6D03F01F03BA6922FA79
:101E480003F303F00103002B6ED07B681B68694A1B
:101E580093424AD07B681B68674A934245D07B68A7
:101E68001B68664A934240D07B681B68644A934269
:101E78003BD07B681B68634A934236D07B681B68FB
:101E8800614A934231D07B681B68604A93422CD0E8
:101E98007B681B685E4A934227D07B681B685D4A53
:101EA800934222D07B681B685B4A93421DD07B68B3
:101EB8001B685A4A934218D07B681B68584A934259
:101EC80013D07B681B68574A93420ED07B681B6807
:101ED800554A934209D07B681B68544A934204D000
:101EE8007B681B68524A93420AD17B681B685B690E
:101EF80003F08003002B14BF01230023DBB203E0AF
:101F08007B681B681B680023002B0DD07B68DB6D8A
:101F180003F01F0301229A403B6A9A607B685B6D5D
:101F280043F002027B685A657B68DB6D03F01F0390
:101F380004229A40BB691340002B00F08F807B6815
:101F48001B682C4A93424AD07B681B682A4A9342F2
:101F580045D07B681B68294A934240D07B681B6840
:101F6800274A93423BD07B681B68264A934236D067
:101F78007B681B68244A934231D07B681B68234ADC
:101F880093422CD07B681B68214A934227D07B68F8
:101F98001B68204A934222D07B681B681E4A9342E2
:101FA8001DD07B681B681D4A934218D07B681B684C
:101FB8001B4A934213D07B681B681A4A93420ED07F
:101FC8007B681B68184A934209D07B681B68174ACC
:101FD800934204D07B681B68154A93422AD17B68D8
:101FE8001B681B6803F00203002B14BF01230023A6
:101FF800DBB223E01000024028000240400002400B
:10200800580002407000024088000240A0000240D0
:10201800B800024010040240280402404004024074
:10202800580402407004024088040240A0040240A0
:10203800B80402407B681B681B680023002B0DD086
:102048007B68DB6D03F01F0304229A403B6A9A60A9
:102058007B685B6D43F004027B685A657B68DB6DC7
:1020680003F01F0310229A40BB691340002B00F0B5
:10207800A6807B681B68854A93424AD07B681B68A8
:10208800834A934245D07B681B68824A934240D07A
:102098007B681B68804A93423BD07B681B687F4AF9
:1020A800934236D07B681B687D4A934231D07B6867
:1020B8001B687C4A93422CD07B681B687A4A9342FF
:1020C80027D07B681B68794A934222D07B681B68BB
:1020D800774A93421DD07B681B68764A934218D092
:1020E8007B681B68744A934213D07B681B68734AE9
:1020F80093420ED07B681B68714A934209D07B6873
:102108001B68704A934204D07B681B686E4A9342EE
:102118000AD17B681B681B6803F00803002B14BFF7
:1021280001230023DBB209E07B681B681B6803F00E
:102138000403002B14BF01230023DBB2002B3ED085
:102148007B68DB6D03F01F0310229A403B6A9A609C
:102158007B681B681B6803F48023002B18D07B68FE
:102168001B681B6803F40023002B08D17B681B6CD9
:10217800002B24D07B681B6C786898471FE07B682D
:102188009B6C002B1BD07B689B6C7868984716E08B
:102198007B681B681B6803F48073002B07D17B687E
:1021A8001B681A687B681B6822F008021A607B6843
:1021B8001B6C002B03D07B681B6C786898477B6886
:1021C800DB6D03F01F0320229A40BB691340002BEC
:1021D80000F010817B681B682C4A93424AD07B68C8
:1021E8001B682B4A934245D07B681B68294A934257
:1021F80040D07B681B68284A93423BD07B681B68A9
:10220800264A934236D07B681B68254A934231D0D0
:102218007B681B68234A93422CD07B681B68224A40
:10222800934227D07B681B68204A934222D07B6860
:102238001B681F4A93421DD07B681B681D4A934246
:1022480018D07B681B681C4A934213D07B681B68B4
:102258001A4A93420ED07B681B68194A934209D0E8
:102268007B681B68174A934204D07B681B68164A30
:1022780093422BD17B681B681B6803F01003002B6B
:1022880014BF01230023DBB22AE000BF1000024084
:1022980028000240400002405800024070000240FE
:1022A80088000240A0000240B8000240100402402A
:1022B80028040240400402405804024070040240CE
:1022C80088040240A0040240B80402407B681B68EE
:1022D8001B6803F00203002B14BF01230023DBB2A9
:1022E800002B00F087807B68DB6D03F01F03202242
:1022F8009A403B6A9A607B6893F83530DBB2042BCE
:1023080039D17B681B681A687B681B6822F0160243
:102318001A607B681B685A697B681B6822F0800218
:102328005A617B681B6C002B03D17B689B6C002B6C
:1023380007D07B681B681A687B681B6822F0080254
:102348001A607B68DB6D03F01F033F229A403B6AEB
:102358009A607B68012283F835207B68002283F825
:1023680034207B681B6D002B00F04A837B681B6D53
:102378007868984744E37B681B681B6803F48023EC
:10238800002B18D07B681B681B6803F40023002B04
:1023980008D17B685B6C002B2CD07B685B6C786801
:1023A800984727E07B68DB6B002B23D07B68DB6BCF
:1023B800786898471EE07B681B681B6803F4807385
:1023C800002B0FD17B681B681A687B681B6822F09A
:1023D80010021A607B68012283F835207B6800228E
:1023E80083F834207B68DB6B002B03D07B68DB6BC6
:1023F800786898477B685B6D002B00F006837B68E4
:102408005B6D03F00103002B00F088807B680422D9
:1024180083F835207B681B687A4A93424AD07B68E8
:102428001B68794A934245D07B681B68774A934278
:1024380040D07B681B68764A93423BD07B681B6818
:10244800744A934236D07B681B68734A934231D0F2
:102458007B681B68714A93422CD07B681B68704A62
:10246800934227D07B681B686E4A934222D07B68D0
:102478001B686D4A93421DD07B681B686B4A934268
:1024880018D07B681B686A4A934213D07B681B6824
:10249800684A93420ED07B681B68674A934209D00A
:1024A8007B681B68654A934204D07B681B68644A52
:1024B800934208D17B681B681A687B681B6822F006
:1024C80001021A6007E07B681B681A687B681B6852
:1024D80022F001021A60FB680133FB607A6A9A42B3
:1024E80007D37B681B681B6803F00103002BF2D13C
:1024F80000E000BF7B681B681B6803F00103002B2A
:1025080004D07B68032283F8352003E07B6801222E
:1025180083F835207B68002283F834207B68DB6CE5
:10252800002B00F072827B68DB6C786898476CE25D
:102538007B681B68434A934222D07B681B68424AE7
:1025480093421DD07B681B68404A934218D07B6831
:102558001B683F4A934213D07B681B683D4A9342ED
:102568000ED07B681B683C4A934209D07B681B6885
:102578003A4A934204D07B681B68394A934201D196
:10258800012300E00023002B00F03F827B681B68DA
:102598001B683B617B68DB6D03F01F0304229A40D4
:1025A8007B691340002B00F0CD803B6903F00403E6
:1025B800002B00F0C7807B68DB6D03F01F0304224B
:1025C8009A40FB695A603B6903F40043002B49D0E9
:1025D8003B6903F48033002B09D17B689B6C002B8B
:1025E80000F010827B689B6C786898470AE27B68E9
:1025F8001B6C002B00F006827B681B6C7868984780
:1026080000E200BF100002402800024040000240E3
:10261800580002407000024088000240A0000240BA
:10262800B80002401004024028040240400402405E
:10263800580402407004024088040240A00402408A
:10264800B8040240085402581C5402583054025826
:1026580044540258585402586C5402588054025832
:10266800945402583B6903F02003002B60D17B6827
:102678001B687F4A93424AD07B681B687D4A934215
:1026880045D07B681B687C4A934240D07B681B68B6
:102698007A4A93423BD07B681B68794A934236D08A
:1026A8007B681B68774A934231D07B681B68764AFF
:1026B80093422CD07B681B68744A934227D07B686E
:1026C8001B68734A934222D07B681B68714A934205
:1026D8001DD07B681B68704A934218D07B681B68C2
:1026E8006E4A934213D07B681B686D4A93420ED0A2
:1026F8007B681B686B4A934209D07B681B686A4AEF
:10270800934204D07B681B68684A934208D17B686F
:102718001B681A687B681B6822F008021A6007E0C9
:102728007B681B681A687B681B6822F004021A60C1
:102738007B681B6C002B00F065817B681B6C7868DC
:1027480098475FE17B68DB6D03F01F0302229A4024
:102758007B691340002B00F0C5803B6903F002033E
:10276800002B00F0BF807B68DB6D03F01F030222A3
:102778009A40FB695A603B6903F40043002B18D068
:102788003B6903F48033002B09D17B685B6C002B19
:1027980000F03A817B685B6C7868984734E17B6825
:1027A800DB6B002B00F030817B68DB6B7868984727
:1027B8002AE13B6903F02003002B40F089807B6805
:1027C8001B682B4A93424AD07B681B68294A93426C
:1027D80045D07B681B68284A934240D07B681B68B9
:1027E800264A93423BD07B681B68254A934236D0E1
:1027F8007B681B68234A934231D07B681B68224A56
:1028080093422CD07B681B68204A934227D07B6870
:102818001B681F4A934222D07B681B681D4A93425B
:102828001DD07B681B681C4A934218D07B681B68C4
:102838001A4A934213D07B681B68194A93420ED0F8
:102848007B681B68174A934209D07B681B68164A45
:10285800934204D07B681B68144A934228D17B6852
:102868001B681A687B681B6822F014021A6027E04C
:102878001000024028000240400002405800024078
:102888007000024088000240A0000240B8000240E8
:102898001004024028040240400402405804024048
:1028A8007004024088040240A0040240B8040240B8
:1028B8007B681B681A687B681B6822F00A021A602A
:1028C8007B68012283F835207B68002283F8342056
:1028D8007B68DB6B002B00F097807B68DB6B78688C
:1028E800984791E07B68DB6D03F01F0308229A404C
:1028F8007B691340002B00F088803B6903F00803D4
:10290800002B00F082807B681B68414A93424AD0C2
:102918007B681B683F4A934245D07B681B683E4AE8
:10292800934240D07B681B683C4A93423BD07B680B
:102938001B683B4A934236D07B681B68394A9342EE
:1029480031D07B681B68384A93422CD07B681B685F
:10295800364A934227D07B681B68354A934222D077
:102968007B681B68334A93421DD07B681B68324AD8
:10297800934218D07B681B68304A934213D07B6817
:102988001B682F4A93420ED07B681B682D4A9342DE
:1029980009D07B681B682C4A934204D07B681B686B
:1029A8002A4A934208D17B681B681A687B681B68AF
:1029B80022F01C021A6007E07B681B681A687B68B3
:1029C8001B6822F00E021A607B68DB6D03F01F03A0
:1029D80001229A40FB695A607B6801225A657B682C
:1029E800012283F835207B68002283F834207B6835
:1029F800DB6C002B09D07B68DB6C7868984704E0B7
:102A080000BF02E000BF00E000BF2837BD4680BD20
:102A180010000240280002404000024058000240D6
:102A28007000024088000240A0000240B800024046
:102A380010040240280402404004024058040240A6
:102A48007004024088040240A0040240B804024016
:102A580080B487B000AFF860B9607A603B60FB680B
:102A68009B6D7B61FB689B6D3B61FB681B687F4AC4
:102A7800934272D0FB681B687D4A93426DD0FB6815
:102A88001B687C4A934268D0FB681B687A4A934269
:102A980063D0FB681B68794A93425ED0FB681B6869
:102AA800774A934259D0FB681B68764A934254D0C0
:102AB800FB681B68744A93424FD0FB681B68734AD3
:102AC80093424AD0FB681B68714A934245D0FB6821
:102AD8001B68704A934240D0FB681B686E4A934259
:102AE8003BD0FB681B686D4A934236D0FB681B6875
:102AF8006B4A934231D0FB681B686A4A93422CD0D8
:102B0800FB681B68684A934227D0FB681B68674AC2
:102B1800934222D0FB681B68654A93421DD0FB682C
:102B28001B68644A934218D0FB681B68624A934248
:102B380013D0FB681B68614A93420ED0FB681B6880
:102B48005F4A934209D0FB681B685E4A934204D0EF
:102B5800FB681B685C4A934201D1012300E0002313
:102B6800002B0DD0FB685B6EFA68926E5A60FB68AA
:102B7800DB6E002B04D0FB681B6FFA68526F5A603B
:102B8800FB681B68394A93424AD0FB681B68384A7D
:102B9800934245D0FB681B68364A934240D0FB6895
:102BA8001B68354A93423BD0FB681B68334A934203
:102BB80036D0FB681B68324A934231D0FB681B68E9
:102BC800304A93422CD0FB681B682F4A934227D087
:102BD800FB681B682D4A934222D0FB681B682C4A6D
:102BE80093421DD0FB681B682A4A934218D0FB68A1
:102BF8001B68294A934213D0FB681B68274A9342F3
:102C08000ED0FB681B68264A934209D0FB681B68F4
:102C1800244A934204D0FB681B68234A934201D19B
:102C2800012300E00023002B59D0FB68DB6D03F083
:102C38001F033F229A407B699A60FB681B681A68E9
:102C4800FB681B6822F480221A60FB681B683A68DC
:102C58005A60FB689B68402B38D1FB681B687A6810
:102C68009A60FB681B68BA68DA6086E01000024068
:102C78002800024040000240580002407000024014
:102C880088000240A0000240B80002401004024040
:102C980028040240400402405804024070040240E4
:102CA80088040240A0040240B804024008540258B4
:102CB8001C5402583054025844540258585402586C
:102CC8006C5402588054025894540258FB681B688C
:102CD800BA689A60FB681B687A68DA604DE0FB683E
:102CE8001B68294A934222D0FB681B68274A9342F3
:102CF8001DD0FB681B68264A934218D0FB681B68E6
:102D0800244A934213D0FB681B68234A93420ED08F
:102D1800FB681B68214A934209D0FB681B68204A5C
:102D2800934204D0FB681B681E4A934201D10123D9
:102D380000E00023002B20D0FB68DB6D03F01F03AD
:102D480001229A403B695A60FB681B683A685A60DE
:102D5800FB689B68402B08D1FB681B687A689A60FF
:102D6800FB681B68BA68DA6007E0FB681B68BA682A
:102D78009A60FB681B687A68DA6000BF1C37BD463A
:102D88005DF8047B704700BF085402581C54025871
:102D98003054025844540258585402586C5402583B
:102DA800805402589454025880B485B000AF7860BB
:102DB8007B681B68424A93424AD07B681B68414A39
:102DC800934245D07B681B683F4A934240D07B685A
:102DD8001B683E4A93423BD07B681B683C4A93423F
:102DE80036D07B681B683B4A934231D07B681B68AE
:102DF800394A93422CD07B681B68384A934227D0C3
:102E08007B681B68364A934222D07B681B68354A28
:102E180093421DD07B681B68334A934218D07B6865
:102E28001B68324A934213D07B681B68304A93422E
:102E38000ED07B681B682F4A934209D07B681B68B9
:102E48002D4A934204D07B681B682C4A934201D1D7
:102E5800012300E00023002B24D07B681B68DBB231
:102E6800103B274AA2FB03231B09FB60FB6803F006
:102E78000703244AD35C1A467B68DA65FB68032B90
:102E880008D97B681B681A461F4B13401A1D7B68BC
:102E98009A650DE07B681B681A461B4B13407A68DD
:102EA800936505E07B681B6823F0FF027B689A65E1
:102EB8007B689B6D18461437BD465DF8047B7047E8
:102EC8001000024028000240400002405800024022
:102ED8007000024088000240A0000240B800024092
:102EE80010040240280402404004024058040240F2
:102EF8007004024088040240A0040240B804024062
:102F0800ABAAAAAAD081000800FCFFFF80B485B054
:102F180000AF78600023FB737B689B69002B20D18E
:102F28007B689B6A032B58D801A252F823F000BF94
:102F3800492F00085B2F0008492F0008E32F0008DD
:102F48007B68DB6A03F08073002B48D00123FB7396
:102F580045E07B68DB6AB3F1C07F42D10123FB7394
:102F68003FE07B689B69B3F5005F23D17B689B6A70
:102F7800032B38D801A252F823F000BF952F000880
:102F88009B2F0008952F0008AD2F00080123FB7325
:102F980030E07B68DB6A03F08073002B25D00123C7
:102FA800FB7322E07B68DB6AB3F1C07F1FD101238A
:102FB800FB731CE07B689B6A022B02D9032B03D0AE
:102FC80018E00123FB7315E07B68DB6A03F080736C
:102FD800002B0ED00123FB730BE000BF0AE000BFFB
:102FE80008E000BF06E000BF04E000BF02E000BF49
:102FF80000E000BFFB7B18461437BD465DF8047B34
:10300800704700BF80B485B000AF78607B681B68EC
:10301800BB607B681B68384A934222D07B681B6878
:10302800364A93421DD07B681B68354A934218D0B4
:103038007B681B68334A934213D07B681B68324A0B
:1030480093420ED07B681B68304A934209D07B6854
:103058001B682F4A934204D07B681B682D4A934211
:1030680001D1012300E00023002B1AD07B681B68E4
:10307800DBB2083B284AA2FB03231B09FB60FA6862
:10308800264B13449B001A467B681A667B68244AC1
:103098005A66FB6803F01F0301229A407B689A6610
:1030A80024E07B681B68DBB2103B1E4AA2FB0323AB
:1030B8001B09FB60BB681C4A934206D8BB681B4AC5
:1030C800934202D9FB680833FB60FA68184B134433
:1030D8009B001A467B681A667B68164A5A66FB6824
:1030E80003F01F0301229A407B689A6600BF1437D9
:1030F800BD465DF8047B7047085402581C540258BA
:103108003054025844540258585402586C540258C7
:103118008054025894540258CDCCCCCC009600165A
:1031280080580258ABAAAAAAB80402400F04024069
:10313800008200108008024080B485B000AF78603B
:103148007B685B68DBB2FB60FB68002B4AD0FB68DE
:10315800082B47D87B681B68254A934222D07B6896
:103168001B68244A93421DD07B681B68224A9342FD
:1031780018D07B681B68214A934213D07B681B6870
:103188001F4A93420ED07B681B681E4A934209D09F
:103198007B681B681C4A934204D07B681B681B4AE7
:1031A800934201D1012300E00023002B0AD0FA68E2
:1031B800174B13449B001A467B68DA667B68154AEE
:1031C8001A6709E0FA68144B13449B001A467B6897
:1031D800DA667B68114A1A67FB68013B01229A404C
:1031E8007B685A6700BF1437BD465DF8047B70479B
:1031F800085402581C540258305402584454025877
:10320800585402586C540258805402589454025826
:103218003F960016405902583F820010400902406C
:1032280080B489B000AF786039600023FB61894BB6
:103238007B6194E13B681A680121FB6901FA03F399
:1032480013403B613B69002B00F086813B685B685B
:1032580003F00303012B05D03B685B6803F003030D
:10326800022B30D17B689B68BB61FB695B00032242
:1032780002FA03F3DB43BA691340BB613B68DA68BF
:10328800FB695B0002FA03F3BA691343BB617B680D
:10329800BA699A607B685B68BB610122FB6902FAC4
:1032A80003F3DB43BA691340BB613B685B681B09E6
:1032B80003F00102FB6902FA03F3BA691343BB6125
:1032C8007B68BA695A603B685B6803F00303032BA9
:1032D80017D07B68DB68BB61FB695B00032202FADD
:1032E80003F3DB43BA691340BB613B689A68FB6927
:1032F8005B0002FA03F3BA691343BB617B68BA69DE
:10330800DA603B685B6803F00303022B23D1FB6997
:10331800DA087B68083253F82230BB61FB6903F096
:1033280007039B000F2202FA03F3DB43BA69134039
:10333800BB613B681A69FB6903F007039B0002FA4B
:1033480003F3BA691343BB61FB69DA087B68083287
:10335800B96943F822107B681B68BB61FB695B0095
:10336800032202FA03F3DB43BA691340BB613B68EB
:103378005B6803F00302FB695B0002FA03F3BA69B6
:103388001343BB617B68BA691A603B685B6803F4E6
:103398004033002B00F0E0802F4BD3F8F4302E4A56
:1033A80043F00203C2F8F4302B4BD3F8F43003F0A7
:1033B8000203FB60FB68294AFB699B08023352F849
:1033C8002330BB61FB6903F003039B000F2202FA61
:1033D80003F3DB43BA691340BB617B68204A93421D
:1033E80052D07B681F4A934231D07B681E4A934271
:1033F8002BD07B681D4A934225D07B681C4A934298
:103408001FD07B681B4A934219D07B681A4A9342A3
:1034180013D07B68194A93420DD07B68184A9342AF
:1034280007D07B68174A934201D109232DE00A236C
:103438002BE0082329E0072327E0062325E00523BE
:1034480023E0042321E003231FE002231DE00123DE
:103458001BE000BF800000580044025800040058D8
:10346800000002580004025800080258000C0258D4
:10347800001002580014025800180258001C025884
:1034880000200258002402580023FA6902F00302BF
:1034980092009340BA691343BB613849FB699B08A2
:1034A8000233BA6941F823204FF0B0431B68BB616F
:1034B8003B69DB43BA691340BB613B685B6803F453
:1034C8008013002B03D0BA693B691343BB614FF0EB
:1034D800B042BB6913604FF0B0435B68BB613B69A6
:1034E800DB43BA691340BB613B685B6803F40013B4
:1034F800002B03D0BA693B691343BB614FF0B0425C
:10350800BB6953607B695B68BB613B69DB43BA6934
:103518001340BB613B685B6803F40033002B03D0A6
:10352800BA693B691343BB617B69BA695A607B69B5
:103538001B68BB613B69DB43BA691340BB613B68ED
:103548005B6803F48033002B03D0BA693B691343EB
:10355800BB617B69BA691A60FB690133FB613B682F
:103568001A68FB6922FA03F3002B7FF463AE00BFED
:1035780000BF2437BD465DF8047B7047000400583F
:1035880080B588B000AF78607B68002B01D101233B
:103598000DE17B6893F84D30DBB2002B06D17B68D8
:1035A800002283F84C207868FDF706F97B68022230
:1035B80083F84D207B681B681B6803F00103012B0F
:1035C80007D17B681B681A687B681B6822F00102B8
:1035D8001A607B681B6800221A657B685B68042B8D
:1035E80008D07B685B68062B04D07B685B680A2B75
:1035F80040F087807B685B69022B5AD07B68DB6868
:10360800002B02D002237B6101E001237B617B68F0
:103618009B68302B03D07B689B68B02B02D10123B9
:10362800FB6001E00023FB604FF480504FF0000185
:1036380002F0F2FBB8607B681B69B3F1007F13D11D
:103648004FF48072FB6822FA03F3BA68B2FBF3F214
:1036580013469B0013445B001A467B685B69B2FB08
:10366800F3F305333B6114E02022FB6822FA03F3ED
:103678007A6902FB03F3BA68B2FBF3F213469B00C4
:1036880013445B001A467B685B69B2FBF3F30533AE
:103698003B613B69484AA2FB0323DB083B613B696A
:1036A80003F00103BB613A69BB69D31A5B08FB618C
:1036B80003E00223FB610023BB61BB69012B02D13C
:1036C800FB69012B02D0FB69FF2B07D97B681B6DB7
:1036D80043F010027B681A65012368E0FB69002B40
:1036E80001D10123BB617B681B681A6D334B134002
:1036F800FA691104BA69120611437A6812680B4311
:1037080013657B681B681A6D2D4B13407A685168E6
:103718007A68926811437A68D26811437A68926924
:1037280011437A68126A11437A68526A11437A68B7
:1037380012690A431A437B681B6842F001021A6542
:103748007B681B6840F6F8729A617B681B681A6888
:103758007B681B6822F480321A607B681B68DB6810
:1037680023F400017B68DA697B681B680A43DA6026
:103778007B685B68042B07D07B685B68062B03D0EB
:103788007B685B680A2B0AD17B681B68DB6823F0BF
:1037980000417B689A6A7B681B680A43DA607B6829
:1037A80000221A657B68012283F84D200023184601
:1037B8002037BD4680BD00BFCDCCCCCCFFFF00FE7E
:1037C8004090FFFD80B586B000AFF860B960134641
:1037D800FB800023FB75BB68002B02D0FB88002B05
:1037E80001D1012386E0FB6893F84D30DBB2012B51
:1037F80001D002237EE0FB6893F84C30DBB2012B4A
:1038080001D1022376E0FB68012283F84C20FB6893
:10381800042283F84D20FB6800221A65FB68BA6809
:103828005A63FB68FA881A87FB68FA885A87FB6824
:103838000022DA62FB6800221A86FB6800225A8698
:10384800FB689B6C2D4A1A64FB689B6C2C4ADA63F4
:10385800FB689B6C2B4ADA64FB68986CFB681B68F6
:1038680030331946FB685B6B1A46FB685B8F9BB26B
:10387800FDF75AFF0346002B11D0FB681B6D43F080
:103888000802FB681A65FB68012283F84D200123B2
:10389800FB75FB68002283F84C20FB7D2AE0FB685F
:1038A8001B689B6803F48043002B07D1FB681B68E7
:1038B8009A68FB681B6842F480429A60FB681B6840
:1038C8001B6803F00103002B07D1FB681B681A680B
:1038D800FB681B6842F001021A60FB681B681A68E3
:1038E800FB681B6842F400721A60FB68002283F8C8
:1038F8004C20FB7D18461837BD4680BD8F3900081F
:103908004D390008AB39000880B483B000AF786047
:1039180000BF0C37BD465DF8047B704780B483B0A8
:1039280000AF786000BF0C37BD465DF8047B704778
:1039380080B483B000AF786000BF0C37BD465DF837
:10394800047B704780B584B000AF78607B689B6B60
:10395800FB607B68DB69002B0ED1FB681B689A68EB
:10396800FB681B6822F480429A60FB6800225A8731
:10397800FB68012283F84D20F868FFF7CFFF00BFEE
:103988001037BD4680BD80B584B000AF78607B68D5
:103998009B6BFB60F868FFF7B7FF00BF1037BD46A9
:1039A80080BD80B584B000AF78607B689B6BFB609E
:1039B800FB681B689A68FB681B6822F440429A609F
:1039C800FB6800225A86FB6800225A87FB6801229E
:1039D80083F84D20FB681B6D43F00802FB681A65ED
:1039E800F868FFF7A5FF00BF1037BD4680BD00008F
:1039F80080B584B000AF7860194BDB6803F004032E
:103A0800042B0AD0164BDB6803F007037A689A4246
:103A180001D001231FE000231DE0114BDB6823F0D8
:103A280007020F497B681343CB60FDF75DF9F86027
:103A380009E0FDF759F90246FB68D31AB3F57A7F16
:103A480001D9012307E0064B5B6803F40053B3F583
:103A5800005FEED1002318461037BD4680BD00BF79
:103A68000048025880B58CB000AF78607B68002BA6
:103A780002D1012300F048BC7B681B6803F00103F6
:103A8800002B00F08880994B1B6903F03803FB6218
:103A9800964B9B6ABB62FB6A102B07D0FB6A182BFC
:103AA80011D1BB6A03F00303022B0CD18F4B1B68A7
:103AB80003F40033002B6DD07B685B68002B69D161
:103AC800012300F021BC7B685B68B3F5803F06D119
:103AD800864B1B68854A43F4803313602EE07B686D
:103AE8005B68002B0CD1814B1B68804A23F4803320
:103AF80013607E4B1B687D4A23F4802313601DE00E
:103B08007B685B68B3F5A02F0CD1784B1B68774AAC
:103B180043F480231360754B1B68744A43F4803365
:103B280013600BE0714B1B68704A23F480331360F9
:103B38006E4B1B686D4A23F4802313607B685B68B7
:103B4800002B13D0FDF7D0F8786208E0FDF7CCF829
:103B580002467B6AD31A642B01D90323D4E3634B4F
:103B68001B6803F40033002BF0D014E0FDF7BCF819
:103B7800786208E0FDF7B8F802467B6AD31A642B2E
:103B880001D90323C0E3594B1B6803F40033002B0E
:103B9800F0D100E000BF7B681B6803F00203002B34
:103BA80000F0CA80514B1B6903F038033B624F4B4E
:103BB8009B6AFB613B6A002B07D03B6A182B56D1E6
:103BC800FB6903F00303002B51D1484B1B6803F03A
:103BD8000403002B05D07B68DB68002B01D101238F
:103BE80092E3424B1B6823F019027B68DB683F496C
:103BF80013430B60FDF778F8786208E0FDF774F876
:103C080002467B6AD31A022B01D903237CE3374B84
:103C18001B6803F00403002BF0D0FDF795F803466A
:103C280041F20302934217D87B681B69402B08D1E5
:103C38002E4B5B6823F47C332C4A43F400335360E7
:103C48007AE02A4B5B6823F47C327B681B691B0390
:103C5800264913434B606FE0244B5B6823F0FE4218
:103C68007B681B691B06214913434B6064E07B6832
:103C7800DB68002B47D01D4B1B6823F019027B68BB
:103C8800DB681A4913430B60FDF72EF8786208E0E9
:103C9800FDF72AF802467B6AD31A022B01D90323BF
:103CA80032E3124B1B6803F00403002BF0D0FDF73E
:103CB8004BF8034641F20302934219D87B681B690B
:103CC800402B08D1094B5B6823F47C33074A43F443
:103CD8000033536030E0054B5B6823F47C327B682B
:103CE8001B691B03014913434B6025E0004402583C
:103CF8009A4B5B6823F0FE427B681B691B06974959
:103D080013434B6018E0954B1B68944A23F001035A
:103D18001360FCF7E9FF786208E0FCF7E5FF02466C
:103D28007B6AD31A022B01D90323EDE28B4B1B6864
:103D380003F00403002BF0D17B681B6803F0100329
:103D4800002B00F0A980854B1B6903F03803BB6189
:103D5800824B9B6A7B61BB69082B07D0BB69182B18
:103D68003AD17B6903F00303012B35D17B4B1B68E8
:103D780003F48073002B05D07B68DB69802B01D0AE
:103D88000123C1E2FCF7E0FF034641F2030293423C
:103D980017D87B681B6A202B08D1704B5B6823F00F
:103DA800F8436E4A43F08043536075E06B4B5B68A1
:103DB80023F0F8427B681B6A9B06684913434B60F3
:103DC8006AE0664BDB6823F07C527B681B6A1B0643
:103DD80062491343CB605FE07B68DB69002B42D00C
:103DE8005E4B1B685D4A43F080031360FCF77CFF61
:103DF800786208E0FCF778FF02467B6AD31A022B48
:103E080001D9032380E2554B1B6803F48073002B10
:103E1800F0D0FCF799FF034641F20302934217D80A
:103E28007B681B6A202B08D14C4B5B6823F0F84356
:103E38004A4A43F0804353602EE0484B5B6823F0C6
:103E4800F8427B681B6A9B06444913434B6023E096
:103E5800424BDB6823F07C527B681B6A1B063F4998
:103E68001343CB6018E03D4B1B683C4A23F08003AA
:103E78001360FCF739FF786208E0FCF735FF02466B
:103E88007B6AD31A022B01D903233DE2334B1B680B
:103E980003F48073002BF0D17B681B6803F00803E0
:103EA800002B36D07B685B69002B19D02B4B5B6FDE
:103EB8002A4A43F001035367FCF716FF786208E0CB
:103EC800FCF712FF02467B6AD31A022B01D903239F
:103ED8001AE2224B5B6F03F00203002BF0D018E0CC
:103EE8001E4B5B6F1D4A23F001035367FCF7FCFE72
:103EF800786208E0FCF7F8FE02467B6AD31A022BC8
:103F080001D9032300E2154B5B6F03F00203002B7A
:103F1800F0D17B681B6803F02003002B39D07B6845
:103F28009B69002B1CD00D4B1B680C4A43F4805333
:103F38001360FCF7D9FE786208E0FCF7D5FE02466C
:103F48007B6AD31A022B01D90323DDE1034B1B68DB
:103F580003F40053002BF0D01BE000BF00440258CC
:103F68009B4B1B689A4A23F480531360FCF7BCFEF2
:103F7800786208E0FCF7B8FE02467B6AD31A022B87
:103F880001D90323C0E1924B1B6803F40053002BB3
:103F9800F0D17B681B6803F00403002B00F08180DC
:103FA8008C4B1B688B4A43F480731360FCF79CFEB0
:103FB800786208E0FCF798FE02467B6AD31A642B05
:103FC80001D90323A0E1834B1B6803F48073002B02
:103FD800F0D07B689B68012B06D17D4B1B6F7C4A18
:103FE80043F0010313672DE07B689B68002B0CD11D
:103FF800774B1B6F764A23F001031367744B1B6FD3
:10400800734A23F0040313671CE07B689B68052B45
:104018000CD16F4B1B6F6E4A43F0040313676C4B54
:104028001B6F6B4A43F0010313670BE0684B1B6F70
:10403800674A23F001031367654B1B6F644A23F03B
:10404800040313677B689B68002B15D0FCF74CFEB4
:1040580078620AE0FCF748FE02467B6AD31A41F20E
:104068008832934201D903234EE1594B1B6F03F069
:104078000203002BEED014E0FCF736FE78620AE06B
:10408800FCF732FE02467B6AD31A41F28832934229
:1040980001D9032338E14E4B1B6F03F00203002BB9
:1040A800EED17B685B6A002B00F02D81484B1B69C1
:1040B80003F03803182B00F0BD807B685B6A022B85
:1040C80040F09E80424B1B68414A23F08073136086
:1040D800FCF70AFE786208E0FCF706FE02467B6AF7
:1040E800D31A022B01D903230EE1394B1B6803F0C5
:1040F8000073002BF0D1364B9A6A374B13407A681D
:10410800916A7A68D26A12010A43314913438B6271
:104118007B681B6B013BC3F308027B685B6B013B4D
:104128005B029BB21A437B689B6B013B1B0403F445
:10413800FE031A437B68DB6B013B1B0603F0FE435F
:10414800234913430B63224BDB6A214A23F0010303
:10415800D3621F4B5A6B214B13407A68926CD20082
:104168001B4913434B631A4BDB6A23F00C027B6831
:104178001B6C17491343CB62154BDB6A23F0020211
:104188007B685B6C12491343CB62114BDB6A104AA4
:1041980043F48033D3620E4BDB6A0D4A43F4003399
:1041A800D3620B4BDB6A0A4A43F48023D362084B81
:1041B800DB6A074A43F00103D362054B1B68044AD4
:1041C80043F080731360FCF78FFD786211E000BF45
:1041D80000440258004802580CFCFFFF0700FFFF8C
:1041E800FCF782FD02467B6AD31A022B01D903230E
:1041F8008AE0474B1B6803F00073002BF0D082E085
:10420800434B1B68424A23F080731360FCF76CFD34
:10421800786208E0FCF768FD02467B6AD31A022B35
:1042280001D9032370E03A4B1B6803F00073002B9D
:10423800F0D168E0364B9B6A3B61354B1B6BFB60EA
:104248007B685B6A012B31D03B6903F003027B6812
:104258009B6A9A422AD13B691B0903F03F027B689B
:10426800DB6A9A4222D1FB68C3F308027B681B6BA6
:10427800013B9A421AD1FB685B0A03F07F027B6814
:104288005B6B013B9A4211D1FB681B0C03F07F0268
:104298007B689B6B013B9A4208D1FB681B0E03F0BD
:1042A8007F027B68DB6B013B9A4201D001232BE044
:1042B800174B5B6BDB08C3F30C033B617B689B6CA0
:1042C8003A699A421FD0124BDB6A114A23F0010364
:1042D800D362FCF709FD786200BFFCF705FD0246D2
:1042E8007B6A9342F9D00A4B5A6B0A4B13407A689F
:1042F800926CD200064913434B63054BDB6A044AB0
:1043080043F00103D362002318463037BD4680BD11
:10431800004402580700FFFF80B586B000AF786000
:1043280039607B68002B01D101239CE18A4B1B6813
:1043380003F00F033A689A4210D9874B1B6823F0A1
:104348000F0285493B6813430B60834B1B6803F0DE
:104358000F033A689A4201D0012384E17B681B6805
:1043680003F00403002B10D07B681A697B4B9B6910
:1043780003F070039A4208D9784B9B6923F07002C6
:104388007B681B69754913438B617B681B6803F065
:104398000803002B10D07B685A69704BDB6903F067
:1043A80070039A4208D96D4BDB6923F070027B6871
:1043B8005B696A491343CB617B681B6803F0100390
:1043C800002B10D07B689A69644BDB6903F4E063C7
:1043D8009A4208D9614BDB6923F4E0627B689B69E8
:1043E8005E491343CB617B681B6803F02003002BF5
:1043F80010D07B68DA69594B1B6A03F070039A4244
:1044080008D9564B1B6A23F070027B68DB69534955
:1044180013430B627B681B6803F00203002B10D068
:104428007B68DA684D4B9B6903F00F039A4208D901
:104438004A4B9B6923F00F027B68DB6847491343AB
:104448008B617B681B6803F00103002B55D0434B3D
:104458009B6923F470627B689B68404913438B61B6
:104468007B685B68022B07D13C4B1B6803F4003365
:10447800002B21D10123F6E07B685B68032B07D171
:10448800364B1B6803F00073002B15D10123EAE0BB
:104498007B685B68012B07D1304B1B6803F4807382
:1044A800002B09D10123DEE02C4B1B6803F0040329
:1044B800002B01D10123D6E0284B1B6923F007020A
:1044C8007B685B68254913430B61FCF70DFC786139
:1044D8000AE0FCF709FC02467B69D31A41F28832EC
:1044E800934201D90323BEE01C4B1B6903F0380239
:1044F8007B685B68DB009A42EBD17B681B6803F042
:104508000203002B10D07B68DA68144B9B6903F018
:104518000F039A4208D2114B9B6923F00F027B6864
:10452800DB680E4913438B610B4B1B6803F00F03C9
:104538003A689A4214D2084B1B6823F00F020649C6
:104548003B6813430B60044B1B6803F00F033A6886
:104558009A4205D0012386E0002000520044025808
:104568007B681B6803F00403002B10D07B681A6972
:104578003F4B9B6903F070039A4208D23C4B9B69FE
:1045880023F070027B681B69394913438B617B6890
:104598001B6803F00803002B10D07B685A69344B62
:1045A800DB6903F070039A4208D2314BDB6923F0D0
:1045B80070027B685B692E491343CB617B681B687B
:1045C80003F01003002B10D07B689A69284BDB6935
:1045D80003F4E0639A4208D2254BDB6923F4E062D6
:1045E8007B689B6922491343CB617B681B6803F096
:1045F8002003002B10D07B68DA691D4B1B6A03F07F
:1046080070039A4208D21A4B1B6A23F070027B6827
:10461800DB69174913430B6200F034F80246144B68
:104628009B691B0A03F00F031249CB5C03F01F03BD
:1046380022FA03F33B610E4B9B6903F00F030D4A0B
:10464800D35C03F01F033A6922FA03F30A4A1360A2
:104658000A4A3B6913600A4B1B681846FCF7FAFACA
:104668000346FB73FB7B18461837BD4680BD00BF69
:1046780000440258C08100080400002400000024FF
:104688000800002480B489B000AFB34B1B6903F065
:104698003803182B00F2558101A252F823F000BF0D
:1046A8000D4700084B4900084B4900084B490008D2
:1046B8004B4900084B4900084B4900084B49000882
:1046C800334700084B4900084B4900084B4900088C
:1046D8004B4900084B4900084B4900084B49000862
:1046E800394700084B4900084B4900084B49000866
:1046F8004B4900084B4900084B4900084B49000842
:104708003F470008944B1B6803F02003002B09D097
:10471800914B1B68DB0803F00303904A22FA03F36A
:10472800BB6111E18D4BBB610EE18D4BBB610BE1B0
:104738008C4BBB6108E1884B9B6A03F003037B61E8
:10474800854B9B6A1B0903F03F033B61824BDB6A85
:1047580003F00103FB60804B5B6BDB08C3F30C03C6
:10476800FA6802FB03F307EE903AF8EE677AC7EDB2
:10477800027A3B69002B00F0E1807B69022B00F094
:1047880083807B69022B00F2A1807B69002B03D018
:104798007B69012B56D099E06F4B1B6803F020030F
:1047A800002B2DD06C4B1B68DB0803F003036B4A0E
:1047B80022FA03F37B607B6807EE903AF8EE676AAB
:1047C8003B6907EE903AF8EE677A86EEA77A624B75
:1047D8001B6BC3F3080307EE903AF8EE676A97ED90
:1047E800026ADFED615AC6EE257A76EEA77AF7EE11
:1047F800006A77EEA67A67EE277AC7ED077A87E030
:104808003B6907EE903AF8EE677ADFED586A86EE74
:10481800A77A514B1B6BC3F3080307EE903AF8EEE7
:10482800676A97ED026ADFED505AC6EE257A76EE92
:10483800A77AF7EE006A77EEA67A67EE277AC7EDD1
:10484800077A65E03B6907EE903AF8EE677ADFEDA4
:10485800486A86EEA77A404B1B6BC3F3080307EE42
:10486800903AF8EE676A97ED026ADFED3F5AC6EEB6
:10487800257A76EEA77AF7EE006A77EEA67A67EEE3
:10488800277AC7ED077A43E03B6907EE903AF8EEDE
:10489800677ADFED386A86EEA77A2F4B1B6BC3F376
:1048A800080307EE903AF8EE676A97ED026ADFEDC3
:1048B8002E5AC6EE257A76EEA77AF7EE006A77EEDC
:1048C800A67A67EE277AC7ED077A21E03B6907EEFB
:1048D800903AF8EE677ADFED266A86EEA77A1E4BE5
:1048E8001B6BC3F3080307EE903AF8EE676A97ED7F
:1048F800026ADFED1D5AC6EE257A76EEA77AF7EE44
:10490800006A77EEA67A67EE277AC7ED077A00BFC6
:10491800114B1B6B5B0A03F07F0301333B603B6861
:1049280007EE903AB8EE677AD7ED076AC6EE877A4F
:10493800FCEEE77A17EE903ABB6105E00023BB6115
:1049480002E0074BBB6100BFBB6918462437BD4670
:104958005DF8047B704700BF004402580090D00304
:1049680000093D0080BA8C01000000460024744C08
:104978000024744A405DC64B80B582B000AFFFF793
:1049880081FE0246104B9B691B0A03F00F030F4977
:10499800CB5C03F01F0322FA03F37B600A4B9B698D
:1049A80003F00F03094AD35C03F01F037A6822FA65
:1049B80003F3074A1360074A7B681360044B1B68BC
:1049C80018460837BD4680BD00440258C08100081B
:1049D800040000240000002480B500AFFFF7CCFFDE
:1049E8000246064BDB691B0903F007030449CB5C4D
:1049F80003F01F0322FA03F3184680BD004402584F
:104A0800C08100082DE9B04FCAB000AFC7F8140143
:104A1800002387F82731002387F82631D7F8143187
:104A2800D3E9002302F00064002554EA050349D0C5
:104A3800D7F814319B6EB3F5401F2FD0B3F5401F44
:104A480028D8B3F5001F1AD0B3F5001F22D8002BC1
:104A580003D0B3F5801F07D01CE0B84BDB6AB74A18
:104A680043F40033D3621AE0D7F814310833022133
:104A7800184602F061FB034687F827310FE0D7F8A4
:104A8800143128330221184602F008FC034687F83F
:104A9800273104E0012387F8273100E000BF97F8A9
:104AA8002731002B0AD1A54B1B6D23F44011D7F8F1
:104AB80014319B6EA14A0B43136503E097F8273125
:104AC80087F82631D7F81431D3E9002302F4807827
:104AD8004FF0000958EA090347D0D7F814319B6D05
:104AE800042B2AD801A252F823F000BF094B000872
:104AF800174B00082D4B00084B4B00084B4B000888
:104B08008E4BDB6A8D4A43F40033D3621AE0D7F840
:104B1800143108330021184602F00EFB034687F8CB
:104B280027310FE0D7F8143128330021184602F056
:104B3800B5FB034687F8273104E0012387F82731BE
:104B480000E000BF97F82731002B0AD17B4B1B6D83
:104B580023F00701D7F814319B6D784A0B4313658E
:104B680003E097F8273187F82631D7F81431D3E9CD
:104B7800002302F4007A4FF0000B5AEA0B034CD0E2
:104B8800D7F81431DB6DB3F5807F30D0B3F5807F73
:104B980029D8C02B2DD0C02B25D8802B18D0802BFE
:104BA80021D8002B02D0402B07D01CE0634BDB6AD6
:104BB800624A43F40033D3621CE0D7F81431083357
:104BC8000021184602F0B8FA034687F8273111E0A9
:104BD800D7F8143128330021184602F05FFB03464A
:104BE80087F8273106E0012387F8273102E000BF64
:104BF80000E000BF97F82731002B0AD14F4B1B6DFF
:104C080023F4E071D7F81431DB6D4C4A0B4313657C
:104C180003E097F8273187F82631D7F81431D3E91C
:104C2800002302F48063C7F808310023C7F80C3169
:104C3800D7E942120B46134353D0D7F81431D3F8AF
:104C4800A830B3F5000F35D0B3F5000F2ED8B3F563
:104C5800C00F31D0B3F5C00F28D8B3F5800F1AD0E4
:104C6800B3F5800F22D8002B03D0B3F5001F07D06F
:104C78001CE0324BDB6A314A43F40033D3621CE058
:104C8800D7F8143108330021184602F055FA0346C4
:104C980087F8273111E0D7F8143128330021184656
:104CA80002F0FCFA034687F8273106E0012387F86B
:104CB800273102E000BF00E000BF97F82731002B42
:104CC8000BD11E4B9B6D23F46001D7F81431D3F838
:104CD800A8301A4A0B43936503E097F8273187F801
:104CE8002631D7F81431D3E9002302F40063C7F85A
:104CF80000310023C7F80431D7E940120B461343AB
:104D080056D0D7F81431D3F8AC30B3F1806F38D01F
:104D1800B3F1806F31D8B3F1407F34D0B3F1407F25
:104D28002BD8B3F1007F1DD0B3F1007F25D8002B1D
:104D380006D0B3F1807F0AD01FE000BF00440258BC
:104D4800A24BDB6AA14A43F40033D3621CE0D7F8D4
:104D5800143108330021184602F0EEF9034687F8AB
:104D6800273111E0D7F8143128330021184602F012
:104D780095FA034687F8273106E0012387F827319B
:104D880002E000BF00E000BF97F82731002B0BD1ED
:104D98008E4B9B6D23F0E061D7F81431D3F8AC301B
:104DA8008A4A0B43936503E097F8273187F8263141
:104DB800D7F81431D3E9002302F00073C7F8F830AC
:104DC8000023C7F8FC30D7E93E120B4613433AD00C
:104DD800D7F81431DB6C302B1FD0302B19D8202B8F
:104DE8000CD0202B15D8002B19D0102B11D1774BB4
:104DF800DB6A764A43F40033D36211E0D7F8143102
:104E080008330221184602F097F9034687F827313C
:104E180006E0012387F8273102E000BF00E000BF69
:104E280097F82731002B0AD1684BDB6C23F030014F
:104E3800D7F81431DB6C654A0B43D36403E097F869
:104E4800273187F82631D7F81431D3E9002302F443
:104E58008053C7F8F0300023C7F8F430D7E93C1284
:104E68000B46134351D0D7F814311B6EB3F5804F5E
:104E780035D0B3F5804F2ED8B3F5405F31D0B3F5B8
:104E8800405F28D8B3F5005F1AD0B3F5005F22D889
:104E9800002B03D0B3F5805F07D01CE04B4BDB6AD7
:104EA8004A4A43F40033D3621CE0D7F8143108337C
:104EB8000021184602F040F9034687F8273111E02F
:104EC800D7F8143128330021184602F0E7F90346D1
:104ED80087F8273106E0012387F8273102E000BF71
:104EE80000E000BF97F82731002B0AD1374B1B6D24
:104EF80023F4E041D7F814311B6E344A0B43136591
:104F080003E097F8273187F82631D7F81431D3E929
:104F1800002302F40053C7F8E8300023C7F8EC3048
:104F2800D7E93A120B46134356D0D7F814315B6EC3
:104F3800B3F5A02F33D0B3F5A02F2CD8B3F5802F1D
:104F48002FD0B3F5802F26D8B3F5403F2BD0B3F53B
:104F5800403F20D8B3F5003F12D0B3F5003F1AD830
:104F6800002B22D0B3F5803F15D1D7F81431083380
:104F78000121184602F0E0F8034687F8273115E0CA
:104F8800D7F8143128330121184602F087F903466F
:104F980087F827310AE0012387F8273106E000BFA8
:104FA80004E000BF02E000BF00E000BF97F827312F
:104FB800002B0DD1054B1B6D23F4E021D7F81431DC
:104FC8005B6E024A0B43136506E000BF00440258BB
:104FD80097F8273187F82631D7F81431D3E9002319
:104FE80002F48043C7F8E0300023C7F8E430D7E97B
:104FF80038120B46134355D0D7F81431D3F8B030D4
:10500800B3F1A04F33D0B3F1A04F2CD8B3F1804FF8
:105018002FD0B3F1804F26D8B3F1405F2BD0B3F136
:10502800405F20D8B3F1005F12D0B3F1005F1AD807
:10503800002B22D0B3F1805F15D1D7F81431083393
:105048000121184602F078F8034687F8273115E061
:10505800D7F8143128330121184602F01FF9034606
:1050680087F827310AE0012387F8273106E000BFD7
:1050780004E000BF02E000BF00E000BF97F827315E
:10508800002B0BD1A34B9B6D23F0E041D7F81431D3
:10509800D3F8B0309F4A0B43936503E097F8273164
:1050A80087F82631D7F81431D3E9002302F40043F6
:1050B800C7F8D8300023C7F8DC30D7E936120B46DA
:1050C800134337D0D7F814311B6FB3F1005F0ED0FC
:1050D800B3F1005F16D8002B18D0B3F1805F11D15F
:1050E8008C4BDB6A8B4A43F40033D3620FE0D7F86A
:1050F800143108330121184602F01EF8034687F8D8
:10510800273104E0012387F8273100E000BF97F832
:105118002731002B0AD17F4B1B6D23F04051D7F864
:1051280014311B6F7B4A0B43136503E097F8273153
:1051380087F82631D7F81431D3E9002302F08073B9
:10514800C7F8D0300023C7F8D430D7E934120B465B
:10515800134339D0D7F814319B6C032B1CD801A208
:1051680052F823F0A95100087D5100088B5100081E
:10517800A9510008674BDB6A664A43F40033D362DF
:105188000FE0D7F8143108330221184601F0D4FF94
:10519800034687F8273104E0012387F8273100E028
:1051A80000BF97F82731002B0AD15A4BDB6C23F04C
:1051B8000301D7F814319B6C564A0B43D36403E0C0
:1051C80097F8273187F82631D7F81431D3E9002327
:1051D80002F48003C7F8C8300023C7F8CC30D7E9F9
:1051E80032120B46134300F09F804B4B1B684A4A10
:1051F80043F480731360FBF777FDC7F820010BE0D9
:10520800FBF772FD0246D7F82031D31A642B03D975
:10521800032387F8273105E03F4B1B6803F48073AD
:10522800002BEDD097F82731002B79D1394B1A6F25
:10523800D7F81431D3F8B430534003F44073002B3B
:1052480015D0344B1B6F23F44073C7F81C31314B16
:105258001B6F304A43F4803313672E4B1B6F2D4A64
:1052680023F4803313672B4AD7F81C311367D7F818
:105278001431D3F8B430B3F5807F18D1FBF734FD7F
:10528800C7F820010DE0FBF72FFD0246D7F82031C3
:10529800D21A41F288339A4203D9032387F8273177
:1052A80005E01C4B1B6F03F00203002BEBD097F8B3
:1052B8002731002B29D1D7F81431D3F8B43003F4AF
:1052C8004073B3F5407F0ED1124B1B6923F47C5118
:1052D800D7F81431D3F8B4301A09104B13400D4ADB
:1052E8000B43136105E00B4B1B690A4A23F47C53FB
:1052F8001361084B196FD7F81431D3F8B430C3F3DE
:105308000B03044A0B4313670EE097F8273187F81D
:10531800263109E00044025800480258CFFFFF0038
:1053280097F8273187F82631D7F81431D3E90023C5
:1053380002F00103C7F8C0300023C7F8C430D7E92A
:1053480030120B46134300F08980D7F81431DB6F15
:10535800282B6BD801A252F823F000BF3D54000857
:1053680035540008355400083554000835540008F1
:10537800355400083554000835540008095400080D
:1053880035540008355400083554000835540008D1
:105398003554000835540008355400081F540008D7
:1053A80035540008355400083554000835540008B1
:1053B8003554000835540008355400083D54000899
:1053C8003554000835540008355400083554000891
:1053D8003554000835540008355400083D54000879
:1053E8003554000835540008355400083554000871
:1053F8003554000835540008355400083D54000859
:10540800D7F8143108330121184601F095FE0346F8
:1054180087F827310FE0D7F81431283301211846CF
:1054280001F03CFF034687F8273104E0012387F8A1
:10543800273100E000BF97F82731002B0AD1BF4B76
:105448005B6D23F03801D7F81431DB6FBB4A0B438F
:10545800536503E097F8273187F82631D7F81431D8
:10546800D3E9002302F00203C7F8B8300023C7F8D5
:10547800BC30D7E92E120B46134341D0D7F814316C
:105488009B6F052B24D801A252F823F0E1540008A1
:10549800AD540008C3540008E1540008E154000862
:1054A800E1540008D7F8143108330121184601F0F7
:1054B80043FE034687F827310FE0D7F81431283325
:1054C8000121184601F0EAFE034687F8273104E077
:1054D800012387F8273100E000BF97F82731002B18
:1054E8000AD1964B5B6D23F00701D7F814319B6FF7
:1054F800924A0B43536503E097F8273187F8263122
:10550800D7F81431D3E9002302F00403C7F8B03008
:105518000023C7F8B430D7E92C120B46134344D004
:10552800D7F81431D3F89430052B25D801A252F8B6
:1055380023F000BF89550008555500086B55000831
:10554800895500088955000889550008D7F814318D
:1055580008330121184601F0EFFD034687F827318B
:105568000FE0D7F8143128330121184601F096FED0
:10557800034687F8273104E0012387F8273100E044
:1055880000BF97F82731002B0BD16C4B9B6D23F094
:105598000701D7F81431D3F89430684A0B43936560
:1055A80003E097F8273187F82631D7F81431D3E983
:1055B800002302F02003C7F8A8300023C7F8AC3056
:1055C800D7E92A120B46134355D0D7F81431D3F82C
:1055D8009030B3F1A04F33D0B3F1A04F2CD8B3F132
:1055E800804F2FD0B3F1804F26D8B3F1405F2BD036
:1055F800B3F1405F20D8B3F1005F12D0B3F1005F80
:105608001AD8002B22D0B3F1805F15D1D7F8143106
:1056180008330021184601F08FFD034687F827312B
:1056280015E0D7F8143128330221184601F036FE68
:10563800034687F827310AE0012387F8273106E077
:1056480000BF04E000BF02E000BF00E000BF97F821
:105658002731002B0BD1394B5B6D23F0E041D7F894
:105668001431D3F89030354A0B43536503E097F86B
:10567800273187F82631D7F81431D3E9002302F00F
:105688004003C7F8A0300023C7F8A430D7E9281290
:105698000B46134358D0D7F81431D3F89C30B3F5E0
:1056A800A05F33D0B3F5A05F2CD8B3F5805F2FD0BF
:1056B800B3F5805F26D8B3F5406F2BD0B3F5406FB4
:1056C80020D8B3F5006F12D0B3F5006F1AD8002BAD
:1056D80022D0B3F5806F15D1D7F8143108330021E3
:1056E800184601F029FD034687F8273115E0D7F859
:1056F800143128330221184601F0D0FD034687F8FB
:1057080027310AE0012387F8273106E000BF04E0CB
:1057180000BF02E000BF00E000BF97F82731002B70
:105728000ED1064B9B6D23F4E051D7F81431D3F812
:105738009C30024A0B43936506E000BF00440258C0
:1057480097F8273187F82631D7F81431D3E90023A1
:1057580002F08003C7F898300023C7F89C30D7E9D7
:1057680026120B46134355D0D7F81431D3F8A0307E
:10577800B3F5204F33D0B3F5204F2CD8B3F5004FF5
:105788002FD0B3F5004F26D8B3F5C04F2BD0B3F5C3
:10579800C04F20D8B3F5804F12D0B3F5804F1AD838
:1057A800002B22D0B3F5005F15D1D7F81431083398
:1057B8000021184601F0C0FC034687F8273115E0A0
:1057C800D7F8143128330221184601F067FD034643
:1057D80087F827310AE0012387F8273106E000BF60
:1057E80004E000BF02E000BF00E000BF97F82731E7
:1057F800002B0BD1A14B9B6D23F46041D7F81431DA
:10580800D3F8A0309D4A0B43936503E097F82731FE
:1058180087F82631D7F81431D3E9002302F00803BA
:10582800C7F890300023C7F89430D7E924120B4604
:1058380013431ED0D7F81431D3F88430B3F5805F02
:105848000CD1D7F8143128330221184601F026FD6F
:105858000346002B02D0012387F82631874B5B6D66
:1058680023F44051D7F81431D3F88430834A0B43DA
:105878005365D7F81431D3E9002302F01003C7F8B1
:1058880088300023C7F88C30D7E922120B4613431F
:105898001ED0D7F81431D3F89830B3F5807F0CD1E7
:1058A800D7F8143128330221184601F0F7FC0346D3
:1058B800002B02D0012387F82631704B9B6D23F40F
:1058C8004071D7F81431D3F898306C4A0B4393657C
:1058D800D7F81431D3E9002302F40023C7F8803045
:1058E8000023C7F88430D7E920120B4613433ED073
:1058F800D7F81431D3F8A430B3F5003F22D0B3F56C
:10590800003F1BD8002B03D0B3F5803F0BD015E028
:10591800D7F8143108330021184601F00DFC03466E
:1059280087F827310FE0D7F81431283302211846B9
:1059380001F0B4FC034687F8273104E0012387F817
:10594800273100E000BF97F82731002B0BD14B4BD4
:105958009B6D23F44031D7F81431D3F8A430474A6B
:105968000B43936503E097F8273187F82631D7F87A
:105978001431D3E9002302F48023BB670023FB67BB
:10598800D7E91E120B4613433BD0D7F81431D3F88E
:105998008830B3F5401F1FD0B3F5401F18D8B3F5B2
:1059A800801F03D0B3F5001F07D011E0334BDB6A2B
:1059B800324A43F40033D3620FE0D7F81431283366
:1059C8000121184601F06AFC034687F8273104E0F4
:1059D800012387F8273100E000BF97F82731002B13
:1059E8000BD1264B5B6D23F44011D7F81431D3F853
:1059F8008830224A0B43536503E097F8273187F82C
:105A08002631D7F81431D3E9002302F480333B67F9
:105A180000237B67D7E91C120B46134334D0D7F811
:105A280014311B6D002B03D0B3F5803F07D011E074
:105A3800124BDB6A114A43F40033D3620EE0D7F805
:105A4800143108330221184601F076FB034687F823
:105A5800273103E0012387F8273100BF97F8273162
:105A6800002B0DD1054BDB6C23F48031D7F81431B2
:105A78001B6D024A0B43D36406E000BF0044025882
:105A880097F8273187F82631D7F81431D3E900235E
:105A980002F00053BB660023FB66D7E91A120B46D7
:105AA80013430CD0D7F8143128330221184601F0DB
:105AB800F5FB0346002B02D0012387F82631D7F8DF
:105AC8001431D3E9002302F400333B6600237B66DC
