:020000040800F2
:100000000000082455200008F11D0008F91D000813
:10001000011E0008091E0008111E00080000000053
:10002000000000000000000000000000191E000891
:10003000271E000800000000351E0008431E0008AF
:10004000A9200008A9200008A9200008A92000086C
:10005000A9200008A9200008A9200008A92000085C
:10006000A9200008A9200008A9200008511E0008A6
:10007000A9200008A9200008A9200008A92000083C
:10008000A9200008A9200008A9200008A92000082C
:10009000A9200008A9200008A9200008A92000081C
:1000A000A9200008A9200008A9200008A92000080C
:1000B000A9200008A9200008A9200008A9200008FC
:1000C000A9200008A9200008A9200008A9200008EC
:1000D000A9200008A9200008A9200008651E000822
:1000E000A9200008A920000800000000A92000089D
:1000F000A9200008A9200008A9200008A9200008BC
:10010000A9200008A9200008A9200008A9200008AB
:10011000A9200008A9200008A9200008A92000089B
:10012000A9200008A9200008A9200008A92000088B
:10013000A9200008A9200008A9200008A92000087B
:1001400000000000000000000000000000000000AF
:10015000A9200008A9200008A9200008A92000085B
:10016000A9200008A9200008A9200008A92000084B
:10017000A9200008A9200008A9200008000000000C
:10018000A9200008A9200008A9200008A92000082B
:10019000A9200008A9200008A9200008A92000081B
:1001A000A9200008A9200008A9200008A92000080B
:1001B000A9200008A9200008A9200008A9200008FB
:1001C000A9200008A9200008A9200008A9200008EB
:1001D000A9200008A9200008A9200008A9200008DB
:1001E000A9200008A9200008A9200008A9200008CB
:1001F000A9200008A9200008A9200008A9200008BB
:10020000A9200008A9200008A9200008A9200008AA
:10021000A9200008A9200008A9200008A92000089A
:10022000A9200008A9200008A9200008000000005B
:10023000A9200008A920000800000000A92000084B
:10024000A9200008A9200008A9200008A92000086A
:10025000A9200008A9200008A9200008A92000085A
:10026000A9200008A9200008A9200008A92000084A
:10027000A9200008A9200008A9200008000000000B
:10028000A9200008A9200008A920000800000000FB
:0802900000000000A920000895
:1002A00010B5054C237833B9044B13B10448AFF3B0
:1002B00000800123237010BDE02000240000000016
:1002C000B46C010808B5034B1BB103490348AFF3F5
:1002D000008008BD00000000E4200024B46C010888
:1002E00001F0FF01102A2BDB10F0070F08D010F8E7
:1002F000013B013A8B422DD010F0070F42B3F6D1EB
:10030000F0B441EA012141EA014122F007047FF003
:1003100000070023F0E80256083C85EA010586EA5A
:10032000010685FA47F5A3FA87F586FA47F6A5FA96
:1003300087F68EB9EED1F0BC01F0FF0102F00702A2
:1003400032B110F8013B013A83EA010313B1F8D14D
:100350000020704701387047002D06BF354603382E
:10036000073815F0010F07D1013015F4807F02BF67
:10037000013015F4C03F0130F0BC0138704700BFB8
:10038000034613F8012B002AFBD1181A01387047D5
:1003900081F0004102E000BF83F0004330B54FEA36
:1003A00041044FEA430594EA050F08BF90EA020FA3
:1003B0001FBF54EA000C55EA020C7FEA645C7FEA36
:1003C000655C00F0E2804FEA5454D4EB5555B8BF59
:1003D0006D420CDD2C4480EA020281EA030382EACA
:1003E000000083EA010180EA020281EA0303362D5C
:1003F00088BF30BD11F0004F4FEA01314FF4801C2F
:100400004CEA113102D0404261EB410113F0004F40
:100410004FEA03334CEA133302D0524263EB4303F7
:1004200094EA050F00F0A780A4F10104D5F1200E95
:100430000DDB02FA0EFC22FA05F2801841F10001F0
:1004400003FA0EF2801843FA05F359410EE0A5F1C4
:1004500020050EF1200E012A03FA0EFC28BF4CF0F5
:10046000020C43FA05F3C01851EBE37101F00045AB
:1004700007D54FF0000EDCF1000C7EEB00006EEBB8
:100480000101B1F5801F1BD3B1F5001F0CD3490842
:100490005FEA30004FEA3C0C04F101044FEA445299
:1004A00012F5800F80F09A80BCF1004F08BF5FEA20
:1004B000500C50F1000041EB045141EA050130BD00
:1004C0005FEA4C0C404141EB0101013C28BFB1F512
:1004D000801FE9D291F0000F04BF01460020B1FA5D
:1004E00081F308BF2033A3F10B03B3F120020CDA30
:1004F0000C3208DD02F1140CC2F10C0201FA0CF00E
:1005000021FA02F10CE002F11402D8BFC2F1200C72
:1005100001FA02F120FA0CFCDCBF41EA0C01904028
:10052000E41AA2BF01EB0451294330BD6FEA040471
:100530001F3C1CDA0C340EDC04F11404C4F120025C
:1005400020FA04F001FA02F340EA030021FA04F36E
:1005500045EA030130BDC4F10C04C4F1200220FAC5
:1005600002F001FA04F340EA0300294630BD21FA03
:1005700004F0294630BD94F0000F83F4801306BFC9
:1005800081F480110134013D4EE77FEA645C18BFBD
:100590007FEA655C29D094EA050F08BF90EA020F54
:1005A00005D054EA000C04BF1946104630BD91EA4C
:1005B000030F1EBF0021002030BD5FEA545C05D14F
:1005C0004000494128BF41F0004130BD14F580048E
:1005D0003CBF01F5801130BD01F0004545F0FE4102
:1005E00041F470014FF0000030BD7FEA645C1ABF37
:1005F000194610467FEA655C1CBF0B46024650EA6E
:10060000013406BF52EA033591EA030F41F4002199
:1006100030BD00BF90F0000F04BF0021704730B51F
:100620004FF4806404F132044FF000054FF00001F4
:1006300050E700BF90F0000F04BF0021704730B5B5
:100640004FF4806404F1320410F0004548BF40428A
:100650004FF000013EE700BF42004FEAE2014FEADF
:1006600031014FEA02701FBF12F07F4393F07F4FBA
:1006700081F06051704732F07F4208BF704793F0BD
:100680007F4F04BF41F40021704730B54FF46074D0
:1006900001F0004521F000411CE700BF50EA0102D3
:1006A00008BF704730B54FF000050AE050EA01027C
:1006B00008BF704730B511F0004502D5404261EBEC
:1006C00041014FF4806404F132045FEA915C3FF42D
:1006D000D8AE4FF003025FEADC0C18BF03325FEACA
:1006E000DC0C18BF033202EBDC02C2F1200300FA7B
:1006F00003FC20FA02F001FA03FE40EA0E0021FAA0
:1007000002F11444BDE600BF53B94AB9002908BF3D
:1007100000281CBF4FF0FF314FF0FF3000F0C0B990
:10072000ADF1080C6DE904CE00F03EF8DDF804E010
:10073000DDE9022304B0704708B502460B4643ECDE
:10074000172BB5EEC07BF1EE10FA03D4BDE80840DC
:1007500000F00AB8B1EE477B51EC170B00F004F83B
:10076000404261EB410108BD9FED0B6B41EC170B63
:100770009FED0B5B27EE066BBCEEC66BB8EE464BEF
:10078000A4EE457BFCEEC77B16EE101A17EE900A1E
:10079000704700BFAFF30080000000000000F03D94
:1007A000000000000000F0412DE9F047089D0F46D1
:1007B00004468C46002B48D18A42164661D9B2FACB
:1007C00082F34BB1C3F1200201FA03FC20FA02F2DA
:1007D0009E4042EA0C0C9C404FEA164EB7B2BCFB5E
:1007E000FEF1220C0EFB11CC42EA0C4201FB07F099
:1007F000904209D9B21801F1FF3C80F0EE8090429E
:1008000040F2EB8002393244121AA4B2B2FBFEF07D
:100810000EFB102244EA024400FB07F7A74209D965
:10082000341900F1FF3280F0DA80A74240F2D7801D
:100830003444023840EA0140E41B00211DB1DC4091
:100840000023C5E90043BDE8F0878B4206D90DB10E
:10085000C5E9000100210846BDE8F087B3FA83F13D
:10086000002948D1BB4202D3824200F20781841A98
:1008700067EB030201209446002DE4D0C5E9004C4B
:10088000E1E7002A00F09280B2FA82F3002B40F0F8
:10089000A8808A1A4FEA164E1FFA86FC0121200C06
:1008A000B2FBFEF70EFB172240EA02420CFB07F0F8
:1008B000904207D9B21807F1FF3802D2904200F2F5
:1008C000E2804746121AA4B2B2FBFEF00EFB1022E1
:1008D00044EA02440CFB00FCA44507D9341900F19A
:1008E000FF3202D2A44500F2CB801046A4EB0C04E8
:1008F00040EA0740A2E7C1F120068B4022FA06FC3D
:100900004CEA030C07FA01F420FA06F3F7404FEA29
:100910001C49234300FA01F81FFA8CFEB7FBF9F0DB
:100920001C0C09FB107744EA074400FB0EF7A742B2
:1009300002FA01F20AD91CEB040400F1FF3A80F03C
:100940009B80A74240F2988002386444E41B9FB227
:10095000B4FBF9F309FB134447EA044403FB0EFE1E
:10096000A64509D91CEB040403F1FF3780F082800F
:10097000A6457FD9023B644443EA0040A4EB0E0441
:10098000A0FB02E7BC427346B94663D360D05DB1B9
:10099000B8EB030264EB090404FA06F622FA01F349
:1009A0001E43CC40C5E9006400214CE762084808BA
:1009B00042EAC1710B0C43EA00438AB242EA0342A5
:1009C000B3FBF6F1E407B4463746B6461F23B0FB47
:1009D000F6F0D21B41EA004161E7614614E7104698
:1009E00028E7C3F1200120FA01F29E4027FA01F125
:1009F0009F403A434FEA164E1FFA86FCB1FBFEF7C2
:100A00000EFB1710110C41EA004107FB0CF888455A
:100A100004FA03F43AD9711807F1FF3001D288457E
:100A20001FD8A1EB0801B1FBFEF808FB0CF70EFB89
:100A3000181192B242EA0142BA422FD2B21808F11A
:100A4000FF31C6D2BA42C4D2A8F102013244C0E793
:100A5000F0459CD2BEEB020367EB0C070138B946A8
:100A600095E7A6EB08084144B81EB1FBFEF808FB69
:100A70000CF7DCE73B467FE7504667E70846FBE6B6
:100A80003444023832E7023F32441BE7A1EB08014D
:100A90003846B1FBFEF808FB0CF7C8E7414698E77B
:100AA000704700BF80B489B000AF786039607B6860
:100AB000FB61FA693B681344BB61FB6923F01F03C8
:100AC000FB61BB691F3323F01F03BB61FB69B9697D
:100AD000FA698A1A7B613A613B69002B1DDD7B69EB
:100AE00003F01F023B691344FB607B69BB60BFF3EB
:100AF0004F8F00BF0C4ABB68C2F85C32BB68203322
:100B0000BB60FB68203BFB60FB68002BF2DCBFF3A3
:100B10004F8F00BFBFF36F8F00BF00BF00BF2437F0
:100B2000BD465DF8047B704700ED00E080B582B003
:100B300000AF02F047FC78601B4B1B78DBB2002B48
:100B400002D0194B00221A70184B1B78DBB2002B15
:100B500002D0164B00221A70154B1B78DBB2002B0B
:100B600002D0134B00221A70124B1B687A68D31AFA
:100B7000B3F57A7F02D30F4A7B6813600E4B1B7864
:100B8000DBB2002B0BD00D4B1B687A68D31AC72B36
:100B900005D9094B00221A70084A7B68136000BF10
:100BA0000837BD4680BD00BF2CF300242DF3002480
:100BB0002EF3002430F3002438F30024C0F3002483
:100BC00080B400AF0C4B1A680C4B1B689A4205D3DB
:100BD000094B1A68094B1B68D31A07E0064B1A68C1
:100BE000064B1B68D21A45F6C05313441846BD463F
:100BF0005DF8047B704700BF04F3002408F3002471
:100C000080B584B000AF78603960FFF7D9FF024645
:100C10003B68934201D9002322E00023FB601AE0E5
:100C2000114B1A68FB685B0079680B440F4931F976
:100C300012201A800C4B1B685A1C0D4BA3FB02138D
:100C40005B0A45F6C05101FB03F3D31A064A136051
:100C5000FB680133FB60FA683B689A42E0D30123EA
:100C600018461037BD4680BD08F3002484370024A1
:100C7000F119760580B582B000AF02F0A3FB034600
:100C80000F4A13600F4800F029F94FF434620E49FF
:100C90000E4805F075FE0346FB71FB79002B03D16E
:100CA0000B4800F01BF904E0FB791946094800F0F5
:100CB00015F9094800F012F900BF0837BD4680BD9C
:100CC00034F30024E06C010800210024C8F3002460
:100CD000FC6C01081C6D01084C6D010880B588B0E2
:100CE00000AF7860396002F06DFB78610023FB6132
:100CF0000023BB613BE0BB695B007A6813441B883F
:100D00007B82FB693F2B06D8FB695A1CFA6122499A
:100D10007A8A21F81320214B1B680133204AA2FB59
:100D20000312520A45F6C05101FB02F29B1AFB6006
:100D30001C4B1B68FA689A4208D11B4B1B68013395
:100D4000194A1360194B01221A7014E0134B1B68E7
:100D500017497A8A21F81320104AFB681360154B53
:100D60001B680133134A1360BB691833BB61BA694E
:100D70003B689A42BFD3104AFB6913600F4B0122B4
:100D80001A7002F01FFB02467B69D31A0C4A1360EB
:100D900000BF2037BD4680BD3CF3002404F300248F
:100DA000F119760508F3002418F300242EF300242B
:100DB0008437002414F30024BCF3002438F3002407
:100DC00028F3002480B584B000AF786002F0FAFA0E
:100DD000F8607B681B68144A934219D1134B1B6857
:100DE0000133124A13604FF434611148FFF75AFE81
:100DF0004FF4B4610E48FFF771FF0E4B01221A70D9
:100E00000D4B1B6801330C4A13600C4B01221A7006
:100E100002F0D8FA0246FB68D31A094A136000BFF1
:100E20001037BD4680BD00BF003001400CF30024E8
:100E300000210024803700241CF300242CF300241C
:100E400020F3002480B584B000AF786002F0BAFAD5
:100E5000F8607B681B68144A934219D1134B1B68D6
:100E60000133124A13604FF434611148FFF71AFE40
:100E70004FF4B4610E48FFF731FF0E4B01221A7098
:100E80000D4B1B6801330C4A13600C4B01221A7086
:100E900002F098FA0246FB68D31A094A136000BFB1
:100EA0001037BD4680BD00BF0030014010F3002464
:100EB000402C0024803700241CF300242DF3002450
:100EC00024F3002480B500AF02F07CFA0346024A06
:100ED000136000BF80BD00BFC4F300240FB480B511
:100EE000E4B002AF02F06EFA0246254B1B68D31A3B
:100EF000C7F8843107F5CA7207F5C473A3F5C27346
:100F00001A6007F5C473A3F5C27307F1E4001B6808
:100F1000D7F89021A02111F065FBD7F88431194A48
:100F2000A2FB03239909D7F88421164BA3FB0203E4
:100F30009B094FF47A7000FB03F3D31A07F1080002
:100F400007F1E402019200930B460F4ADC2111F0F5
:100F50007FFA07F108031846FFF712FA03469AB220
:100F600007F108014FF0FF33084809F079FB00BF93
:100F700007F5C477BD46BDE8804004B0704700BFA8
:100F8000C4F30024D34D6210686D010894F400246A
:100F900080B5C8B000AF00F073FA794B5B6903F419
:100FA0000033002B1BD1BFF34F8F00BFBFF36F8FF8
:100FB00000BF734B0022C3F85022BFF34F8F00BF16
:100FC000BFF36F8F00BF6E4B5B696D4A43F4003314
:100FD0005361BFF34F8F00BFBFF36F8F00E000BFBF
:100FE000674B5B6903F48033002B43D1644B0022D1
:100FF000C3F88420BFF34F8F00BF614BD3F880301C
:10100000C7F81C31D7F81C315B0BC3F30E03C7F8CC
:101010001831D7F81C31DB08C3F30903C7F81431C2
:10102000D7F818315A0143F6E0731340D7F814216A
:10103000920753491343C1F86032D7F814315A1E4E
:10104000C7F81421002BEBD1D7F818315A1EC7F876
:101050001821002BDDD1BFF34F8F00BF484B5B69D8
:10106000474A43F480335361BFF34F8F00BFBFF350
:101070006F8F00E000BF02F01FF900F091F800F060
:10108000A7F900F085F900F005F900F035F90BF04B
:101090005FF9FFF717FF3B48FFF720FF00F022FA48
:1010A000FFF7E8FDFFF742FD374B1B78002B5CD1C3
:1010B000FFF786FD0346632B57D964213348FFF7BA
:1010C0009FFD314B01221A704FE03B463C211846F0
:1010D000FFF796FD2D4A2E4B1046194650231A460F
:1010E00011F037FB294A07F59073A3F5907102F1CF
:1010F00050037822184611F02CFB07F178031946AB
:10110000224800F059FC07F17803184600F0D8FC9B
:10111000204B1B78002B11D11F4B1B68B3F5A67F0A
:101120000CD900F087FC0BF02FF91A4B01221A7032
:101130001A4B00221A6000F0A9FC1FE0154B1B7827
:10114000002B12D0154B1B680133144A1360134B4C
:101150001B68422B09D900F06DFC0BF015F90F4B01
:1011600000221A6000F092FC08E0074B1B78002B6D
:1011700098D0FFF725FD03463B2BA6D892E700BF8A
:1011800000ED00E0786D0108F0F5002428F500245A
:10119000A0F50024F8F50024FC580224F4F50024FE
:1011A00080B59CB000AF07F124034C220021184603
:1011B00011F03FFA3B1D20220021184611F039FAA8
:1011C000022005F0DFFC00233B60304B9B692F4A77
:1011D00043F4404393612D4B9B6903F440433B60D0
:1011E0002B4BDB6A2A4A43F00103D362284BDB6AAC
:1011F00003F001033B603B6800BF244B9B6903F491
:101200000053B3F5005FF8D101237B624FF48033C4
:10121000BB620223BB640223FB6405233B65C0233E
:101220007B650223BB651423FB6502233B66082311
:101230007B660023BB660023FB6607F12403184688
:1012400005F0DAFC0346002B01D000F045F93F23FE
:101250007B600323BB600023FB6008233B614023CA
:101260007B614023BB614FF48063FB6140233B62A1
:101270003B1D0421184606F019F90346002B01D046
:1012800000F02AF900BF7037BD4680BD0048025803
:101290000004005880B500AF154B164A1A60144B75
:1012A00006225A60124B00229A60114B0022DA602B
:1012B0000F4B00221A610E4B4BF680325A610C4BD9
:1012C00000229A610A4B0022DA61094B00221A625D
:1012D000074B00225A62064B00229A62044805F02E
:1012E0002DFA0346002B01D000F0F6F800BF80BDB8
:1012F000C8F300240030014080B500AF224B234AE0
:101300001A60214B4FF4E1325A601F4B00229A6061
:101310001D4B0022DA601C4B00221A611A4B0C2272
:101320005A61194B00229A61174B0022DA61164B61
:1013300000221A62144B00225A62134B00229A6256
:10134000114809F03DF90346002B01D000F0C4F824
:1013500000210D480AF024FE0346002B01D000F0C6
:10136000BBF8002108480AF059FE0346002B01D0C3
:1013700000F0B2F804480AF0DAFD0346002B01D071
:1013800000F0AAF800BF80BD94F40024004800409B
:1013900080B582B000AF0D4BD3F8D8300B4A43F084
:1013A0000103C2F8D830094BD3F8D83003F0010359
:1013B0007B607B68002200210B2002F00CF90B20DF
:1013C00002F023F900BF0837BD4680BD0044025833
:1013D00080B588B000AF07F10C0300221A605A6094
:1013E0009A60DA601A61244BD3F8E030224A43F065
:1013F0008003C2F8E030204BD3F8E03003F08003E4
:10140000BB60BB681C4BD3F8E0301B4A43F00103C0
:10141000C2F8E030184BD3F8E03003F001037B60F2
:101420007B68154BD3F8E030134A43F00203C2F84F
:10143000E030114BD3F8E03003F002033B603B682F
:10144000002202210D4805F05FF90223FB60012311
:101450003B6100237B610023BB6107F10C0319464C
:10146000064804F0A1FF00214FF0007001F0C2FF18
:1014700000BF2037BD4680BD00440258000002581E
:1014800080B584B000AF3B4600221A605A609A6073
:10149000DA6002F0D5F801233B7000237B70002353
:1014A0007B601F233B7287237B720023BB72002368
:1014B000FB7201233B7301237B730023BB73002367
:1014C000FB733B46184602F0F3F8042002F0D0F814
:1014D00000BF1037BD4680BD80B400AF72B600BFFC
:1014E00000BFFDE780B582B002AF102200216E4838
:1014F00011F09FF86C4B6D4A02216D480FF026FCED
:101500004FF4827200216B4811F093F84FF482720D
:101510000021694811F08DF8684B00221A60684B71
:1015200000221A6000224FF48071664801F008FE24
:101530000346002B01D0FFF7CFFF4FF480716248C4
:101540000EF038FF614B624A1A60604B614A5A6084
:101550005E4B614A9A605D4B40221A615B4B4FF4CF
:1015600080725A61594B4FF47A629A61574B4FF02F
:101570000002DA61554B594A1A62544B012283F832
:101580002420524B01229A62504B0122DA624F48CA
:1015900001F0FAFA4D4BD9684F4BD3ED007AB7EE14
:1015A000E76A4A4BDB68013B4B4A9B001344D3ED8F
:1015B000007AB7EEE77A8DED007B53EC162B4848A6
:1015C000FFF78CFC414BDB68B3F5005F01D9FFF7F7
:1015D00083FF3E4BDB68434A1360434B0D221A6086
:1015E000414B40225A60404B02221A723E4B00226D
:1015F000DA603D4B3D4A1A613B4800F059FD034615
:10160000002B01D0FFF768FF394B2F4A1A60384B87
:1016100001221A71364B2B4A9A60354B4FF47A628D
:10162000DA60334B64221A61314B4FF480725A6195
:101630002F4B304A9A61304B2D4A1A602E4B234A69
:101640005A602E4B2C4A1A602C4B01221A712B4BDC
:101650004FF07E529A60294B4FF0FF42DA60274BE1
:101660004FF07E529A60264B244A1A60244B1E4A41
:101670005A60234B0D229A60214B224ADA60224B9A
:1016800000221A60214B00221A60214B00221A60AE
:1016900001F098FE03461F4A13601F48FFF71EFC27
:1016A00000BFBD4680BD00BFA8F600240000002496
:1016B0009CF6002410590224145A0224185B0224B8
:1016C0001C5B022480F80024FCF5002414F600249E
:1016D000108C0124108D0124100C01240000FA4408
:1016E000E06D0108B8F6002444F6002410FE002442
:1016F00058F6002410FA002474F600247CF6002426
:101700008CF60024100B01240059022404590224F1
:10171000085902240C590224086E010880B48DB0C7
:1017200000AFF860B9607A603B600523FB6100237D
:10173000FB6258E04FF00003BB62BB68342202FB3F
:1017400003F3FA681A44FB6A9B0013441B68BB61ED
:1017500001237B6235E0BA68FB691A447B6AD31ABD
:10176000FA69B3FBF2F2F96901FB02F29B1A7B61A1
:101770007A687B6A9A420BD97B69342202FB03F3B5
:10178000FA681A44FB6A9B0013441B683B6202E040
:101790004FF000033B627B6A07EE903AB8EE677A3F
:1017A000D7ED066AD7ED087A76EEE77A67EE277A04
:1017B00097ED0A7A77EE277AC7ED0A7A7B6A0133CA
:1017C0007B627B6A042BC6D9FB6A9B003A68134490
:1017D000D7ED0A7A9FED097A67EE877AC3ED007A32
:1017E000FB6A0133FB62FB6A0C2BA3D900BF00BF6D
:1017F0003437BD465DF8047B704700BF8988083DDB
:1018000080B5A0B000AF786039607B68002B00F035
:10181000BD803B68002B00F0B9804FF4C8720021F6
:101820005C4810F006FF64225A49786801F010F80D
:10183000594A5849594801F08CF90023FB6717E0D1
:10184000554AFB6F9B001344D3ED007AF0EEE77A24
:101850009FED537AF4EE477AF1EE10FA05D99C2207
:101860000021386810F0E5FE91E0FB6F0133FB6763
:10187000FB6F0C2BE4D94B4B1B68591C4A4BA3FB49
:1018800001239A0813469B001344CA1A454B1A6059
:10189000444B1B68342202FB03F3444A13443422B2
:1018A0003D49184610F055FF414B1B68042B04D8E6
:1018B0003F4B1B6801333E4A13603A4B19683C4B5F
:1018C0001A6807F140033948FFF728FF354B1B68BA
:1018D000342202FB03F3374A134407F14001342258
:1018E000184610F036FF2F4B1968314B1A6807F174
:1018F0000C033048FFF712FF0023BB6724E0BB6FE7
:101900009B003A6813442449BA6F92000A44126853
:101910001A60BB6F0D339B003A681344BA6F920094
:1019200080323A44403A12681A60BB6F1A339B0007
:101930003A681344BA6F920080323A44743A12689B
:101940001A60BB6F0133BB67BB6F0C2BD7D9002369
:101950007B6717E07B6F9B003A681344D3ED007AF6
:10196000F0EEE77A9FED0E7AF4EE477AF1EE10FA98
:1019700005D99C220021386810F05BFE07E07B6FE0
:1019800001337B677B6F262BE4D900E000BF8037F3
:10199000BD4680BDBCF600244CF800248CF6002423
:1019A000FFFF7F7F185B0224CDCCCCCC10590224E2
:1019B0001C5B0224145A022480B586B000AF786004
:1019C000396001F0FFFC786139687868FFF718FF2B
:1019D00001F0F8FC02467B69D31A3B61114B1A688F
:1019E0003B6913440F4A13600F4B1B683A699A42D4
:1019F00002D90D4A3B6913600C4B1B6801330B4A3B
:101A0000136001F0DFFCF860094B1B68FA68D31A19
:101A1000B3F5FA7F02D3064AFB68136000BF18379C
:101A2000BD4680BD045902240859022400590224ED
:101A3000205B022480B584B002AF00237B600F4B93
:101A40001B68002B06D00E4B1A680C4B1B68B2FBB0
:101A5000F3F37B60094B1A680A4B1B6801937B68A0
:101A60000093134640F24D1241F283310648FFF7CE
:101A700035FA00BF0837BD4680BD00BF00590224BB
:101A80000459022408590224346E010880B500AFBD
:101A9000074B00221A60074B00221A60064B0022F7
:101AA0001A6001F08FFC0346044A136000BF80BD3A
:101AB0000059022404590224085902240C59022412
:101AC00090B585B000AF78602A4B1B68B3F5A67F50
:101AD0001FD80023FB6013E0FB689B007A681A4460
:101AE000244B1B6812682448F96840F24D1404FB2B
:101AF00001F10B449B0003441A60FB680133FB6057
:101B0000FB68262BE8D91B4B1B680133194A13606D
:101B10002BE00023BB6025E0BB6840F2345202FB9F
:101B200003F3154A9818BB6840F2345202FB03F3E2
:101B30000433114A13444FF4A662194610F060FDB5
:101B4000BB689B007A6813441A680B49BB6840F273
:101B5000345000FB03F30B4403F5A6631A60BB6823
:101B60000133BB60BB68262BD6D900BF1437BD46F6
:101B700090BD00BFFC580224108E012480B483B0B5
:101B800000AF0A4BD3F8F430084A43F00203C2F81E
:101B9000F430064BD3F8F43003F002037B607B682B
:101BA00000BF0C37BD465DF8047B70470044025807
:101BB00080B5BAB000AF786007F1D40300221A6094
:101BC0005A609A60DA601A6107F11003C02200219E
:101BD000184610F02EFD7B681B68474A934240F080
:101BE00086804FF480524FF00003C7E90423052399
:101BF000BB61C023FB614E233B6214237B62142331
:101C0000BB628023FB6200233B6300237B634FF4B2
:101C100080533B6707F11003184605F0D3FF0346D6
:101C2000002B01D0FFF758FC344BD3F8F030334A87
:101C300043F48053C2F8F030304BD3F8F03003F463
:101C40008053FB60FB682D4BD3F8E0302B4A43F008
:101C50000103C2F8E030294BD3F8E03003F0010370
:101C6000BB60BB687023C7F8D4300223C7F8D830F4
:101C70000023C7F8DC300023C7F8E0300523C7F89D
:101C8000E43007F1D40319461D4804F08DFB1D4BC9
:101C90001D4A1A601B4B25225A601A4B00229A607B
:101CA000184B0022DA60174B4FF480621A61154B13
:101CB0004FF400625A61134B4FF400529A61114B7A
:101CC0004FF48072DA610F4B00221A620D4B002232
:101CD0005A620C4801F02CFD0346002B01D0FFF79F
:101CE000FBFB7B68074A9A64064A7B68936300BFE4
:101CF000E837BD4680BD00BF0030014000440258B7
:101D0000000002581CF400241000024080B5BAB054
:101D100000AF786007F1D40300221A605A609A601D
:101D2000DA601A6107F11003C0220021184610F092
:101D300080FC7B681B682B4A93424ED14FF0020215
:101D40004FF00003C7E904230023C7F8883007F1E8
:101D50001003184605F036FF0346002B01D0FFF7AD
:101D6000BBFB214BD3F8E8301F4A43F48023C2F871
:101D7000E8301D4BD3F8E83003F48023FB60FB68A8
:101D8000194BD3F8E030184A43F00203C2F8E030B0
:101D9000154BD3F8E03003F00203BB60BB684FF48F
:101DA0004063C7F8D4300223C7F8D8300023C7F8FF
:101DB000DC300023C7F8E0300723C7F8E43007F130
:101DC000D4031946094804F0EFFA00220021272025
:101DD00001F001FC272001F018FC00BFE837BD46E8
:101DE00080BD00BF00480040004402580004025873
:101DF00080B400AF00BFFDE780B400AF00BFFDE7D7
:101E000080B400AF00BFFDE780B400AF00BFFDE7C6
:101E100080B400AF00BFFDE780B400AF00BFBD4697
:101E20005DF8047B704780B400AF00BFBD465DF82D
:101E3000047B704780B400AF00BFBD465DF8047BF3
:101E4000704780B500AF01F0A9FA00BF80BD000067
:101E500080B500AF024802F095FF00BF80BD00BF13
:101E60001CF4002480B500AF024808F087FC00BFD6
:101E700080BD00BF94F4002480B586B000AF7860C8
:101E8000144A154BD31A7B617B693B61134B1B686A
:101E9000002B02D1114B124A1A60104B1A687B6852
:101EA00013443A699A4207D210F026FC03460C22EA
:101EB0001A604FF0FF3309E0084B1B68FB60074BCB
:101EC0001A687B681344054A1360FB681846183784
:101ED000BD4680BD0000082400080000245B0224E9
:101EE0000000002080B400AF434BD3F88830424A52
:101EF00043F47003C2F88830404B1B6803F00F03B3
:101F0000062B07D83D4B1B6823F00F033B4A43F0D9
:101F1000070313603A4B1B68394A43F0010313600F
:101F2000374B00221A61364B1A683549354B13403E
:101F30000B60324B1B6803F00803002B07D02F4BBC
:101F40001B6823F00F032D4A43F0070313602C4B4B
:101F500000229A612A4B0022DA61294B00221A6280
:101F6000274B294A9A62264B284ADA62244B284A90
:101F70001A63234B00225A63214B254A9A63204B54
:101F80000022DA631E4B224A1A641D4B00225A6457
:101F90001B4B1B681A4A23F480231360184B002242
:101FA0001A661C4B1A681C4B1340B3F1005F02D237
:101FB0001A4B01221A60124BD3F8D43003F4805329
:101FC000002B13D10E4BD3F8D4300D4A43F4805379
:101FD000C2F8D430124B43F2D2021A60084BD3F845
:101FE000D430074A23F48053C2F8D43000BFBD4632
:101FF0005DF8047B704700BF00ED00E00020005258
:10200000004402587FEDF6EA000202020000FF01E0
:10201000800201010010005C0000FFFF08810051F8
:102020000040005280B400AF094BDB68084A43F01F
:102030000203D36000BF064B5B6803F40053002B20
:10204000F9D000BF00BFBD465DF8047B704700BFFC
:1020500000480258DFF838D0FFF7E4FFFFF742FFEF
:102060000C480D490D4A002302E0D458C4500433F3
:10207000C4188C42F9D30A4A0A4C002301E01360C9
:102080000432A242FBD310F03DFBFEF781FF704704
:102090000000082400000024D42000245823030852
:1020A000E0200024E02E0424FEE7000000000000F1
:1020B00080B598B000AF78607B681B687B627B68F6
:1020C0005B683B627B681B69FB617B68DB68002B9C
:1020D0000BD07B681B7A042B04D04FF0FF33FB65D9
:1020E000FB6D1FE20123BB6501E00023BB657B683C
:1020F0001B7A013B042B00F2108201A252F823F05C
:1021000015210008AB210008B92200087723000838
:102110001124000800237B6540E000233B6536E086
:102120003B6D07EE903AB8EE677BB6EE006B37EE8C
:10213000067B9FEDC16B27EE065B3B6A07EE903A8C
:10214000B8EE676B85EE067B87ED027B7B6D07EE55
:10215000903AB8EE676B97ED027B26EE077BB0EE08
:10216000470B13F099FCB0EE407B37EE077B7B6D9D
:102170003A6A03FB02F23B6D13449B00FA69134475
:10218000F7EEC77BC3ED007A3B6D01333B653A6DDB
:102190003B6A9A42C4D37B6D01337B657A6D7B6A5F
:1021A0009A42BAD30023FB65BBE13B6A9B0007EE72
:1021B000903AB8EE677BB7EE005B85EE076BB0EE4A
:1021C000460B13F045FCB0EE407B37EE077B87ED06
:1021D000047B0023FB640CE0FB6C9B00FA69134456
:1021E00097ED047BF7EEC77BC3ED007AFB6C013300
:1021F000FB64FA6C3B6A9A42EED33B6A5B0007EEE3
:10220000903AB8EE677BB0EE470B13F021FCB0EECE
:10221000406BB0EE005B85EE067B87ED047B01230F
:10222000BB6442E000237B6438E07B6C07EE903AAD
:10223000B8EE677BB6EE006B37EE067B9FED7E6BEC
:1022400027EE065B3B6A07EE903AB8EE676B85EEC9
:10225000067B87ED027BBB6C07EE903AB8EE676BAE
:1022600097ED027B26EE077BB0EE470B13F014FCD4
:10227000B0EE406B97ED047B26EE077BBB6C3A6AB1
:1022800003FB02F27B6C13449B00FA691344F7EEE4
:10229000C77BC3ED007A7B6C01337B647A6C3B6A4D
:1022A0009A42C2D3BB6C0133BB64BA6C7B6A9A425C
:1022B000B8D30023FB6534E13B6A5B0007EE903A3C
:1022C000B8EE677BB0EE470B13F0C2FBB0EE406B8D
:1022D000B0EE005B85EE067B87ED047B00233B645C
:1022E00042E00023FB6338E0FB6B07EE903AB8EE68
:1022F000677BB6EE006B37EE067B9FED4F6B27EEEC
:10230000065B3B6A07EE903AB8EE676B85EE067B9C
:1023100087ED027B3B6C07EE903AB8EE676B97ED6A
:10232000027B26EE077BB0EE470B13F0B5FBB0EE59
:10233000406B97ED047B26EE077B3B6C3A6A03FB10
:1023400002F2FB6B13449B00FA691344F7EEC77B60
:10235000C3ED007AFB6B0133FB63FA6B3B6A9A4275
:10236000C2D33B6C01333B643A6C7B6A9A42B8D36C
:102370000023FB65D5E00023BB6342E0BA6BBB6D75
:10238000134407EE903AB8EE677BB6EE006B37EE7B
:10239000067B9FED296B27EE065B3B6A07EE903AC2
:1023A000B8EE676B85EE067B87ED027B00237B63CF
:1023B00020E07B6B07EE903AB8EE676B97ED027BFF
:1023C00026EE077BB0EE470B13F066FBB0EE407BCA
:1023D00037EE077BBB6B3A6A03FB02F27B6B13445D
:1023E0009B00FA691344F7EEC77BC3ED007A7B6B61
:1023F00001337B637A6B3B6A9A42DAD3BB6B01335E
:10240000BB63BA6B7B6A9A42B8D30023FB6588E052
:102410003B6A07EE903AB8EE677BB0EE470B13F0DD
:1024200017FBB0EE406BB7EE005B85EE067B87EDE9
:10243000047B00233B6310E0182D4454FB2109402A
:102440003B6B9B00FA69134497ED047BF7EEC77B67
:10245000C3ED007A3B6B01333B633A6B3B6A9A42B4
:10246000EED33B6A07EE903AB8EE677BB0EE005BC6
:1024700085EE076BB0EE460B13F0EAFA87ED040B1E
:102480000023FB6242E00123BB6238E0FB6A07EEF7
:10249000903AB8EE677BB6EE006B37EE067B1FED29
:1024A0001A6B27EE065B3B6A07EE903AB8EE676B55
:1024B00085EE067B87ED027BBB6A07EE903AB8EEAD
:1024C000676B97ED027B26EE077BB0EE470B13F0B0
:1024D000E3FAB0EE406B97ED047B26EE077BFB6AD8
:1024E0003A6A03FB02F2BB6A13449B00FA69134485
:1024F000F7EEC77BC3ED007ABB6A0133BB62BA6AF1
:102500003B6A9A42C2D3FB6A0133FB62FA6A7B6A76
:102510009A42B8D30023FB6503E04FF0FF33FB651D
:1025200000BFFB6D18466037BD4680BD80B495B0D6
:1025300000AFF860B9607A60FB685B68FB61FB68BC
:102540001B68BB61FB681B697B61FB681B7A013BF5
:10255000042B00F2758101A252F823F071250008C6
:10256000EF250008B326000831270008B12700082E
:102570000023BB6436E0BB6C9B007A6813444FF0C9
:1025800000021A60BB6CFA6902FB03F33B61002393
:102590007B6420E0BB6C9B007A68134493ED007A67
:1025A0007B6C9B00BA681344D3ED006A3A697B6C7C
:1025B00013449B007A691344D3ED007A66EEA77A40
:1025C000BB6C9B007A68134477EE277AC3ED007AE0
:1025D0007B6C01337B647A6CFB699A42DAD3BB6C07
:1025E0000133BB64BA6CBB699A42C4D329E14FF092
:1025F0000003FB6400233B640EE03B6C9B00BA6865
:102600001344D3ED007A97ED137A77EE277AC7ED6E
:10261000137A3B6C01333B643A6CFB699A42ECD30E
:102620007B6993ED007AD7ED137A67EE277A7B68A2
:10263000C3ED007A0123FB6336E0FB6B9B007A68F5
:1026400013444FF000021A60FB6BFA6902FB03F3BC
:102650003B610023BB6320E0FB6B9B007A68134463
:1026600093ED007ABB6B9B00BA681344D3ED006A0C
:102670003A69BB6B13449B007A691344D3ED007A2B
:1026800066EEA77AFB6B9B007A68134477EE277A95
:10269000C3ED007ABB6B0133BB63BA6BFB699A4233
:1026A000DAD3FB6B0133FB63FA6BBB699A42C4D389
:1026B000C7E000237B6336E07B6B9B007A681344A2
:1026C0004FF000021A607B6BFA6902FB03F33B6177
:1026D00000233B6320E07B6B9B007A68134493EDFF
:1026E000007A3B6B9B00BA681344D3ED006A3A69E9
:1026F0003B6B13449B007A691344D3ED007A66EE7A
:10270000A77A7B6B9B007A68134477EE277AC3ED38
:10271000007A3B6B01333B633A6BFB699A42DAD335
:102720007B6B01337B637A6BBB699A42C4D388E0CD
:102730000023FB6237E04FF00003FB64FB6AFA6999
:1027400002FB03F33B610123BB6218E0BB6A9B0001
:10275000BA68134493ED007A3A69BB6A13449B004C
:102760007A691344D3ED007A67EE277A97ED137AEE
:1027700077EE277AC7ED137ABB6A0133BB62BA6A78
:10278000FB699A42E2D3BB6893ED007AFB6A9B0037
:102790007A681344D7ED137A77EE277AC3ED007A7F
:1027A000FB6A0133FB62FA6ABB699A42C3D348E011
:1027B000BB6893ED007A7B69D3ED007A67EE277AE8
:1027C000C7ED137A00237B6235E07B6A9B007A6851
:1027D0001344FA6C1A607B6AFA6902FB03F33B61EB
:1027E00001233B6220E07B6A9B007A68134493EDEF
:1027F000007A3B6A9B00BA681344D3ED006A3A69D9
:102800003B6A13449B007A691344D3ED007A66EE69
:10281000A77A7B6A9B007A68134477EE277AC3ED28
:10282000007A3B6A01333B623A6AFB699A42DAD327
:102830007B6A01337B627A6ABB699A42C5D300E046
:1028400000BF00BF5437BD465DF8047B704700BF32
:1028500080B487B000AFF860B9607A6000237B6114
:1028600016E07B695B00FA681344B3F9003007EEA9
:10287000903AB8EEE77A7B699B00BA681344DFEDC3
:102880000A6AC7EE267AC3ED007A7B6901337B6161
:102890007A697B689A42E4D300BF00BF1C37BD460B
:1028A0005DF8047B704700BF0000004780B58CB026
:1028B00000AFF860B9607A60FB681B69BB62FB68B7
:1028C0005B697B62FB689B693B62FB689968BB6ADA
:1028D000BA68B8680EF0B6FABB6A9B00BA68D0183E
:1028E0007A6ABB6AD31A1A4600210FF0A2FEFB686F
:1028F000186800233A6AB9680DF042FE3B6A93ED0E
:10290000007A3B6AD3ED007A67EE277AC7ED077A43
:102910003B6A043393ED007A3B6A0433D3ED007ACB
:1029200067EE277AC7ED067A7B68FA691A603B6A18
:1029300003F108007B68191D7B6A5B08013B1A469E
:102940000EF010FA7B6A5B089B007A681344BA6940
:102950001A60FB681B79002B2CD10023FB6223E05B
:10296000FB6A9B007A6813441A68FB6A9B007968CB
:102970000B447A613B61D7ED057AF5EEC07AF1EE52
:1029800010FA09DB97ED050A13F0F6F8F0EE407A3D
:102990003B69C3ED007A04E03B694FF000021A6026
:1029A00000BFFB6A0133FB627B6A5B080133FA6A92
:1029B0009A42D5D300BF3037BD4680BD90B58FB0A9
:1029C00000AFF860B9607A60FB681B685B681B69E0
:1029D0003B62FB68DB68FB61FB689B68BB61FB6873
:1029E0001B681B689B697B61FB681B681B687A69B5
:1029F000B9681846FFF75AFFFB681B685B687A687E
:102A00007969184600F064FA00237B6312E07B6B5F
:102A10009B007A681344D3ED006A7B6B9B007A6855
:102A2000134497ED067AC6EE877AC3ED007A7B6B86
:102A300001337B637A6B3B6A9A42E8D300233B63A2
:102A400014E03B6B9B007A681344D3ED007AF5EEFB
:102A5000C07AF1EE10FA06D83B6B9B007A681344FB
:102A60004FF400021A603B6B01333B633A6B3B6AE5
:102A70009A42E6D3FB681B79002B4AD10023FB6204
:102A800018E0FB6A9B007A681344D3ED007AB0EE3D
:102A9000670A13F041F8F0EE407AFB6A9B007A680F
:102AA0001344B2EE047A67EE877AC3ED007AFB6ACC
:102AB0000133FB62FA6A3B6A9A42E2D30023BB62AB
:102AC00022E0BB6A9B007A68134493ED007AD7ED4D
:102AD000077AF1EE677AB4EEE77AF1EE10FA04D5F0
:102AE000D7ED077AF1EE677A05E0BB6A9B007A685A
:102AF0001344D3ED007ABB6A9B007A681344C3ED9C
:102B0000007ABB6A0133BB62BA6A3B6A9A42D8D385
:102B10001BE000237B6214E07B6A9B007A6813440D
:102B2000D3ED007A7B6A9B007A68D418B0EE670A0E
:102B300013F0B6F8F0EE407AC4ED007A7B6A013308
:102B40007B627A6A3B6A9A42E6D300BF3C37BD4655
:102B500090BD80B586B000AFF860B9607A60FB6860
:102B6000DB687B61FB681B687A69B9681846FFF708
:102B700025FFFB685B687A6879691846FFF7D6FC21
:102B800000BF1837BD4680BD80B5A4B000AF7860E7
:102B90007B689B6A3B667B68DB6AFB657B6893F8B6
:102BA000243087F85B307B681B687B657B685B68DB
:102BB0003B657B689B68C7F884307B680C33FB649B
:102BC0007B689B69BB647B681B697B647B685B6912
:102BD0003B647B68DB69FB637B681B6ABB6397F8BC
:102BE0005B30184697ED0F0A00F0C8F987ED0D0A23
:102BF00097F85B30184697ED0E0A00F0BFF987EDA5
:102C00000C0A97ED0C7AD7ED0D7A77EE676A7B6C3C
:102C1000013307EE903AB8EE677AC6EE877AC7EDD1
:102C20000B7ABB6C07EE903AF8EE677AB0EE007A5A
:102C3000C7EE876A3B6C5B0807EE903AB8EE677A9E
:102C4000C6EE877AC7ED0A7AFB6C00221A60002371
:102C5000BB6633E1FB6D002B44D0BB6E07EE903AB0
:102C6000B8EE677AD7ED0B7A27EE277AD7ED0D7A93
:102C700077EE277A97F85B301846B0EE670A00F0D7
:102C8000EDF987ED200ABB6E013307EE903AB8EEFE
:102C9000677AD7ED0B7A27EE277AD7ED0D7A77EEA4
:102CA000277A97F85B301846B0EE670A00F0D6F93D
:102CB00087ED1F0ABB6E023307EE903AB8EE677AD3
:102CC000D7ED0B7A27EE277AD7ED0D7A77EE277AB4
:102CD00097F85B301846B0EE670A00F0BFF987ED51
:102CE0001E0A2EE0BB6E07EE903AB8EE677AD7ED7B
:102CF0000B7A67EE277A97ED0D7A77EE277AC7ED94
:102D0000207ABB6E013307EE903AB8EE677AD7EDC2
:102D10000B7A67EE277A97ED0D7A77EE277AC7ED73
:102D20001F7ABB6E023307EE903AB8EE677AD7EDA2
:102D30000B7A67EE277A97ED0D7A77EE277AC7ED53
:102D40001E7A97ED1F7AD7ED207A77EE677AC7ED76
:102D5000097A97ED1E7AD7ED1F7A77EE677AC7ED7D
:102D6000087A4FF0FF33C7F88C304FF0FF33C7F8C5
:102D7000883000237B6698E0FB6D002B0BD07B6EC8
:102D800007EE903AF8EE677A97ED0A7A67EE277ABF
:102D9000C7ED1D7A11E07B6E07EE903AB8EE677AC8
:102DA000D7ED0A7A67EE277A97F85B301846B0EECF
:102DB000670A00F0E3F887ED1D0A97ED207AD7ED5A
:102DC0001D7A77EE677AC7ED077A97ED1E7AD7ED11
:102DD0001D7A77EE677AC7ED067AD7ED077AF1EEBE
:102DE000676A97ED097AC6EE877AC7ED057AD7ED5F
:102DF000066A97ED087AC6EE877AC7ED047A97EDF2
:102E0000057AD7ED047AB4EEE77AF1EE10FA02D53E
:102E10007B693B6701E03B693B67D7ED1C7AF5EEC8
:102E2000C07AF1EE10FA2FDD3B6FFB663B6E002B94
:102E300013D097ED1E7AD7ED207A37EE677AF0EE51
:102E4000006AC6EE877AC7ED037A97ED1B7AD7ED55
:102E5000037A67EE277AC7ED1B7AD7F884301A1DFC
:102E6000C7F88420FA6E1A60D7F88C30B3F1FF3FB0
:102E700002D17B6EC7F88C307B6EC7F88830FB6C54
:102E80001B685A1CFB6C1A60BB6E9B007A6D134466
:102E9000D7F88C201A60BB6E9B003A6D1344D7F8AC
:102EA00088201A607B6E01337B663B6C5B087A6E10
:102EB0009A42FFF461AFBB6E0133BB66BA6E7B6CA6
:102EC0009A42FFF4C7AE00BF00BF9037BD4680BD39
:102ED00080B48DB000AFF860B9607A60FB681B68A1
:102EE000FB61FB685B68BB61FB689B68FB62FB681E
:102EF0001B697B6100237B6234E07B6A9B00FA697B
:102F000013441B687B827B6A9B00BA6913441B686D
:102F10003B824FF00003BB627B8A3B6215E03B6A59
:102F20009B00BA68134493ED007AFB6A1A1DFA629B
:102F3000D3ED007A67EE277A97ED0A7A77EE277A53
:102F4000C7ED0A7A3B6A01333B623B8A3A6A9A428E
:102F5000E5D97B6A9B007A681344BA6A1A607B6A77
:102F600001337B627A6A7B699A42C6D300BF00BF95
:102F70003437BD465DF8047B7047000080B588B0EB
:102F800000AF87ED010A0346FB70FB78002B42D0AF
:102F90004FF00003BB612C4B7B6197ED017AD7EDBD
:102FA000067A77EE676A97ED057AC6EE877AC7EDFF
:102FB000077A264B3B6197ED047AD7ED067A77EED8
:102FC000676A97ED057AC6EE877AC7ED037A204BDC
:102FD000BB6097ED017AD7ED047AB4EEE77AF1EEB3
:102FE00010FA15DB97ED017AD7ED047AC7EE276A60
:102FF000B0EE660A12F054FEF0EE406A97ED027AE7
:10300000C6EE877A97ED037A77EE277AC7ED077ACF
:10301000D7ED077A13E097ED017ADFED0E6AC7EE80
:10302000267AB7EE007A77EE877AB0EE670A12F06A
:1030300037FEF0EE407A9FED087A67EE877AB0EEC1
:10304000670A2037BD4680BD5555854200007A4449
:10305000BBCD8C3D00002F4400E08C4480B588B08F
:1030600000AF87ED010A0346FB70FB78002B42D0CE
:103070004FF00003BB612C4B7B6197ED057AD7EDD8
:10308000017A67EE277A97ED067A77EE277AC7ED11
:10309000077A264B3B6197ED047AD7ED067A77EEF7
:1030A000676A97ED057AC6EE877AC7ED037A204BFB
:1030B000BB6097ED017AD7ED037AB4EEE77AF1EED3
:1030C00010FA15DB97ED017AD7ED037A37EE677AC0
:1030D000D7ED027A67EE277AB0EE670A12F06EFD3E
:1030E000B0EE407AD7ED047A67EE877AC7ED077ABB
:1030F000D7ED077A13E0D7ED017ADFED0E6A87EEA0
:10310000A67AB0EE470A12F059FDF0EE407AB7EE1B
:10311000007A77EEC77A9FED087A67EE877AB0EE8D
:10312000670A2037BD4680BD5555854200007A4468
:10313000BBCD8C3D00E08C4400002F44000000001B
:1031400080B586B000AFF860B9601346FB7100230C
:103150007B61FB79022B1CD0022B25DC002B02D0DB
:10316000012B0BD020E09FED162BB6EE001BB6EE28
:10317000000BB968F86800F037F819E09FED102BE4
:103180009FED111B9FED120BB968F86800F02CF849
:103190000EE09FED112BB6EE001B9FED110BB968F1
:1031A000F86800F021F803E04FF0FF337B6100BFC7
:1031B0007B6918461837BD4680BD00BFAFF300805D
:1031C0000000000000000000713D0AD7A370DD3F41
:1031D00048E17A14AE47E13F7B14AE47E17AB43F51
:1031E000E17A14AE47E1DA3F80B52DED028B8AB06B
:1031F00000AFF861B96187ED040B87ED021B87ED25
:10320000002B00237B6243E07B6A07EE903AB8EE26
:10321000677B9FED256B27EE066BBB6907EE903A47
:10322000B8EE677B86EE075BB0EE450B12F034FC20
:10323000B0EE406B97ED027B26EE077B97ED046BBB
:1032400036EE478B7B6A07EE903AB8EE677B9FEDD0
:10325000186B27EE066BBB6907EE903AB8EE677BFA
:1032600086EE075BB0EE450B12F016FCB0EE406B3D
:1032700097ED007B26EE077B38EE077BFB691A1D76
:10328000FA61F7EEC77BC3ED007A7B6A01337B629C
:103290007A6ABB699A42B7D300BF00BF2837BD46E0
:1032A000BDEC028B80BD00BF182D4454FB2119409A
:1032B000182D4454FB21294080B582B000AF032073
:1032C00000F07EF904F0A8FA0246154B9B691B0A30
:1032D00003F00F031349CB5C03F01F0322FA03F33F
:1032E0007B600F4B9B6903F00F030E4AD35C03F026
:1032F0001F037A6822FA03F30B4A13600B4A7B68B8
:1033000013600F2000F014F80346002B01D00123B6
:1033100002E0FEF733FC002318460837BD4680BDA7
:1033200000440258087001082C00002428000024E2
:1033300080B582B000AF7860154B1B78002B01D1AF
:10334000012321E0134B1A68114B1B7819464FF4E7
:103350007A73B3FBF1F3B2FBF3F3184600F063F9B1
:103360000346002B01D001230EE07B680F2B0AD807
:10337000002279684FF0FF3000F02DF9064A7B6893
:103380001360002300E0012318460837BD4680BDC6
:1033900034000024280000243000002480B400AF52
:1033A000064B1B781A46064B1B681344044A1360ED
:1033B00000BFBD465DF8047B704700BF34000024A9
:1033C000285B022480B400AF034B1B681846BD463F
:1033D0005DF8047B704700BF285B022480B400AF17
:1033E000034B1B681B0C1846BD465DF8047B7047F9
:1033F0000010005C80B483B000AF78603960074B88
:103400005A687B68DB431A4004493B6813434B60AE
:1034100000BF0C37BD465DF8047B704700040058C0
:1034200080B485B000AF78607B6803F00703FB6071
:103430000B4BDB68BB60BA684FF6FF031340BB6001
:10344000FB681A02BB681A43064B1343BB60044A6D
:10345000BB68D36000BF1437BD465DF8047B70477E
:1034600000ED00E00000FA0580B400AF044BDB681B
:103470001B0A03F007031846BD465DF8047B70473E
:1034800000ED00E080B483B000AF0346FB80B7F9E5
:103490000630002B0BDBFB8803F01F020749B7F94E
:1034A00006305B09012000FA02F241F8232000BF38
:1034B0000C37BD465DF8047B704700BF00E100E0BB
:1034C00080B483B000AF03463960FB80B7F90630A3
:1034D000002B0ADB3B68DAB20C49B7F9063012015F
:1034E000D2B20B4483F800230AE03B68DAB2084901
:1034F000FB8803F00F03043B1201D2B20B441A768F
:1035000000BF0C37BD465DF8047B704700E100E06A
:1035100000ED00E080B489B000AFF860B9607A6077
:10352000FB6803F00703FB61FB69C3F10703042B8E
:1035300028BF0423BB61FB690433062B02D9FB6956
:10354000033B00E000237B614FF0FF32BB6902FACE
:1035500003F3DA43BB681A407B699A404FF0FF31AE
:103560007B6901FA03F3D9437B680B401343184688
:103570002437BD465DF8047B7047000080B582B0FB
:1035800000AF78607B68013BB3F1807F01D30123FA
:103590000FE00A4A7B68013B53600F214FF0FF3078
:1035A000FFF78EFF054B00229A60044B07221A603A
:1035B000002318460837BD4680BD00BF10E000E07C
:1035C00080B582B000AF78607868FFF729FF00BF50
:1035D0000837BD4680BD80B586B000AF0346B960F0
:1035E0007A60FB81FFF740FF78617A68B968786993
:1035F000FFF790FF0246B7F90E3011461846FFF765
:103600005FFF00BF1837BD4680BD80B582B000AFF8
:103610000346FB80B7F906301846FFF733FF00BFBB
:103620000837BD4680BD80B582B000AF786078684D
:10363000FFF7A4FF034618460837BD4680BD0000CB
:1036400080B400AFBFF35F8F00BF074B5B6A064AD1
:1036500023F480335362054B00225A6000BFBD46FD
:103660005DF8047B704700BF00ED00E090ED00E0E6
:1036700080B483B000AF78600B4A7B6843F00103ED
:1036800053600A4B5B6A094A43F480335362BFF3C9
:103690004F8F00BFBFF36F8F00BF00BF0C37BD4619
:1036A0005DF8047B704700BF90ED00E000ED00E0A6
:1036B00080B483B000AF78607B685A781B4B9A6007
:1036C0001A4B1B69194A23F001031361174A7B68DF
:1036D0005B68D3607B681B7B1A077B68DB7A1B0601
:1036E0001A437B689B7ADB041A437B685B7B9B04F1
:1036F0001A437B689B7B5B041A437B68DB7B1B0460
:103700001A437B685B7A1B021A437B681B7A5B0057
:1037100013437A6812781146044A0B43136100BFC1
:103720000C37BD465DF8047B704700BF90ED00E0AC
:1037300080B586B000AF7860FFF744FE38617B68E3
:10374000002B01D1012316E37B681B68664A934274
:103750004AD07B681B68654A934245D07B681B68EA
:10376000634A934240D07B681B68624A93423BD0D5
:103770007B681B68604A934236D07B681B685F4A4F
:10378000934231D07B681B685D4A93422CD07B68A2
:103790001B685C4A934227D07B681B685A4A934255
:1037A00022D07B681B68594A93421DD07B681B68F6
:1037B000574A934218D07B681B68564A934213D0ED
:1037C0007B681B68544A93420ED07B681B68534A3F
:1037D000934209D07B681B68514A934204D07B68AE
:1037E0001B68504A934201D1012300E00023002BC3
:1037F00000F03B817B68022283F835207B68002241
:1038000083F834207B681B68374A93424AD07B6830
:103810001B68364A934245D07B681B68344A934202
:1038200040D07B681B68334A93423BD07B681B685F
:10383000314A934236D07B681B68304A934231D07C
:103840007B681B682E4A93422CD07B681B682D4AEC
:10385000934227D07B681B682B4A934222D07B6817
:103860001B682A4A93421DD07B681B68284A9342F2
:1038700018D07B681B68274A934213D07B681B686B
:10388000254A93420ED07B681B68244A934209D094
:103890007B681B68224A934204D07B681B68214ADC
:1038A000934208D17B681B681A687B681B6822F00A
:1038B00001021A6007E07B681B681A687B681B6856
:1038C00022F001021A602FE0FFF77CFD02463B69FF
:1038D000D31A052B28D97B6820225A657B680322DE
:1038E00083F83520012346E2100002402800024000
:1038F0004000024058000240700002408800024030
:10390000A0000240B8000240100402402804024017
:1039100040040240580402407004024088040240FF
:10392000A0040240B80402407B681B681B6803F0D7
:103930000103002BC8D17B681B681B687B617A6917
:10394000834B13407B617B689A687B68DB681A4312
:103950007B681B691A437B685B691A437B689B69B8
:103960001A437B68DB691A437B681B6A13437A69D5
:1039700013437B617B685B6A042B07D17B68DA6A3F
:103980007B681B6B13437A6913437B61714B1A6825
:10399000714B1340B3F1005F28D37B685B68282B21
:1039A00003D97B685B682E2B17D97B685B683E2B3D
:1039B00003D97B685B68422B0FD97B685B68462B19
:1039C00003D97B685B68482B07D97B685B684E2B03
:1039D00005D97B685B68522B01D8012300E00023E6
:1039E000002B03D07B6943F480137B617B681B68E9
:1039F0007A691A607B681B685B697B617B6923F06D
:103A000007037B617B685B6A7A6913437B617B6830
:103A10005B6A042B17D17B689B6A7A6913437B61CD
:103A20007B68DB6A002B0ED0786802F033FB03461C
:103A3000002B08D07B6840225A657B68012283F8FE
:103A40003520012397E17B681B687A695A617868A1
:103A500002F06EFA0346BB607B68DB6D03F01F0368
:103A60003F229A40BB689A60CDE07B681B683B4A66
:103A7000934222D07B681B68394A93421DD07B68F1
:103A80001B68384A934218D07B681B68364A9342B9
:103A900013D07B681B68354A93420ED07B681B6845
:103AA000334A934209D07B681B68324A934204D060
:103AB0007B681B68304A934201D1012300E0002358
:103AC000002B00F097807B681B68244A934221D02A
:103AD0007B681B68224A93421CD07B681B68214A82
:103AE000934217D07B681B681F4A934212D07B68B1
:103AF0001B681E4A93420DD07B681B681C4A934288
:103B000008D07B681B681B4A934203D07B681B6804
:103B1000194A93427B68022283F835207B68002291
:103B200083F834207B681B681B687B617A69134BC0
:103B300013407B617B689B68402B21D07B689B682E
:103B4000802B02D14FF480431BE0002319E000BF1B
:103B50003F8010FE0010005C0000FFFF0854025878
:103B60001C540258305402584454025858540258B5
:103B70006C54025880540258945402580F00FEFFAF
:103B800010237A68D268D2081A437B681B69DB0865
:103B90001A437B685B69DB081A437B689B69DB0817
:103BA0001A437B68DB69DB081A437B681B6A1B09C5
:103BB00013437A6913437B617B681B687A691A60D7
:103BC0007B681B681A466E4B13446E4AA2FB0323A4
:103BD0001B099A007B68DA65786802F0A9F9034648
:103BE000FB607B68DB6D03F01F0301229A40FB68DA
:103BF0005A6008E07B6840225A657B68032283F89C
:103C000035200123B7E07B681B685F4A934272D07E
:103C10007B681B685D4A93426DD07B681B685C4A79
:103C2000934268D07B681B685A4A934263D07B6892
:103C30001B68594A93425ED07B681B68574A93427F
:103C400059D07B681B68564A934254D07B681B68E6
:103C5000544A93424FD07B681B68534A93424AD0E0
:103C60007B681B68514A934245D07B681B68504A69
:103C7000934240D07B681B684E4A93423BD07B689E
:103C80001B684D4A934236D07B681B684B4A93426F
:103C900031D07B681B684A4A93422CD07B681B68F2
:103CA000484A934227D07B681B68474A934222D0F8
:103CB0007B681B68454A93421DD07B681B68444A59
:103CC000934218D07B681B68424A934213D07B68AA
:103CD0001B68414A93420ED07B681B683F4A93425F
:103CE00009D07B681B683E4A934204D07B681B68FE
:103CF0003C4A934201D1012300E00023002B32D043
:103D0000786802F043FA7B689B68802B02D17B685D
:103D100000225A607B685A687B681B6ED2B21A60B8
:103D20007B685B6E7A68926E5A607B685B68002B7A
:103D300010D07B685B68082B0CD8786802F0C0FA5A
:103D40007B68DB6E00221A607B681B6F7A68526F9B
:103D50005A6008E07B680022DA667B6800221A67F6
:103D60007B6800225A677B6800225A657B680122C3
:103D700083F83520002318461837BD4680BD00BFA4
:103D8000F8ABFDA7CDCCCCCC1000024028000240FF
:103D9000400002405800024070000240880002408B
:103DA000A0000240B8000240100402402804024073
:103DB000400402405804024070040240880402405B
:103DC000A0040240B8040240085402581C5402588F
:103DD0003054025844540258585402586C540258F3
:103DE000805402589454025880B586B000AFF860F1
:103DF000B9607A603B600023FB75FB68002B01D142
:103E0000012326E2FB6893F83430012B01D1022311
:103E10001FE2FB68012283F83420FB6893F83530F9
:103E2000DBB2012B40F00A82FB68022283F83520C6
:103E3000FB6800225A65FB681B68684A93424AD0B7
:103E4000FB681B68664A934245D0FB681B68654A5D
:103E5000934240D0FB681B68634A93423BD0FB68A7
:103E60001B68624A934236D0FB681B68604A9342E3
:103E700031D0FB681B685F4A93422CD0FB681B68FB
:103E80005D4A934227D0FB681B685C4A934222D06C
:103E9000FB681B685A4A93421DD0FB681B68594A4D
:103EA000934218D0FB681B68574A934213D0FB68B3
:103EB0001B68564A93420ED0FB681B68544A9342D3
:103EC00009D0FB681B68534A934204D0FB681B6807
:103ED000514A934208D1FB681B681A68FB681B684B
:103EE00022F001021A6007E0FB681B681A68FB6891
:103EF0001B6822F001021A603B687A68B968F868AA
:103F000001F06AFEFB681B68344A93424AD0FB68A2
:103F10001B68334A934245D0FB681B68314A934281
:103F200040D0FB681B68304A93423BD0FB681B685B
:103F30002E4A934236D0FB681B682D4A934231D0FB
:103F4000FB681B682B4A93422CD0FB681B682A4AEB
:103F5000934227D0FB681B68284A934222D0FB6813
:103F60001B68274A93421DD0FB681B68254A934271
:103F700018D0FB681B68244A934213D0FB681B6867
:103F8000224A93420ED0FB681B68214A934209D013
:103F9000FB681B681F4A934204D0FB681B681E4ADB
:103FA000934201D1012300E00023002B36D0FB68AF
:103FB0001B681B6823F01E02FB681B6842F0160298
:103FC0001A60FB681B6C002B3ED0FB681B681A68EC
:103FD000FB681B6842F008021A6035E010000240DE
:103FE0002800024040000240580002407000024099
:103FF00088000240A0000240B800024010040240C5
:104000002804024040040240580402407004024068
:1040100088040240A0040240B8040240FB681B6808
:104020001B6823F00E02FB681B6842F00A021A604C
:10403000FB681B6C002B07D0FB681B681A68FB68C9
:104040001B6842F004021A60FB681B68834A9342B3
:1040500072D0FB681B68824A93426DD0FB681B6874
:10406000804A934268D0FB681B687F4A934263D0C2
:10407000FB681B687D4A93425ED0FB681B687C4AE4
:10408000934259D0FB681B687A4A934254D0FB682C
:104090001B68794A93424FD0FB681B68774A93426A
:1040A0004AD0FB681B68764A934245D0FB681B6880
:1040B000744A934240D0FB681B68734A93423BD0DA
:1040C000FB681B68714A934236D0FB681B68704AD4
:1040D000934231D0FB681B686E4A93422CD0FB6838
:1040E0001B686D4A934227D0FB681B686B4A93425A
:1040F00022D0FB681B686A4A93421DD0FB681B688C
:10410000684A934218D0FB681B68674A934213D0F1
:10411000FB681B68654A93420ED0FB681B68644AC3
:10412000934209D0FB681B68624A934204D0FB6843
:104130001B68614A934201D1012300E00023002B58
:104140001AD0FB681B6E1B6803F48033002B07D06A
:10415000FB681B6E1A68FB681B6E42F480721A6063
:10416000FB68DB6E002B07D0FB68DB6E1A68FB6810
:10417000DB6E42F480721A60FB681B68374A934218
:104180004AD0FB681B68364A934245D0FB681B68DF
:10419000344A934240D0FB681B68334A93423BD079
:1041A000FB681B68314A934236D0FB681B68304A73
:1041B000934231D0FB681B682E4A93422CD0FB6897
:1041C0001B682D4A934227D0FB681B682B4A9342F9
:1041D00022D0FB681B682A4A93421DD0FB681B68EB
:1041E000284A934218D0FB681B68274A934213D091
:1041F000FB681B68254A93420ED0FB681B68244A63
:10420000934209D0FB681B68224A934204D0FB68A2
:104210001B68214A934208D1FB681B681A68FB6837
:104220001B6842F001021A6012E0FB681B681A6802
:10423000FB681B6842F001021A6009E0FB684FF45A
:1042400000625A65FB68002283F834200123FB7565
:10425000FB7D18461837BD4680BD00BF10000240E8
:104260002800024040000240580002407000024016
:1042700088000240A0000240B80002401004024042
:1042800028040240400402405804024070040240E6
:1042900088040240A0040240B804024008540258B6
:1042A0001C5402583054025844540258585402586E
:1042B0006C540258805402589454025880B586B009
:1042C00000AF7860FFF77EF838617B68002B01D182
:1042D0000123DCE27B6893F83530DBB2022B08D097
:1042E0007B6880225A657B68002283F83420012392
:1042F000CDE27B681B68764A93424AD07B681B6894
:10430000744A934245D07B681B68734A934240D0FD
:104310007B681B68714A93423BD07B681B68704A7C
:10432000934236D07B681B686E4A934231D07B68DB
:104330001B686D4A93422CD07B681B686B4A934282
:1043400027D07B681B686A4A934222D07B681B682F
:10435000684A93421DD07B681B68674A934218D015
:104360007B681B68654A934213D07B681B68644A6C
:1043700093420ED07B681B68624A934209D07B68E7
:104380001B68614A934204D07B681B685F4A934272
:1043900001D1012300E00023002B13D07B681B68B0
:1043A0001A687B681B6822F01E021A607B681B6813
:1043B0005A697B681B6822F080025A617B681B681F
:1043C0007B610AE07B681B681A687B681B6822F0C7
:1043D0000E021A607B681B687B617B681B683C4A25
:1043E000934272D07B681B683A4A93426DD07B68D7
:1043F0001B68394A934268D07B681B68374A9342EE
:1044000063D07B681B68364A93425ED07B681B682A
:10441000344A934259D07B681B68334A934254D044
:104420007B681B68314A93424FD07B681B68304AD7
:1044300093424AD07B681B682E4A934245D07B68E2
:104440001B682D4A934240D07B681B682B4A9342DD
:104450003BD07B681B682A4A934236D07B681B6836
:10446000284A934231D07B681B68274A93422CD05C
:104470007B681B68254A934227D07B681B68244AC7
:10448000934222D07B681B68224A93421DD07B68EE
:104490001B68214A934218D07B681B681F4A9342CD
:1044A00013D07B681B681E4A93420ED07B681B6842
:1044B0001C4A934209D07B681B681B4A934204D074
:1044C0007B681B68194A934232D1012331E000BF57
:1044D0001000024028000240400002405800024004
:1044E0007000024088000240A0000240B800024074
:1044F00010040240280402404004024058040240D4
:104500007004024088040240A0040240B804024043
:10451000085402581C54025830540258445402584B
:10452000585402586C5402588054025894540258FB
:104530000023002B07D07B681B6E1A687B681B6EFC
:1045400022F480721A607B681B686D4A93424AD0DD
:104550007B681B686B4A934245D07B681B686A4A3C
:10456000934240D07B681B68684A93423BD07B688B
:104570001B68674A934236D07B681B68654A934242
:1045800031D07B681B68644A93422CD07B681B68DF
:10459000624A934227D07B681B68614A934222D0CB
:1045A0007B681B685F4A93421DD07B681B685E4A2C
:1045B000934218D07B681B685C4A934213D07B6897
:1045C0001B685B4A93420ED07B681B68594A934232
:1045D00009D07B681B68584A934204D07B681B68EB
:1045E000564A934208D17B681B681A687B681B682F
:1045F00022F001021A6007E07B681B681A687B687A
:104600001B6822F001021A6013E0FEF7DBFE02468F
:104610003B69D31A052B0CD97B6820225A657B682D
:10462000032283F835207B68002283F8342001239D
:104630002DE17B691B6803F00103002BE5D17B684A
:104640001B682F4A93424AD07B681B682D4A9342CD
:1046500045D07B681B682C4A934240D07B681B681E
:104660002A4A93423BD07B681B68294A934236D042
:104670007B681B68274A934231D07B681B68264AB7
:1046800093422CD07B681B68244A934227D07B68D6
:104690001B68234A934222D07B681B68214A9342BD
:1046A0001DD07B681B68204A934218D07B681B682A
:1046B0001E4A934213D07B681B681D4A93420ED05A
:1046C0007B681B681B4A934209D07B681B681A4AA7
:1046D000934204D07B681B68184A934201D101239E
:1046E00000E00023002B2BD07B689B6DBB607B68B8
:1046F000DB6D03F01F033F229A40BB689A602AE0FB
:1047000010000240280002404000024058000240D1
:104710007000024088000240A0000240B800024041
:1047200010040240280402404004024058040240A1
:104730007004024088040240A0040240B804024011
:104740007B689B6DFB607B68DB6D03F01F030122C0
:104750009A40FB685A607B681B684F4A934272D04C
:104760007B681B684D4A93426DD07B681B684C4A3E
:10477000934268D07B681B684A4A934263D07B6847
:104780001B68494A93425ED07B681B68474A934244
:1047900059D07B681B68464A934254D07B681B689B
:1047A000444A93424FD07B681B68434A93424AD0A5
:1047B0007B681B68414A934245D07B681B68404A2E
:1047C000934240D07B681B683E4A93423BD07B6853
:1047D0001B683D4A934236D07B681B683B4A934234
:1047E00031D07B681B683A4A93422CD07B681B68A7
:1047F000384A934227D07B681B68374A934222D0BD
:104800007B681B68354A93421DD07B681B68344A1D
:10481000934218D07B681B68324A934213D07B685E
:104820001B68314A93420ED07B681B682F4A934223
:1048300009D07B681B682E4A934204D07B681B68B2
:104840002C4A934201D1012300E00023002B15D014
:104850007B685B6E7A68926E5A607B68DB6E002BB9
:104860000CD07B68DB6E1A687B68DB6E22F480728A
:104870001A607B681B6F7A68526F5A607B680122EE
:1048800083F835207B68002283F834200023184603
:104890001837BD4680BD00BF10000240280002400E
:1048A0004000024058000240700002408800024070
:1048B000A0000240B8000240100402402804024058
:1048C0004004024058040240700402408804024040
:1048D000A0040240B8040240085402581C54025874
:1048E0003054025844540258585402586C540258D8
:1048F000805402589454025880B584B000AF786058
:104900007B68002B01D1012337E27B6893F83530B7
:10491000DBB2022B04D07B6880225A6501232CE293
:104920007B681B685C4A93424AD07B681B685B4A81
:10493000934245D07B681B68594A934240D07B68BC
:104940001B68584A93423BD07B681B68564A934287
:1049500036D07B681B68554A934231D07B681B6810
:10496000534A93422CD07B681B68524A934227D00B
:104970007B681B68504A934222D07B681B684F4A71
:1049800093421DD07B681B684D4A934218D07B68C8
:104990001B684C4A934213D07B681B684A4A934277
:1049A0000ED07B681B68494A934209D07B681B681C
:1049B000474A934204D07B681B68464A934201D120
:1049C000012300E00023002B00F086807B68042296
:1049D00083F835207B681B682F4A93424AD07B6856
:1049E0001B682E4A934245D07B681B682C4A934231
:1049F00040D07B681B682B4A93423BD07B681B6886
:104A0000294A934236D07B681B68284A934231D0AA
:104A10007B681B68264A93422CD07B681B68254A1A
:104A2000934227D07B681B68234A934222D07B683D
:104A30001B68224A93421DD07B681B68204A934220
:104A400018D07B681B681F4A934213D07B681B6891
:104A50001D4A93420ED07B681B681C4A934209D0C2
:104A60007B681B681A4A934204D07B681B68194A0A
:104A7000934208D17B681B681A687B681B6822F028
:104A800001021A6078E17B681B681A687B681B6802
:104A900022F001021A606FE110000240280002407B
:104AA000400002405800024070000240880002406E
:104AB000A0000240B8000240100402402804024056
:104AC000400402405804024070040240880402403E
:104AD000A0040240B80402407B681B681A687B6827
:104AE0001B6822F00E021A607B681B686C4A9342B6
:104AF0004AD07B681B686B4A934245D07B681B6831
:104B0000694A934240D07B681B68684A93423BD015
:104B10007B681B68664A934236D07B681B68654A8F
:104B2000934231D07B681B68634A93422CD07B68E8
:104B30001B68624A934227D07B681B68604A934295
:104B400022D07B681B685F4A93421DD07B681B683C
:104B50005D4A934218D07B681B685C4A934213D02D
:104B60007B681B685A4A93420ED07B681B68594A7F
:104B7000934209D07B681B68574A934204D07B68F4
:104B80001B68564A934208D17B681B681A687B6889
:104B90001B6822F001021A6007E07B681B681A6834
:104BA0007B681B6822F001021A607B681B683C4A24
:104BB000934272D07B681B683A4A93426DD07B68FF
:104BC0001B68394A934268D07B681B68374A934216
:104BD00063D07B681B68364A93425ED07B681B6853
:104BE000344A934259D07B681B68334A934254D06D
:104BF0007B681B68314A93424FD07B681B68304A00
:104C000093424AD07B681B682E4A934245D07B680A
:104C10001B682D4A934240D07B681B682B4A934205
:104C20003BD07B681B682A4A934236D07B681B685E
:104C3000284A934231D07B681B68274A93422CD084
:104C40007B681B68254A934227D07B681B68244AEF
:104C5000934222D07B681B68224A93421DD07B6816
:104C60001B68214A934218D07B681B681F4A9342F5
:104C700013D07B681B681E4A93420ED07B681B686A
:104C80001C4A934209D07B681B681B4A934204D09C
:104C90007B681B68194A934232D1012331E000BF7F
:104CA000100002402800024040000240580002402C
:104CB0007000024088000240A0000240B80002409C
:104CC00010040240280402404004024058040240FC
:104CD0007004024088040240A0040240B80402406C
:104CE000085402581C540258305402584454025874
:104CF000585402586C540258805402589454025824
:104D00000023002B28D07B681B6E1A687B681B6E03
:104D100022F480721A607B689B6DFB607B68DB6DA0
:104D200003F01F0301229A40FB685A607B685B6EA8
:104D30007A68926E5A607B68DB6E002B0CD07B68C1
:104D4000DB6E1A687B68DB6E22F480721A607B6807
:104D50001B6F7A68526F5A607B68012283F8352096
:104D60007B68002283F834207B681B6D002B03D006
:104D70007B681B6D78689847002318461037BD463E
:104D800080BD00BF80B58AB000AF78600023FB60B3
:104D9000674B1B68674AA2FB03239B0A7B627B6805
:104DA0009B6D3B627B689B6DFB613B6A1B68BB61D3
:104DB000FB691B687B617B681B685F4A93424AD032
:104DC0007B681B685D4A934245D07B681B685C4AE0
:104DD000934240D07B681B685A4A93423BD07B6821
:104DE0001B68594A934236D07B681B68574A9342E6
:104DF00031D07B681B68564A93422CD07B681B6875
:104E0000544A934227D07B681B68534A934222D06E
:104E10007B681B68514A93421DD07B681B68504ACF
:104E2000934218D07B681B684E4A934213D07B682C
:104E30001B684D4A93420ED07B681B684B4A9342D5
:104E400009D07B681B684A4A934204D07B681B6880
:104E5000484A934201D1012300E00023002B00F0D7
:104E60002B847B68DB6D03F01F0308229A40BB692B
:104E70001340002B00F0A2807B681B682E4A9342EF
:104E80004AD07B681B682D4A934245D07B681B68DB
:104E90002B4A934240D07B681B682A4A93423BD0FE
:104EA0007B681B68284A934236D07B681B68274A78
:104EB000934231D07B681B68254A93422CD07B6893
:104EC0001B68244A934227D07B681B68224A93427E
:104ED00022D07B681B68214A93421DD07B681B68E7
:104EE0001F4A934218D07B681B681E4A934213D016
:104EF0007B681B681C4A93420ED07B681B681B4A68
:104F0000934209D07B681B68194A934204D07B689E
:104F10001B68184A93422FD17B681B681B6803F0FB
:104F20000403002B14BF01230023DBB22EE000BFDB
:104F300028000024B5814E1B1000024028000240CA
:104F400040000240580002407000024088000240C9
:104F5000A0000240B80002401004024028040240B1
:104F60004004024058040240700402408804024099
:104F7000A0040240B80402407B681B681B6803F071
:104F80000803002B14BF01230023DBB2002B15D034
:104F90007B681B681A687B681B6822F004021A6031
:104FA0007B68DB6D03F01F0308229A403B6A9A601E
:104FB0007B685B6D43F001027B685A657B68DB6D43
:104FC00003F01F03BA6922FA03F303F00103002B75
:104FD0006ED07B681B68694A93424AD07B681B6825
:104FE000674A934245D07B681B68664A934240D02B
:104FF0007B681B68644A93423BD07B681B68634AAA
:10500000934236D07B681B68614A934231D07B68FB
:105010001B68604A93422CD07B681B685E4A9342AF
:1050200027D07B681B685D4A934222D07B681B684F
:105030005B4A93421DD07B681B685A4A934218D042
:105040007B681B68584A934213D07B681B68574A99
:1050500093420ED07B681B68554A934209D07B6807
:105060001B68544A934204D07B681B68524A93429F
:105070000AD17B681B685B6903F08003002B14BFB7
:1050800001230023DBB203E07B681B681B6800235D
:10509000002B0DD07B68DB6D03F01F0301229A40CB
:1050A0003B6A9A607B685B6D43F002027B685A65DD
:1050B0007B68DB6D03F01F0304229A40BB69134039
:1050C000002B00F08F807B681B682C4A93424AD0EB
:1050D0007B681B682A4A934245D07B681B68294A33
:1050E000934240D07B681B68274A93423BD07B6841
:1050F0001B68264A934236D07B681B68244A934239
:1051000031D07B681B68234A93422CD07B681B6894
:10511000214A934227D07B681B68204A934222D0C1
:105120007B681B681E4A93421DD07B681B681D4A22
:10513000934218D07B681B681B4A934213D07B684C
:105140001B681A4A93420ED07B681B68184A934228
:1051500009D07B681B68174A934204D07B681B68A0
:10516000154A93422AD17B681B681B6803F002032F
:10517000002B14BF01230023DBB223E01000024008
:1051800028000240400002405800024070000240E7
:1051900088000240A0000240B80002401004024013
:1051A00028040240400402405804024070040240B7
:1051B00088040240A0040240B80402407B681B68D7
:1051C0001B680023002B0DD07B68DB6D03F01F03F1
:1051D00004229A403B6A9A607B685B6D43F004024C
:1051E0007B685A657B68DB6D03F01F0310229A40D1
:1051F000BB691340002B00F0A6807B681B68854AC2
:1052000093424AD07B681B68834A934245D07B68AF
:105210001B68824A934240D07B681B68804A934255
:105220003BD07B681B687F4A934236D07B681B6803
:105230007D4A934231D07B681B687C4A93422CD0D4
:105240007B681B687A4A934227D07B681B68794A3F
:10525000934222D07B681B68774A93421DD07B68BB
:105260001B68764A934218D07B681B68744A934245
:1052700013D07B681B68734A93420ED07B681B680F
:10528000714A934209D07B681B68704A934204D0EC
:105290007B681B686E4A93420AD17B681B681B6857
:1052A00003F00803002B14BF01230023DBB209E045
:1052B0007B681B681B6803F00403002B14BF0123E9
:1052C0000023DBB2002B3ED07B68DB6D03F01F03B5
:1052D00010229A403B6A9A607B681B681B6803F443
:1052E0008023002B18D07B681B681B6803F4002305
:1052F000002B08D17B681B6C002B24D07B681B6CB7
:10530000786898471FE07B689B6C002B1BD07B68FC
:105310009B6C7868984716E07B681B681B6803F4F1
:105320008073002B07D17B681B681A687B681B6839
:1053300022F008021A607B681B6C002B03D07B688C
:105340001B6C786898477B68DB6D03F01F03202295
:105350009A40BB691340002B00F010817B681B68EA
:105360002C4A93424AD07B681B682B4A934245D013
:105370007B681B68294A934240D07B681B68284A97
:1053800093423BD07B681B68264A934236D07B68A9
:105390001B68254A934231D07B681B68234A93429D
:1053A0002CD07B681B68224A934227D07B681B68FD
:1053B000204A934222D07B681B681F4A93421DD02B
:1053C0007B681B681D4A934218D07B681B681C4A87
:1053D000934213D07B681B681A4A93420ED07B68B5
:1053E0001B68194A934209D07B681B68174A93428D
:1053F00004D07B681B68164A93422BD17B681B68DC
:105400001B6803F01003002B14BF01230023DBB241
:105410002AE000BF10000240280002404000024085
:10542000580002407000024088000240A000024084
:10543000B800024010040240280402404004024028
:10544000580402407004024088040240A004024054
:10545000B80402407B681B681B6803F00203002B42
:1054600014BF01230023DBB2002B00F087807B6890
:10547000DB6D03F01F0320229A403B6A9A607B6831
:1054800093F83530DBB2042B39D17B681B681A687E
:105490007B681B6822F016021A607B681B685A69D9
:1054A0007B681B6822F080025A617B681B6C002BB2
:1054B00003D17B689B6C002B07D07B681B681A6844
:1054C0007B681B6822F008021A607B68DB6D03F0C2
:1054D0001F033F229A403B6A9A607B68012283F84F
:1054E00035207B68002283F834207B681B6D002BFD
:1054F00000F04A837B681B6D7868984744E37B68BB
:105500001B681B6803F48023002B18D07B681B6882
:105510001B6803F40023002B08D17B685B6C002B15
:105520002CD07B685B6C7868984727E07B68DB6BE6
:10553000002B23D07B68DB6B786898471EE07B6884
:105540001B681B6803F48073002B0FD17B681B68FA
:105550001A687B681B6822F010021A607B680122BF
:1055600083F835207B68002283F834207B68DB6B6E
:10557000002B03D07B68DB6B786898477B685B6D9A
:10558000002B00F006837B685B6D03F00103002BAA
:1055900000F088807B68042283F835207B681B68D4
:1055A0007A4A93424AD07B681B68794A934245D035
:1055B0007B681B68774A934240D07B681B68764AB9
:1055C00093423BD07B681B68744A934236D07B6819
:1055D0001B68734A934231D07B681B68714A9342BF
:1055E0002CD07B681B68704A934227D07B681B686D
:1055F0006E4A934222D07B681B686D4A93421DD04D
:105600007B681B686B4A934218D07B681B686A4AA8
:10561000934213D07B681B68684A93420ED07B6824
:105620001B68674A934209D07B681B68654A9342AE
:1056300004D07B681B68644A934208D17B681B686E
:105640001A687B681B6822F001021A6007E07B6819
:105650001B681A687B681B6822F001021A60FB68ED
:105660000133FB607A6A9A4207D37B681B681B6828
:1056700003F00103002BF2D100E000BF7B681B6840
:105680001B6803F00103002B04D07B68032283F81E
:10569000352003E07B68012283F835207B680022F7
:1056A00083F834207B68DB6C002B00F072827B680F
:1056B000DB6C786898476CE27B681B68434A9342CE
:1056C00022D07B681B68424A93421DD07B681B68CE
:1056D000404A934218D07B681B683F4A934213D0DC
:1056E0007B681B683D4A93420ED07B681B683C4A2E
:1056F000934209D07B681B683A4A934204D07B6886
:105700001B68394A934201D1012300E00023002B9A
:1057100000F03F827B681B681B683B617B68DB6D28
:1057200003F01F0304229A407B691340002B00F012
:10573000CD803B6903F00403002B00F0C7807B6839
:10574000DB6D03F01F0304229A40FB695A603B693A
:1057500003F40043002B49D03B6903F48033002B52
:1057600009D17B689B6C002B00F010827B689B6CDE
:10577000786898470AE27B681B6C002B00F0068271
:105780007B681B6C7868984700E200BF10000240FD
:1057900028000240400002405800024070000240D1
:1057A00088000240A0000240B800024010040240FD
:1057B00028040240400402405804024070040240A1
:1057C00088040240A0040240B80402400854025871
:1057D0001C54025830540258445402585854025829
:1057E0006C54025880540258945402583B6903F098
:1057F0002003002B60D17B681B687F4A93424AD00C
:105800007B681B687D4A934245D07B681B687C4A55
:10581000934240D07B681B687A4A93423BD07B68B6
:105820001B68794A934236D07B681B68774A93425B
:1058300031D07B681B68764A93422CD07B681B680A
:10584000744A934227D07B681B68734A934222D0E4
:105850007B681B68714A93421DD07B681B68704A45
:10586000934218D07B681B686E4A934213D07B68C2
:105870001B686D4A93420ED07B681B686B4A93424B
:1058800009D07B681B686A4A934204D07B681B6816
:10589000684A934208D17B681B681A687B681B685A
:1058A00022F008021A6007E07B681B681A687B68B0
:1058B0001B6822F004021A607B681B6C002B00F04E
:1058C00065817B681B6C786898475FE17B68DB6D5E
:1058D00003F01F0302229A407B691340002B00F063
:1058E000C5803B6903F00203002B00F0BF807B689A
:1058F000DB6D03F01F0302229A40FB695A603B698B
:1059000003F40043002B18D03B6903F48033002BD1
:1059100009D17B685B6C002B00F03A817B685B6C83
:105920007868984734E17B68DB6B002B00F03081AE
:105930007B68DB6B786898472AE13B6903F02003BA
:10594000002B40F089807B681B682B4A93424AD029
:105950007B681B68294A934245D07B681B68284AAC
:10596000934240D07B681B68264A93423BD07B68B9
:105970001B68254A934236D07B681B68234A9342B2
:1059800031D07B681B68224A93422CD07B681B680D
:10599000204A934227D07B681B681F4A934222D03B
:1059A0007B681B681D4A93421DD07B681B681C4A9C
:1059B000934218D07B681B681A4A934213D07B68C5
:1059C0001B68194A93420ED07B681B68174A9342A2
:1059D00009D07B681B68164A934204D07B681B6819
:1059E000144A934228D17B681B681A687B681B683D
:1059F00022F014021A6027E0100002402800024042
:105A000040000240580002407000024088000240FE
:105A1000A0000240B80002401004024028040240E6
:105A200040040240580402407004024088040240CE
:105A3000A0040240B80402407B681B681A687B68B7
:105A40001B6822F00A021A607B68012283F8352065
:105A50007B68002283F834207B68DB6B002B00F02E
:105A600097807B68DB6B7868984791E07B68DB6D9B
:105A700003F01F0308229A407B691340002B00F0BB
:105A800088803B6903F00803002B00F082807B686C
:105A90001B68414A93424AD07B681B683F4A934245
:105AA00045D07B681B683E4A934240D07B681B68A8
:105AB0003C4A93423BD07B681B683B4A934236D0BA
:105AC0007B681B68394A934231D07B681B68384A2F
:105AD00093422CD07B681B68364A934227D07B6860
